:100000000C9417030C943F030C943F030C943F0390
:100010000C943F030C943F030C943F030C943C0F4F
:100020000C943F030C9474110C943F030C943F0305
:100030000C943F030C94E3090C943F030C943F038E
:100040000C94A4100C943F030C94B10E0C948B0EE2
:100050000C943F030C943F030C943F030C943F0318
:100060000C940A0A0C943F03D817DE17E417EA171A
:10007000F017F617FC1737193E1945194C19531983
:100080006A195A196A1961194E414E494E49545913
:10009000494E46CDCCCC3D0AD7233C17B7D1387753
:1000A000CC2B329595E6241FB14F0A000020410069
:1000B00000C84200401C4620BCBE4CCA1B0E5AAEB3
:1000C000C59D746364696E6F70737578585B0000CA
:1000D0000000080002010000030407000000000007
:1000E0000000000200000000250028002B00000096
:1000F0000000003E5B4F5B3E3E6B4F6B3E1C3E7C08
:100100003E1C183C7E3C181C577D571C1C5E7F5EB5
:100110001C00183C1800FFE7C3E7FF001824180074
:10012000FFE7DBE7FF30483A060E2629792926400B
:100130007F050507407F05253F5A3CE73C5A7F3E37
:100140001C1C08081C1C3E7F14227F22145F5F00C9
:100150005F5F06097F017F006689956A6060606065
:100160006094A2FFA29408047E040810207E201050
:1001700008082A1C08081C2A08081E101010100C59
:100180001E0C1E0C30383E3830060E3E0E060000A7
:1001900000000000005F00000007000700147F144B
:1001A0007F14242A7F2A12231308646236495620BA
:1001B000500008070300001C2241000041221C00DF
:1001C0002A1C7F1C2A08083E08080080703000089E
:1001D00008080808000060600020100804023E5172
:1001E00049453E00427F4000724949494621414904
:1001F0004D331814127F1027454545393C4A49496B
:100200003141211109073649494936464949291ED4
:1002100000001400000040340000000814224114C3
:1002200014141414004122140802015909063E4115
:100230005D594E7C1211127C7F494949363E41413D
:1002400041227F4141413E7F494949417F09090996
:10025000013E414151737F0808087F00417F410002
:100260002040413F017F081422417F404040407FB1
:10027000021C027F7F0408107F3E4141413E7F09FE
:100280000909063E4151215E7F091929462649493F
:10029000493203017F01033F4040403F1F2040207F
:1002A0001F3F4038403F631408146303047804037D
:1002B0006159494D43007F4141410204081020002B
:1002C0004141417F0402010204404040404000039C
:1002D00007080020545478407F2844443838444468
:1002E0004428384444287F385454541800087E0960
:1002F0000218A4A49C787F0804047800447D400080
:100300002040403D007F1028440000417F40007C99
:10031000047804787C080404783844444438FC1891
:1003200024241818242418FC7C0804040848545475
:10033000542404043F44243C4040207C1C204020A2
:100340001C3C4030403C44281028444C9090907C09
:100350004464544C4400083641000000770000001B
:100360004136080002010204023C2623263C1EA15D
:10037000A161123A4040207A3854545559215555BC
:10038000794122545478422155547840205455796B
:10039000400C1E52721239555555593954545459FE
:1003A00039555454580000457C410002457D4200B7
:1003B00001457C407D1211127DF0282528F07C54E7
:1003C0005545002054547C547C0A097F49324949E0
:1003D00049323A4444443A324A4848303A41412149
:1003E0007A3A42402078009DA0A07D3D4242423DA5
:1003F0003D4040403D3C24FF2424487E4943662B39
:100400002FFC2F2BFF0929F620C0887E09032054DA
:100410005479410000447D413048484A32384040D8
:10042000227A007A0A0A727D0D19317D2629292F38
:1004300028262929292630484D4020380808080850
:1004400008080808382F10C8ACBA2F102834FA0052
:10045000007B000008142A142222142A14085500D4
:10046000550055AA55AA55AAFF55FF55FF00000093
:10047000FF00101010FF00141414FF001010FF00F4
:10048000FF1010F010F0141414FC001414F700FF07
:100490000000FF00FF1414F404FC141417101F10C4
:1004A000101F101F1414141F00101010F000000073
:1004B000001F101010101F10101010F0100000007E
:1004C000FF101010101010101010FF10000000FF8F
:1004D000140000FF00FF00001F10170000FC04F4D0
:1004E00014141710171414F404F40000FF00F71488
:1004F000141414141414F700F7141414171410100F
:100500001F101F141414F4141010F010F000001F2A
:10051000101F0000001F14000000FC140000F01069
:10052000F01010FF10FF141414FF141010101F000F
:10053000000000F010FFFFFFFFFFF0F0F0F0F0FF11
:10054000FFFF0000000000FFFF0F0F0F0F0F3844E8
:10055000443844FC4A4A4A347E02020606027E02BD
:100560007E0263554941633844443C04407E201E6A
:100570002006027E020299A5E7A5991C2A492A1C99
:100580004C7201724C304A4D4D303048784830BC86
:10059000625A463D3E494949007E0101017E2A2AB0
:1005A0002A2A2A44445F444440514A444040444A31
:1005B00051400000FF0103E080FF000008086B6B62
:1005C000083612362436060F090F060000181800E8
:1005D00000001010003040FF0101001F01011E004B
:1005E000191D1712003C3C3C3C00000000000000BC
:1005F0000000240027002A0000000000230026003D
:100600002900040404040404040402020202020295
:1006100003030303030301020408102040800102C6
:10062000040810200102040810208C2D7C2D1124B8
:100630001FBECFEFD8E0DEBFCDBF12E0A0E0B1E03B
:10064000E4E2F7E702C005900D92A833B107D9F7AD
:1006500025E0A8E3B2E001C01D92A835B207E1F79A
:1006600013E0C6E1D3E004C02197FE010E944336A7
:10067000C531D107C9F70E94611F0C94853B0C94CA
:1006800000006F927F928F929F92AF92BF92CF9213
:10069000DF92EF92FF920F931F93CF93DF93EC01C2
:1006A0004B015A0169013801E881F9810680F7811F
:1006B000E02D0995E881F9810684F785E02D870111
:1006C0009601A501B401CE010995E881F981A50142
:1006D000460D571D415051090684F785E02D9601BE
:1006E000B401CE010995E881F9810484F585E02DF6
:1006F0009301A501B401CE010995E881F981C80CE7
:10070000D91CB601615071090484F585E02D93016F
:10071000A501CE010995E881F9810288F389E02DD0
:10072000CE01DF91CF911F910F91FF90EF90DF905D
:10073000CF90BF90AF909F908F907F906F900994D3
:10074000CF92DF92EF92FF920F931F93CF93DF939D
:1007500000D000D000D0CDB7DEB76C01DC01ED9148
:10076000FC916217730789F4041715072CF4942F72
:10077000852FA801092F182F041B150B98012F5F37
:100780003F4F008CF18DE02D12C04017510709F545
:10079000261737072CF4962F872FB901292F382FCA
:1007A000261B370B2F5F3F4F028CF38DE02D870107
:1007B000C601099526960FB6F894DEBF0FBECDBFD1
:1007C000DF91CF911F910F91FF90EF90DF90CF902D
:1007D00008950680F781E02D2D833E834B835C8353
:1007E00069837A830995D601ED91FC910088F1899E
:1007F000E02D2D813E814B815C8169817A81C6012A
:100800000995D601ED91FC910288F389E02DC6018E
:1008100026960FB6F894DEBF0FBECDBFDF91CF9105
:100820001F910F91FF90EF90DF90CF900994EF927E
:10083000FF920F931F93DC01ED91FC9111971A9693
:100840000D911C911B9718962D913C911997048C32
:10085000F58DE02D7B0140E050E060E070E009950F
:100860001F910F91FF90EF9008954F925F926F92BA
:100870007F928F929F92AF92BF92CF92DF92EF9230
:10088000FF920F931F93CF93DF9300D0CDB7DEB7C6
:100890006C015A0139014801DC01ED91FC9106809F
:1008A000F781E02D69837A8309956981462E7A81E3
:1008B000572E640C751CD601ED91FC91461457041B
:1008C0006CF40484F585E02D87019401A501B20143
:1008D000C6010995BFEF4B1A5B0AEDCF0288F38979
:1008E000E02DC6010F900F90DF91CF911F910F91D6
:1008F000FF90EF90DF90CF90BF90AF909F908F9040
:100900007F906F905F904F900994AF92BF92CF927B
:10091000DF92EF92FF920F931F93CF93DF9300D05C
:1009200000D0CDB7DEB75C016901DC01ED91FC912F
:100930000680F781E02D4B835C8369837A83099578
:10094000D501ED91FC9169817A819B012C0D3D1DB2
:10095000215031090088F189E02D78014B815C81BB
:100960008A01C5010995D501ED91FC910288F389B1
:10097000E02DC5010F900F900F900F90DF91CF9158
:100980001F910F91FF90EF90DF90CF90BF90AF90AD
:100990000994AF92BF92CF92DF92EF92FF920F93A2
:1009A0001F93CF93DF9300D000D0CDB7DEB75C01AB
:1009B0006901DC01ED91FC910680F781E02D4B830C
:1009C0005C8369837A830995D501ED91FC914B8114
:1009D0005C81C40ED51EB1E0CB1AD1080088F18924
:1009E000E02D7801860169817A819B01C501099515
:1009F000D501ED91FC910288F389E02DC5010F909E
:100A00000F900F900F90DF91CF911F910F91FF905A
:100A1000EF90DF90CF90BF90AF9009940895EF9240
:100A2000FF920F931F93DC01ED91FC91048CF58DE7
:100A3000E02D09951F910F91FF90EF9008950F936E
:100A40001F93DC01ED91FC91028CF38DE02D099553
:100A50001F910F9108950F931F93DC01ED91FC916D
:100A6000008CF18DE02D09951F910F910895DC0107
:100A7000ED91FC910480F581E02D099408952F9269
:100A80003F924F925F926F927F928F929F92AF921E
:100A9000BF92CF92DF92EF92FF920F931F93CF936B
:100AA000DF9300D01F92CDB7DEB74C017B836A8302
:100AB0006A01590117019801241B350B37FF03C048
:100AC000319521953109C5014A815B81841B950BC4
:100AD00097FF03C091958195910951E05983821741
:100AE000930714F019820BC09A2D8B2D5801092FF2
:100AF000182F9A818B81DB82CA82C92ED82E8A81D7
:100B00009B81A816B9065CF49C2D8D2D6801092FD8
:100B1000182F9A818B81BB82AA82A92EB82E25011B
:100B2000AA81BB814A1A5B0A38016C187D0877FEDE
:100B300003C0719461947108720157FE03C0BFEF46
:100B4000EB1AFB0AF594E794C016D1061CF00FEFE0
:100B50001FEF1FC001E010E01CC0D401ED91FC911B
:100B6000B9810084F185E02D9101BB23C1F04A8158
:100B70005B81B601C4010995E618F708F7FE04C0C9
:100B8000C00ED11EE40CF51CEA81FB813196FB837B
:100B9000EA834A815B81A416B506FCF604C0A6016F
:100BA0006A817B81E7CF0F900F900F90DF91CF91FB
:100BB0001F910F91FF90EF90DF90CF90BF90AF907B
:100BC0009F908F907F906F905F904F903F902F906D
:100BD000089548305105F0F460317105D8F4440FA0
:100BE000551FFC01E40FF51F81E090E002C0880F63
:100BF000991F6A95E2F7232B29F0228D338D822BE2
:100C0000932B06C080959095228D338D822393235C
:100C1000938F828F0895089585ED8093BC00809115
:100C2000BC0084FDFCCF1092290508954091F50287
:100C3000262F30E0240F311D21323105DCF42091C4
:100C400029052430C9F4FC0180E090E0861758F4AF
:100C50003091F5022191DC01AD52BD4FA30FB11DC2
:100C60002C930196F3CF8091F502680F6093F50203
:100C700080E0089581E0089582E00895089581E07C
:100C800090E03091020520910105321710F480E0C8
:100C900090E0919581959109089580910205909138
:100CA0000105891730F48F5F8093020580E090E0A2
:100CB00008958FEF9FEF08958091010590E02091B6
:100CC0000205821B91090895CF92DF92EF92FF9265
:100CD0000F931F93CF93DF937C01262F972F8A01C9
:100CE00080912A05882391F0C62FD72F6E01C40E5C
:100CF000D51ECC15DD0571F06991D701ED91FC9100
:100D00000190F081E02DC7010995F3CF642F822F68
:100D10000E941606C801DF91CF911F910F91FF909D
:100D2000EF90DF90CF900895CF93DF931F92CDB7D0
:100D3000DEB7698320912A052223D1F020914C054A
:100D4000203240F021E030E0FC013383228380E058
:100D500090E015C080912B05E82FF0E0E45DFA4F9C
:100D6000998190838F5F80932B0580934C0505C0FC
:100D700061E0CE0101960E94160681E090E00F909E
:100D8000DF91CF910895809152038823C1F0809123
:100D90003F029091400297FF03C091958195910980
:100DA00020911A0330911B032817390741F460E0A2
:100DB00085E00E940C0F60E086E00E940C0F80919D
:100DC00053038823C1F0809141029091420297FF22
:100DD00003C091958195910920911A0330911B03CD
:100DE0002817390741F460E089E00E940C0F60E0A9
:100DF0008AE00E940C0F809154038823C1F08091F7
:100E000043029091440297FF03C091958195910907
:100E100020911A0330911B032817390741F460E031
:100E200087E00E940C0F60E088E00E940C0F809128
:100E300055038823C1F0809145029091460297FFA7
:100E400003C091958195910920911A0330911B035C
:100E50002817390741F460E08CE00E940C0F60E035
:100E60008DE00E940C0F80911A0390911B03019654
:100E700090931B0380931A038F3F91050CF48CC051
:100E800080915203882341F060E085E00E940C0FBE
:100E900060E086E00E940C0F80915303882341F0AC
:100EA00060E089E00E940C0F60E08AE00E940C0F75
:100EB00080915403882341F060E087E00E940C0F8A
:100EC00060E088E00E940C0F80915503882341F078
:100ED00060E08CE00E940C0F60E08DE00E940C0F3F
:100EE00010921B0310921A0380915203882381F001
:100EF00080913F0290914002181619061CF461E09F
:100F000085E004C0892B21F061E086E00E940C0F8F
:100F100080915303882381F0809141029091420295
:100F2000181619061CF461E08AE004C0892B21F030
:100F300061E089E00E940C0F80915403882381F0C6
:100F40008091430290914402181619061CF461E046
:100F500087E004C0892B21F061E088E00E940C0F3B
:100F600080915503882381F080914502909146023B
:100F7000181619061CF461E08DE004C0892B21F0DD
:100F800061E08CE00E940C0F80916C02882321F0BC
:100F900080916B020C94841D08952F923F924F9282
:100FA0005F926F927F928F929F92AF92BF92CF92F9
:100FB000DF92EF92FF920F931F93CF93DF93CDB702
:100FC000DEB76C970FB6F894DEBF0FBECDBF9C8F17
:100FD0008B8F5B011A011F830E833701C982DC01ED
:100FE00058964D915C9159974115510509F0E5C00E
:100FF00018968D919C911997681779070CF0CAC1C2
:101000001A968D919C911B97281639060CF0C2C137
:101010008C2C912CFB0136E0C39EE00DF11D1124B8
:10102000FB87EA871E161F060CF0B4C1C40133E02B
:10103000880F991F3A95E1F79D878C87820D931D44
:10104000181619060CF0A6C157968C91811103C091
:10105000203B08F02F5FAB8DBC8DED91FC9111977B
:101060000680F781E02DCD012A8F09952A8DB5E004
:101070002B9F90011124F5013596FF87EE87BB82E7
:10108000AA822501A9014A195B09598B488BC10124
:1010900008969B8B8A8BE889F989E40DF51DE2514E
:1010A000FF4F9491988761013D822C82A885A0FF13
:1010B00013C0AB8DBC8DED91FC91B981B13031F491
:1010C0000084F185E02D2E813F8116C00284F385D6
:1010D000E02DEE80FF801AC0EE81FF816E167F0644
:1010E000F1F0AB8DBC8DED91FC91B981B13051F433
:1010F0000084F185E02D9301A601B2018B8D9C8DBA
:1011000009950DC00284F385E02D730184019401DB
:101110004C815D816A817B818B8D9C8D0995E885F1
:10112000E695E887FFEFCF1ADF0A2C813D81280D75
:10113000391D3D832C834A895B89C416D50609F085
:10114000B5CF5FEF451A550A8A819B81880D991D9D
:101150009B838A83AE85BF854A165B0609F09BCFC9
:10116000EE81FF816E167F0609F4F2C0EB8DFC8DD7
:10117000A081B181F981F13079F4B5016B5F7F4FC6
:101180001C96ED91FC911D97830128E030E0A101B0
:101190008B8D9C8D0995DCC06A857B8568197909E2
:1011A0001A96ED91FC911B9773010C851D85940196
:1011B000A1018B8D9C8D0995CBC0FA013496949139
:1011C000329765917491291BCB01B7E02B9F800D5D
:1011D000911D1124FA01259134913B8B2A8BFC013E
:1011E000459154915B834A83FC013296C4903196B9
:1011F00054915E87329614913196D49089818230D1
:1012000058F0612E012E000C7708AD2D0D2C000C2E
:10121000BB0BB987A88704C019861886612C712C6E
:10122000AB8DBC8DED91FC9111970680F781E02D7F
:10123000CD010995B9818B2E912C689CC001699CC8
:10124000900D789C900D1124FC01EA0DFB1DFD878B
:10125000EC871C82712C612CE12F110FFF0B950183
:101260002E0F3F1F3B872A87AC0CB11CA5014E0FE8
:101270005F1F5F8B4E8BC1018D0D911DD7FC9A9521
:10128000998F888F4E85641608F062C0862D90E095
:1012900048855985480F591F489D9001499D300D3B
:1012A000589D300D1124D901A20DB31DB98BA88B07
:1012B000AA84BB844C845D84DC80BA85DB1AE88D0B
:1012C000F98DE80FF91FFD8BEC8B8D2D8A0D2E8982
:1012D0003F89A216B306B9F1877061F48A819B81B8
:1012E0000196EA89FB89AA81BB81EA0FFB1F7490F2
:1012F0009B838A8377FE20C0AB8DBC8DED91FC91E2
:10130000B981B13061F40084F185E02D2E813F81F7
:101310004C895D89B5018B8D9C8D09950DC002842A
:10132000F385E02DEE80FF8084019401488959897E
:10133000B2018B8D9C8D0995770CEFEFAE1ABE0A2A
:10134000480C591CC2CF3C813C0D3C8363949ACF1E
:10135000AB8DBC8DED91FC9111970288F389E02D46
:10136000CD016C960FB6F894DEBF0FBECDBFDF91F6
:10137000CF911F910F91FF90EF90DF90CF90BF9092
:10138000AF909F908F907F906F905F904F903F9025
:101390002F9009946C960FB6F894DEBF0FBECDBFA8
:1013A000DF91CF911F910F91FF90EF90DF90CF9041
:1013B000BF90AF909F908F907F906F905F904F9075
:1013C0003F902F9008951F920F920FB60F92112405
:1013D0002F933F934F935F936F937F938F939F933D
:1013E000AF93BF93EF93FF93E0910001F091010160
:1013F0000995FF91EF91BF91AF919F918F917F914F
:101400006F915F914F913F912F910F900FBE0F9071
:101410001F9018951F920F920FB60F9211242F93C1
:101420003F934F935F936F937F938F939F93AF936C
:10143000BF93EF93FF938091B900887F803609F4C2
:101440009CC068F5883209F45BC090F4803109F4DF
:1014500054C038F4882309F4F6C0883009F44DC02C
:10146000F6C0883109F44CC0803209F45DC0EFC089
:10147000803409F468C048F4803309F455C08833D7
:1014800009F0E5C080932705D8C0803509F44FC026
:10149000883509F45DC0883409F0D9C0D6C08839D0
:1014A00009F4C7C0A8F4883709F467C038F488364F
:1014B00009F463C0803709F460C0C9C0883809F4F2
:1014C000B8C0803909F45FC0803809F0C0C05BC083
:1014D000803B09F486C038F4803A09F466C0883A43
:1014E00009F47FC0B4C0803C09F4A7C0883C09F46B
:1014F000A4C0883B09F48AC0AAC08091040510C02A
:101500009091260580912505981770F5E0912605A4
:1015100081E08E0F80932605F0E0EB5FFA4F80812B
:101520008093BB0085EC86C0809327058EC0E09138
:10153000260581E08E0F809326058091BB00F0E0A8
:10154000EB5FFA4F808390912605809125056EC050
:10155000E091260581E08E0F809326058091BB00E7
:10156000F0E0EB5FFA4F80838091280581116DC018
:1015700081E08093030584EA61C083E080932905BC
:1015800010921903CFCF80911903803208F051C017
:10159000E091190381E08E0F809319038091BB00C5
:1015A000F0E0E750FD4F8083BDCF85EC8093BC0019
:1015B0001092290580911903803230F4E0911903CB
:1015C000F0E0E750FD4F10826091190370E0E09168
:1015D000F702F091F80289EF92E009951092190351
:1015E00036C084E0809329051092F6021092F5022D
:1015F000E091F302F091F40209958091F5028111D6
:1016000005C081E08093F5021092D302E091F602CA
:1016100081E08E0F8093F602F0E0ED52FD4F808165
:101620008093BB009091F6028091F502981708F420
:1016300079CF85E88093BC000AC085EC8093BC001C
:101640001092290504C0109227050E940C06FF91F4
:10165000EF91BF91AF919F918F917F916F915F912A
:101660004F913F912F910F900FBE0F901F901895A3
:101670006DEF71E086E593E00E94890E61E072E013
:1016800086E593E00C94890ECF92DF92EF92FF9261
:10169000CF93DF93CDB7DEB72C970FB6F894DEBFAC
:1016A0000FBECDBF7B016A01BC0186E593E00E94BD
:1016B000890E6AEE71E086E593E00E94890E8EE065
:1016C000E816F104F4F0B7016E5071094AE0CE015A
:1016D00007960E94EF0D62E172E0CE0101960E9432
:1016E000390EBE01695F7F4FCE0101960E94B80D91
:1016F0000E943F13CE0101960E94EA0DCE0107968B
:101700000CC04AE0B701CE0101960E94EF0DCE0158
:1017100001960E943F13CE0101960E94EA0D6AEEE7
:1017200071E086E593E00E94890E0D2C000CEE0816
:10173000FF08F7FE0CC08DE20E948B136627772707
:10174000CB016C197D098E099F094AE003C04AE06C
:10175000C701B6010E9448136FE072E086E593E08E
:101760000E94740E2C960FB6F894DEBF0FBECDBF4C
:10177000DF91CF91FF90EF90DF90CF900895CF93BE
:10178000DF93EB01FC0160816134E1F43F932F931F
:101790005F934F93DF93CF9324E132E03F932F93F6
:1017A0009F938F930E945C38888199810E969983CC
:1017B00088838DB79EB70A960FB6F8949EBF0FBE6A
:1017C0008DBF16C03F932F935F934F93DF93CF93BB
:1017D00020EC31E03F932F939F938F930E945C38CE
:1017E0008DB79EB70A960FB6F8949EBF0FBE8DBFF9
:1017F000DF91CF910895CF93DF93EB01FC0120811E
:101800002134D1F45F934F93DF936F932FE132E054
:101810003F932F939F938F930E945C388881998187
:101820000E96998388838DB79EB708960FB6F89465
:101830009EBF0FBE8DBF14C05F934F93DF936F9316
:1018400023EC31E03F932F939F938F930E945C385A
:101850008DB79EB708960FB6F8949EBF0FBE8DBF8A
:10186000DF91CF910895CF93DF93EB01FC012081AD
:10187000213481F4DF936F9327E232E03F932F937B
:101880009F938F930E945C38888199810E969983EB
:1018900088830AC0DF936F9326EC31E03F932F9348
:1018A0009F938F930E945C380F900F900F900F9032
:1018B0000F900F90DF91CF910895CF92DF92EF922A
:1018C000FF920F931F93CF93DF936C017A018B01EB
:1018D000C0E0D0E0CE15DF0589F0D8016D918D0113
:1018E000D601ED91FC910190F081E02DC6010995A2
:1018F000892B11F47E0102C02196ECCFC701DF9144
:10190000CF911F910F91FF90EF90DF90CF900895AE
:10191000FC01918D828D981761F0828DDF01A80FF7
:10192000B11D5D968C91928D9F5F9F73928F90E019
:1019300008958FEF9FEF0895FC01918D828D981788
:1019400031F0828DE80FF11D858D90E008958FEFC5
:101950009FEF0895FC01918D228D892F90E0805C8E
:101960009F4F821B91098F739927089586E593E015
:101970000E94AA0C21E0892B09F420E0822F08950F
:10198000FC01848DDF01A80FB11DA35ABF4F2C911C
:10199000848D90E001968F739927848FA689B789EB
:1019A0002C93A089B1898C9180648C93938D848DC4
:1019B000981306C00288F389E02D80818F7D808393
:1019C0000895EF92FF920F931F93CF93DF93EC0153
:1019D00081E0888F9B8D8C8D981305C0E889F989EB
:1019E000808185FD24C0F62E0B8D10E00F5F1F4F08
:1019F0000F731127E02E8C8DE8120CC00FB607FC78
:101A0000FACFE889F989808185FFF5CFCE010E9460
:101A1000C00CF1CF8B8DFE01E80FF11DE35AFF4F93
:101A2000F0820B8FEA89FB898081806207C0EE8992
:101A3000FF896083E889F98980818064808381E0FF
:101A400090E0DF91CF911F910F91FF90EF9008955B
:101A5000CF93DF93EC01888D8823C9F0EA89FB8955
:101A6000808185FD05C0A889B9898C9186FD0FC04C
:101A70000FB607FCF5CF808185FFF2CFA889B98921
:101A80008C9185FFEDCFCE010E94C00CE7CFDF9196
:101A9000CF91089580E090E0892B29F00E94B60C48
:101AA00081110C9400000895833081F028F4813076
:101AB00099F08230A1F008958730A9F08830B9F00C
:101AC0008430D1F4809180008F7D03C080918000AC
:101AD0008F7780938000089584B58F7702C084B596
:101AE0008F7D84BD08958091B0008F7703C0809171
:101AF000B0008F7D8093B00008950E9447380F9307
:101B00001F93CF93DF93EC0188819981009729F08F
:101B10002A813B812617370788F48B016F5F7F4F3F
:101B20000E947D37009761F0998388831B830A8325
:101B30002C813D81232B11F4FC01108281E001C036
:101B400080E0DF91CF911F910F910895CF93DF93A4
:101B5000EC0188819981009711F00E94E536198285
:101B600018821D821C821B821A82DF91CF910895F8
:101B7000EF92FF920F931F93CF93DF93EC01FB0142
:101B800084819581E080F1800C811D81E114F10454
:101B9000B1F00097B9F0080F191FB801CE010E94EB
:101BA0007F0D882361F0288139818C819D81B70167
:101BB000820F931F0E9455381D830C8303C0CE01F2
:101BC0000E94A60DCE01DF91CF911F910F91FF9042
:101BD000EF900895FC01808191810C94E536CF92BD
:101BE000DF92EF92FF920F931F93CF93DF93CDB7C6
:101BF000DEB762970FB6F894DEBF0FBECDBF8C0183
:101C0000CB01F80111821082138212821582148294
:101C100050E09E012F5F3F4F6901B9010E941B31C7
:101C2000F60101900020E9F731977F01EC18FD08DB
:101C3000B701C8010E947F0D811104C0C8010E9434
:101C4000A60D08C0F801F582E482B6018081918179
:101C50000E94553862960FB6F894DEBF0FBECDBF16
:101C6000DF91CF911F910F91FF90EF90DF90CF9078
:101C70000895EF92FF920F931F93CF93DF93EC01A0
:101C8000198218821B821A821D821C8261157105BD
:101C900021F18B01FB0101900020E9F731977F01D1
:101CA000E61AF70AB7010E947F0D811109C0CE0123
:101CB000DF91CF911F910F91FF90EF900C94A60DA3
:101CC000FD82EC82B80188819981DF91CF911F91CB
:101CD0000F91FF90EF900C945538DF91CF911F91A9
:101CE0000F91FF90EF9008956115710579F0FB0158
:101CF00001900020E9F73197AF01461B570BDC013B
:101D0000ED91FC910280F381E02D099480E090E058
:101D100008950C94740E1F920F920FB60F92112417
:101D20002F933F934F935F936F937F938F939F93E3
:101D3000AF93BF93EF93FF9386E593E00E94C00CAF
:101D4000FF91EF91BF91AF919F918F917F916F9193
:101D50005F914F913F912F910F900FBE0F901F9069
:101D600018951F920F920FB60F9211242F938F93F5
:101D70009F93EF93FF93E0916603F0916703808157
:101D8000E0916C03F0916D0382FD12C0908180910F
:101D90006F038F5F8F7320917003821751F0E09172
:101DA0006F03F0E0EA5AFC4F958F80936F0301C0F8
:101DB0008081FF91EF919F918F912F910F900FBE96
:101DC0000F901F901895CF93DF93282F30E0F901E3
:101DD000E153FF4F8491F901EA5EF94FD491F90183
:101DE000EE5FF94FC491CC2391F081110E94540D04
:101DF000EC2FF0E0EE0FFF1FE850FA4FA591B491E1
:101E0000EC91ED2381E090E021F480E002C080E0DD
:101E100090E0DF91CF9108951F93CF93DF93282F08
:101E200030E0F901E153FF4F8491F901EA5EF94F87
:101E3000D491F901EE5FF94FC491CC23C9F0162F6C
:101E400081110E94540DEC2FF0E0EE0FFF1FEC51BA
:101E5000FF4FA591B4918FB7F894111105C09C91D3
:101E6000ED2FE095E92302C0EC91ED2BEC938FBFB1
:101E7000DF91CF911F9108951F920F920FB60F928D
:101E800011242F933F934F935F936F937F938F937F
:101E90009F93AF93BF93EF93FF9380913B029091F9
:101EA0003C02A0913D02B0913E02892B8A2B8B2BE4
:101EB00059F180913802E0913902F0913A02908113
:101EC0008927808380913B0290913C02A0913D0242
:101ED000B0913E02181619061A061B060CF03DC0FA
:101EE00080913B0290913C02A0913D02B0913E0254
:101EF0000197A109B10980933B0290933C02A09302
:101F00003D02B0933E0229C080910201E3EEF0E071
:101F1000E4919FEF90930201E130B9F098F0E23044
:101F2000C9F4909170009D7F9093700091E0909320
:101F3000B0009091B100987F94609093B10010929E
:101F4000B30008C010926E0005C090916F009D7F95
:101F500090936F0060E00E940C0FFF91EF91BF9192
:101F6000AF919F918F917F916F915F914F913F9131
:101F70002F910F900FBE0F901F901895CF93DF9366
:101F800090E0FC01EA5EF94F2491FC01EE5FF94F0D
:101F90008491882361F190E0880F991FFC01E25140
:101FA000FA4FC591D491FC01EC51FF4FA591B4912A
:101FB000611109C09FB7F894888120958223888396
:101FC000EC912E230BC0623061F49FB7F8943881F6
:101FD000822F809583238883EC912E2B2C939FBF97
:101FE00006C08FB7F894E8812E2B28838FBFDF912E
:101FF000CF910895CF93DF93FC012281222359F1E1
:10200000EC0161E083810E94BE0F61E08C810E943F
:10201000BE0F8A81843011F0883039F461E08D81FF
:102020000E94BE0F61E08E8106C0833011F08630C1
:1020300021F461E08D810E94BE0F8EA58F3F59F083
:1020400061E00E94BE0F6DA581E068278EA5DF913B
:10205000CF910C940C0FDF91CF9108958E3008F042
:102060008E508770806480937C0080917A008064B9
:1020700080937A0080917A0086FDFCCF8091780071
:102080002091790090E0922B08953FB7F8948091C9
:10209000200390912103A0912203B091230326B540
:1020A000A89B05C02F3F19F00196A11DB11D3FBF90
:1020B000BA2FA92F982F8827820F911DA11DB11D1E
:1020C000BC01CD0142E0660F771F881F991F4A951A
:1020D000D1F708958F929F92AF92BF92CF92DF92E5
:1020E000EF92FF926B017C010E9445104B015C0155
:1020F000C114D104E104F104F1F00E944510DC01A7
:10210000CB0188199909AA09BB09883E9340A1050A
:10211000B10570F321E0C21AD108E108F10888EE98
:10212000880E83E0981EA11CB11CC114D104E104E7
:10213000F10419F7DDCFFF90EF90DF90CF90BF90C3
:10214000AF909F908F9008951F920F920FB60F92AD
:1021500011242F933F938F939F93AF93BF938091BD
:102160004D0590914E05A0914F05B09150053091CD
:102170001F0323E0230F2D3720F40196A11DB11D6D
:1021800005C026E8230F0296A11DB11D20931F0351
:1021900080934D0590934E05A0934F05B093500545
:1021A0008091200390912103A0912203B0912303F9
:1021B0000196A11DB11D8093200390932103A0934C
:1021C0002203B0932303BF91AF919F918F913F91D1
:1021D0002F910F900FBE0F901F901895CF93FC0179
:1021E000C0818FEF8C0F8B3098F520E437E0DB0156
:1021F0000E94493624EB30E040E050E00E94313448
:10220000DA01C901805E9D4FAF4FBF4F8032F2E0CF
:102210009F0744F09C01213689E038072CF020E626
:1022200039E002C020E232E028503109EC2FF0E022
:10223000C901880F892F881F990BAF01440F551FC3
:10224000E40FF51FE95BFD4F8183220F2095228368
:10225000CF9108950F931F93CF938C01C62F809138
:102260001E03811123C080E090E03BE027E5FC01E4
:10227000E95BFD4F34832583039681329105B9F7DD
:102280008BE18093480210921D0310921C03109260
:1022900070001092B00082E08093B1001092B20002
:1022A00081E087BB8093700080931E03D8018C91DE
:1022B0008823A1F061E08C2F0E94BE0FD801EC9121
:1022C000F0E0CF01880F991FE80FF91FE95BFD4F80
:1022D000CF718081807EC82BC062C083F80180816D
:1022E000CF911F910F9108951F920F920FB60F92E9
:1022F00011242F933F934F935F936F937F938F930B
:102300009F93AF93BF93EF93FF9380911C038F5FD5
:1023100080931C0320911C0380911D0390E0FC011D
:10232000EE0FFF1F8E0F9F1FFC01E95BFD4F8181A8
:1023300028130FC080911D0390E0FC01EE0FFF1FDA
:102340008E0F9F1FFC01E95BFD4F82818093B200DD
:1023500065C020911C0380911D0390E0FC01EE0FED
:10236000FF1F8E0F9F1FFC01E95BFD4F81818217CC
:1023700008F054C080911D0390E0FC01EE0FFF1F98
:102380008E0F9F1FFC01E95BFD4F808185FF10C010
:1023900080911D0390E0FC01EE0FFF1F8E0F9F1F29
:1023A000FC01E95BFD4F808160E08F710E940C0FA2
:1023B00080911D038F5F80931D0310921C03109268
:1023C000B20080911D03882319F180911D038C3088
:1023D000F8F480911D0390E0FC01EE0FFF1F8E0FBB
:1023E0009F1FFC01E95BFD4F808185FF17C0809135
:1023F0001D0390E0FC01EE0FFF1F8E0F9F1FFC01DD
:10240000E95BFD4F808161E08F710E940C0F06C077
:1024100080911D038C3010F010921D03FF91EF91FD
:10242000BF91AF919F918F917F916F915F914F91EC
:102430003F912F910F900FBE0F901F9018951F93F3
:10244000CF93DF93EC01162F8981882331F08E81A1
:1024500087FD03C060E00E94BE0F1E838981882330
:1024600041F061E0812F0E94BE0F60E0812F0E9449
:102470000C0F812F90E0FC01EE5FF94FE491F0E04A
:10248000EE0FFF1FEC51FF4F259134913B8B2A8BB0
:10249000FC01EA5EF94FE491EC8BDF91CF911F9143
:1024A00008954F925F926F927F928F929F92AF9218
:1024B000BF92CF92DF92EF92FF92CF93DF93EC0126
:1024C0006A017B018B8C9C8CAD8CBE8C9A01AB011C
:1024D000C501B4010E94DB32882309F449C06BA90D
:1024E0007CA98DA99EA90E94E2322B013C01A70183
:1024F0009601C501B4010E940E359B01AC01C301D8
:10250000B2010E9441330E9480356BAB7CAB8DAB36
:102510009EABA701960160E070E080E090E40E942D
:102520000E350E94C13526E53EE04DE25FE30E9494
:10253000413320E034E244E759E40E9441336FAB79
:1025400078AF89AF9AAFCB8EDC8EED8EFE8ECE014A
:10255000DF91CF91FF90EF90DF90CF90BF90AF9041
:102560009F908F907F906F905F904F900C942F1B57
:10257000DF91CF91FF90EF90DF90CF90BF90AF9021
:102580009F908F907F906F905F904F900895CF9223
:10259000DF92EF92FF92CF93DF93EC010E94451000
:1025A0006B017C018FA198A5A9A5BAA5B701A601C9
:1025B000481B590B6A0B7B0B8BA19CA1ADA1BEA143
:1025C000481759076A077B0730F1FE01ED5BFF4FA3
:1025D00020818B859C85AD85BE85222321F00196C7
:1025E000A11DB11D03C00197A109B1098B879C876B
:1025F000AD87BE87E881F9814B855C856D857E85D9
:102600000680F781E02DCE010995CFA2D8A6E9A6D4
:10261000FAA681E001C080E0DF91CF91FF90EF90BA
:10262000DF90CF9008950F931F93FC0107851089C9
:102630002189328943855485658576850417150778
:1026400026073707C1F0ED5BFF4F401751076207C0
:1026500073071CF421E0208301C01082FC0143A118
:1026600054A165A176A1452B462B472B21F01F9144
:102670000F910C94C71280E01F910F910895FC01F7
:10268000448155816081718186E593E00C945D0CF5
:102690008F929F92AF92BF920F931F93CF93DF932E
:1026A000CDB7DEB7A1970FB6F894DEBF0FBECDBF92
:1026B00019A2423008F44AE08E010F5D1F4F842EAC
:1026C000912CA12CB12CA50194010E940F34E62F6E
:1026D000B901CA0101501109EA3014F4E05D01C0EA
:1026E000E95CD801EC93232B242B252B61F7B8014F
:1026F00086E593E00E94740EA1960FB6F894DEBFB3
:102700000FBECDBFDF91CF911F910F91BF90AF90C2
:102710009F908F900895E0915603F0915703019098
:10272000F081E02D682F86E593E009944F925F9247
:102730006F927F928F929F92AF92BF92CF92DF92D1
:10274000EF92FF926B017C01B42E9B01AC010E94C1
:102750000136882319F06CE272E027C026013701A8
:10276000E89477F82FEF3FEF4FE75FE7C301B2013F
:102770000E94013681110DC02FEF3FEF4FE75FE759
:10278000C301B2010E94DB3218161CF460E372E050
:102790000CC02FEF3FEF4FE75FE4C701B6010E9487
:1027A000B635181694F464E372E086E593E0FF9082
:1027B000EF90DF90CF90BF90AF909F908F907F90E1
:1027C0006F905F904F900C94740E2FEF3FEF4FE798
:1027D0005FECC701B6010E94DB3287FDE4CF20E049
:1027E00030E0A901C701B6010E94DB3287FF09C0B2
:1027F0008DE20E948B134C01F7FAF094F7F8F094F5
:1028000002C0812C912CA12C60E070E080E09FE35D
:10281000AB1441F020E030E040E251E40E940E357C
:10282000A394F6CF9B01AC01C701B6010E94A2346C
:102830002B013C010E9487356B017C010E94E03234
:102840009B01AC01C301B2010E94A1342B013C01E8
:102850004AE0C701B6010E9448137C01E80CF91C4C
:10286000BB2029F08EE20E948B13E80EF91EDB2CB0
:10287000DD2021F120E030E040E251E4C301B2016B
:102880000E9441332B013C010E9487354B01A12C52
:10289000B12C4AE0C501B4010E944813E80EF91EAC
:1028A000C501B4010E94E0329B01AC01C301B20139
:1028B0000E94A1342B013C01DA94DACFC701FF90CA
:1028C000EF90DF90CF90BF90AF909F908F907F90D0
:1028D0006F905F904F900895DC01909125049923AB
:1028E00061F0699FB0011124672F499FA001112455
:1028F000452F299F90011124232F30912B04809183
:102900002804E0912604F0912704381308C0CD0173
:10291000880F991F8A0F9B1F8E0F9F1F0BC0CD0121
:10292000880F991F880F991F8E0F9F1FFC01E30FBF
:10293000F11D108230912804FC01E30FF11D60832A
:1029400030912904FC01E30FF11D408330912A04EA
:10295000FC01E30FF11D208308951F93CF93DF93B4
:1029600011E0180F209125041217A1F1C09126043F
:10297000D09127042150B9F08F3F59F430E040E066
:1029800050E06FEF7FEF80E090E00E943134B901BA
:102990000CC0812F90E0982F88270197622F70E05C
:1029A0000E941B3602C060E070E0FE0140912204EC
:1029B00050912304CF018C1B9D0B8417950740F485
:1029C0004081469FC001479F900D11249193EECF07
:1029D00010932504DF91CF911F910895CF93DF933A
:1029E000BC0186E593E00E94740EEC016FE072E09A
:1029F00086E593E00E94740E8C0F9D1FDF91CF91AE
:102A00000895CF92DF92EF92FF920F931F93CF938F
:102A1000DF93F82EEB0161E00E94BE0F60E08F2D86
:102A20000E940C0F83E090E00197F1F761E08F2D99
:102A30000E940C0F83E290E00197F1F760E08F2D88
:102A40000E940C0F60E08C2F0E94BE0FDD27FE015C
:102A5000EA5EF94F6491FE01EE5FF94FE491F0E018
:102A6000EE0FFF1FE850FA4F8591949100E412E4B5
:102A70002FE030E0462F0E941C1F61157105810573
:102A8000910539F0DC01CB010196A11DB11DBF708C
:102A900003C080E090E0DC01BC0180E090E00E9497
:102AA000E0322DEC3CEC48E652E40E940E356B011E
:102AB0007C0120E030E040EC50E40E94B63518166E
:102AC00054F42AE037ED43EA5FE3C701B6010E9400
:102AD00041336B017C0120E030E0A901C701B60160
:102AE0000E94DB32811107C0C12C80ECD82E89E70F
:102AF000E82E84E4F82EC701B6010E948035CB0190
:102B0000DF91CF911F910F91FF90EF90DF90CF90C9
:102B100008952F923F924F925F926F927F928F9281
:102B20009F92AF92BF92CF92DF92EF92FF920F935C
:102B30001F93CF93DF9300D000D0CDB7DEB71092B4
:102B40005203109253031092540310925503809035
:102B5000E8049090E904A090EA04B090EB04DC0152
:102B6000CB01880D991DAA1DBB1D8093E80490938D
:102B7000E904A093EA04B093EB048091EC049091F3
:102B8000ED04A091EE04B091EF04080F191F2A1F65
:102B90003B1F0093EC041093ED042093EE0430935C
:102BA000EF04BA01550F880B990B0E94E232AB017A
:102BB000BC018CE894E00E94A11CB701FF0C880BBB
:102BC000990B0E94E232AB01BC0188E494E00E94C0
:102BD000A11C8090470448EEE42E44E0F42E53E319
:102BE000252E54E0352E912C10E000E0B12CA12CC4
:102BF0009814B9F1F70181919191A191B1917F015F
:102C0000F101C190D1901F01F60143845484658481
:102C10007684BC01CD01641975098609970997FF6F
:102C200007C090958095709561957F4F8F4F9F4F0E
:102C30000E94E232F6012789308D418D528D0E942B
:102C40000E353B016C01212F302F4B2D5A2D0E9448
:102C5000B635181624F4162D072DBC2CAD2C9394E4
:102C6000C7CF20E030E0A901612F702F8B2D9A2D66
:102C70000E94B63518160CF054C0D12C8091470430
:102C8000D81608F04EC08D2D90E0FC01EE0FFF1F0E
:102C9000EE0FFF1FE851FB4F408051806280738030
:102CA0004C01880C991CF401ED5CFB4FE080F18035
:102CB000F70183859485A585B685A3019201281B1C
:102CC000390B4A0B5B0BCA01B9010E94E232212F7A
:102CD000302F4B2D5A2D0E940E35AB01BC01F70150
:102CE00087859089A189B28984159505A605B705C0
:102CF00079F04786508A618A728AC70149835A836C
:102D00006B837C830E942F1B7C816B815A8149815C
:102D1000F401ED5CFB4F808191810E94B31AD39442
:102D2000ADCF80E0F12C90914704F91620F5EF2DFE
:102D3000F0E0EE0FFF1FED5CFB4F0190F081E02D06
:102D40000785108921893289438554856585768573
:102D5000041715072607370761F083A194A1A5A1E1
:102D6000B6A1892B8A2B8B2B19F0CF010E94C71299
:102D700081E0F394D8CF8111D4CF8CE894E00E9405
:102D8000831988E494E00F900F900F900F90DF91DB
:102D9000CF911F910F91FF90EF90DF90CF90BF9058
:102DA000AF909F908F907F906F905F904F903F90EB
:102DB0002F900C948319CF93DF930E943F13EC0163
:102DC0006FE072E086E593E00E94740E8C0F9D1F09
:102DD000DF91CF9108959FB7F894A4E2B3E0919664
:102DE000ED91FC919297208190968C91822B80831B
:102DF0009FBF08959FB7F894A4E2B3E05E96ED916B
:102E0000FC915F9720815D968C91822B80839FBF80
:102E100008959FB7F894A4E2B3E05B96ED91FC911E
:102E20005C9720815A968C91822B80839FBF089556
:102E30008F929F92AF92BF92CF92DF92EF92FF92CA
:102E40000F931F93CF93DF93C0E0D0E010E0E82E04
:102E5000880FFF088BE0C82ED12C812C912C5401B7
:102E600083940C2FC7010C2E02C0959587950A9468
:102E7000E2F780FF03C00E94FA160DC02FB7F89446
:102E8000E0914203F091430390818091410380954A
:102E9000892380832FBF2FB7F894E0913F03F091EF
:102EA0004003908180913E038095892380832FBFCA
:102EB000C6010197F1F7E0914803F0914903908131
:102EC00080914703892351F0D501C40104C0880FC4
:102ED000991FAA1FBB1F0A95D2F7182B0E9409172A
:102EE0002196C830D10509F0BCCF0E94FA1687E0C0
:102EF00090E00197F1F7812FDF91CF911F910F9112
:102F0000FF90EF90DF90CF90BF90AF909F908F9009
:102F100008952FB7F894A4E2B3E09196ED91FC9157
:102F20009297908190968C918095892380832FBF72
:102F30000895EF92FF920F931F93CF93DF937C013D
:102F4000C62F0E9489178701D0E0C8018E199F09FA
:102F50008C179D0734F4F80181918F010E94181796
:102F6000F4CF0E94EB1660914E0370E080E090E099
:102F7000DF91CF911F910F91FF90EF900C946A1009
:102F8000CF93DF934770552766277727FA0131974C
:102F9000EC01A881B981E730F10520F4EC5CFF4F2A
:102FA0000C9443361496ED91FC91159761E029C07D
:102FB0001496ED91FC91159765E023C01496ED9160
:102FC000FC91159764E01DC01496ED91FC91159746
:102FD00066E017C01496ED91FC91159762E011C060
:102FE0001496ED91FC9115976AE00BC01496ED9143
:102FF000FC91159768E005C01496ED91FC9115972A
:1030000069E0DF91CF910994CF93DF93EC01CB017D
:10301000BA0126E030E040E050E00E9431346230F6
:1030200071058105910559F18CF4611571058105D2
:103030009105F1F06130710581059105C1F5E881D7
:10304000F9810480F581E02D65E02DC064307105C3
:103050008105910511F1D4F0653071058105910567
:1030600031F5E881F9810480F581E02D66E01BC02F
:10307000E881F9810480F581E02D64E014C0E881E5
:10308000F9810480F581E02D61E00DC0E881F981CE
:103090000480F581E02D63E006C0E881F9810480B9
:1030A000F581E02D62E0CE01DF91CF910994DF91AF
:1030B000CF9108954370552766277727DC01ED915E
:1030C000FC910480F581E02D4230510561057105C8
:1030D00071F0433051056105710559F041305105DA
:1030E0006105710511F065E005C066E003C06AE0A6
:1030F00001C069E00994CF93DF93EC01CB01BA01E1
:1031000023E030E040E050E00E943134613071054E
:103110008105910581F0623071058105910591F07D
:10312000672B682B692BC1F4E881F9810480F58154
:10313000E02D64E00DC0E881F9810480F581E02D87
:1031400061E006C0E881F9810480F581E02D62E04C
:10315000CE01DF91CF910994DF91CF910895437013
:10316000552766277727DC01ED91FC910480F581D6
:10317000E02D423051056105710571F04330510574
:103180006105710559F0413051056105710511F076
:1031900062E005C063E003C061E001C060E0099443
:1031A0000F931F93CF93DF93EC01E881F9810480A3
:1031B000F581E02D8C010D5B1F4FD8018C918111A1
:1031C00002C060E001C062E0CE010995E881F981AA
:1031D0000480F581E02DD8018C91811102C061E05D
:1031E00001C063E0CE010995EBA5FCA5E230F10535
:1031F00038F0EE0FFF1FEE0FFF1F35973197F1F7F5
:10320000E881F9810480F581E02DD8018C9181114C
:1032100002C060E001C062E0CE01DF91CF911F915A
:103220000F910994CF93DF93EC0120E030E0A901E6
:103230006B897C898D899E890E94B63518161CF48D
:10324000EFA5F8A902C0E9A9FAA9DF91CF910994E5
:103250000F931F93DC011296EC910E2F10E00930B2
:103260001105C0F5F801E55CFF4F0C944336DC0115
:10327000ED91FC910084F185E02D29C0DC01ED91F8
:10328000FC910284F385E02D22C0DC01ED91FC91DC
:103290000484F585E02D1BC0DC01ED91FC910684D2
:1032A000F785E02D14C0DC01ED91FC910088F189D7
:1032B000E02D0DC0DC01ED91FC910288F389E02D39
:1032C00006C0DC01ED91FC910488F589E02D1F9189
:1032D0000F9109941F910F9108950895FC01637057
:1032E000658B8481958126813781613039F0633027
:1032F00029F0918780873387228708953187208737
:10330000938782870895CF93DF93FC012281222344
:10331000A9F0EC010190F081E02D0480F581E02D11
:1033200060E009958EA58F3F49F061E00E94BE0FD5
:103330006DA58EA5DF91CF910C940C0FDF91CF91ED
:103340000895CF92DF92EF92FF920F931F93CF9346
:10335000DF93FC012281243041F0283031F023300A
:1033600031F0263021F012E003C014E001C013E078
:10337000EC012796E12CF12CC62ED12C01E0C601E0
:103380000E2C02C0959587950A94E2F7688180FD1E
:103390006027FE01349780810E940C0FFFEFEF1A27
:1033A000FF0A2196E11658F3DF91CF911F910F91FB
:1033B000FF90EF90DF90CF900895AF92BF92CF92A1
:1033C000EF92FF920F931F93CF93DF93EC01262F81
:1033D000888D998D009709F040C06A3059F41D8698
:1033E0001C862C898E859F8538E0239F800D911D3A
:1033F000112441C06D3009F4AAC08E898823C1F020
:103400003C898C859D8546E0349F800D911D11245B
:1034100048855985481759075CF41D861C868E859A
:103420009F8548E0349F800D911D11249F878E87D2
:10343000EA88FB88088919894E855F856C857D85BA
:10344000CC88CE010E94CD072C898C859D8536E0E5
:10345000239F800D911D112442C06A3079F41D868E
:103460001C862C89FC013696E4918E859F852E9FC3
:10347000800D911D11249F878E8769C06D3009F4DE
:1034800066C0FC0134963491631708F460C031962D
:10349000E491E61708F45BC0FC013296A590B49065
:1034A000462F50E0431B510937E0349FB001359F50
:1034B000700D1124A60EB71EF50132963491319687
:1034C000E491332311F0E1110DC0F5013496E4913C
:1034D0002C898C859D85E29F800D911D11249D87EF
:1034E0008C8735C0F501359644915E89552311F1DD
:1034F0006C89E32FF0E0E40FF11D47FDFA956E9F14
:10350000D0016F9FB00D11244C855D854A0F5B1F64
:10351000E885F985E417F5076CF41D861C86FC0127
:103520003696E4918E859F856E9F800D911D1124A6
:103530009F878E87EA88FB88088919894E855F8571
:103540006C857D85CC88CE010E94CD07BECF81E001
:1035500090E0DF91CF911F910F91FF90EF90CF906E
:10356000BF90AF9008954F925F926F927F92AF920B
:10357000BF92CF92DF92EF92FF920F931F93CF9360
:10358000DF93EC015A018B012B893C894D895E89BF
:10359000B501C8010E94DB32882309F451C0CF88ED
:1035A000D88CE98CFA8C2601370177FA709477F879
:1035B0007094A3019201B501C8010E94DB3287FD1E
:1035C0000BC0A7019601B501C8010E94B6351816B7
:1035D0002CF06501780102C07301620120E030E047
:1035E000A901C701B6010E94DB32811105C01BA2EF
:1035F0001CA21DA21EA220C0A701960160E074E2D9
:1036000084E799E40E940E359F770E9487356BA36B
:103610007CA38DA39EA35E0183E4A80EB11C11E0E0
:1036200020E030E0A901C701B6010E94B6351816A6
:103630000CF010E0F5011083CB8ADC8AED8AFE8A5B
:10364000DF91CF911F910F91FF90EF90DF90CF907E
:10365000BF90AF907F906F905F904F9008952F92A2
:103660003F924F925F926F927F928F929F92AF9212
:10367000BF92CF92DF92EF92FF920F931F93CF935F
:10368000DF9300D000D0CDB7DEB71C01FC018784EA
:103690009088A188B28883859485A585B685881A87
:1036A000990AAA0ABB0A63897489858996899B014C
:1036B000AC010E9441336B017C01F101638D748D7B
:1036C000858D968D9B01AC010E94A2349B01AC01BB
:1036D000C701B6010E940E350E9480358114910405
:1036E000A104B104A1F462307105810591050CF0CB
:1036F0007CC0F10113A214A215A216A2138A148A87
:10370000158A168A13AA14AA15AA16AA03C1F101CA
:1037100003A914A925A936A9ED5BFF4F18141904B4
:103720001A041B04FCF410161106120613064CF4BE
:10373000681579058A059B054CF52081211155C036
:1037400025C0011511052105310509F44EC0681584
:1037500079058A059B050CF048C08081882309F40F
:1037600044C037C01016110612061306F4F40027E1
:1037700011279801081919092A093B0960177107CF
:10378000820793071CF42081222379F19B01AC016D
:1037900088279927DC01821B930BA40BB50BF10141
:1037A00083AB94ABA5ABB6AB20C0011511052105C9
:1037B0003105D9F0CC24DD247601C818D908EA08EF
:1037C000FB086C157D058E059F057CF480818111B9
:1037D0000CC030952095109501951F4F2F4F3F4FEE
:1037E000F10103AB14AB25AB36ABF101C3A8D4A8F0
:1037F000E5A8F6A881010D5B1F4FC114D104E104B7
:10380000F10491F487A990ADA1ADB2AD83AF94AFAF
:10381000A5AFB6AF81E0181419041A041B040CF00C
:1038200080E0F801808340C0F10183AC94ACA5AC8A
:10383000B6ACA5019401C501B4010E94A2342B01CC
:103840003C01C701B6010E94E23220E030E040E8CE
:1038500050E40E94413320E030E040E85FE30E9402
:10386000A2349B01AC01C301B2010E940E359B0141
:10387000AC01C501B4010E94A1344B015C01F1010E
:10388000FF9640805180628073809201A3010E9464
:10389000B635181614F042015301A401B501F10127
:1038A00043AF54AF65AF76AFFFEFCF1ADF0AEF0A31
:1038B000FF0AF101C3AAD4AAE5AAF6AA23AD34AD42
:1038C00045AD56ADCA01B90129833A834B835C8368
:1038D0000E948735F10163A374A385A396A3298170
:1038E0003A814B815C8160E074E284E799E40E9454
:1038F0000E35F101638B748B858B968BF8012081DB
:10390000211108C0DC01CB01B058F101838B948BED
:10391000A58BB68B0F900F900F900F90DF91CF91EA
:103920001F910F91FF90EF90DF90CF90BF90AF90DD
:103930009F908F907F906F905F904F903F902F90CF
:103940000895CF92DF92EF92FF920F931F93CF9340
:10395000DF93EC016A017B019A01AB016F89788DDD
:10396000898D9A8D0E94DB32882309F446C0CF8A64
:10397000D88EE98EFA8E8E01015C1F4FA701960149
:1039800060E074E284E799E40E940E35F8016083F8
:103990007183828393838BA99CA9ADA9BEA91816B4
:1039A00019061A061B064CF56B897C898D899E8940
:1039B0009B01AC010E9441336B017C016B8D7C8DBE
:1039C0008D8D9E8D9B01AC010E94A2349B01AC01A8
:1039D000C701B6010E940E350E9480356BAB7CABEF
:1039E0008DAB9EABCE01DF91CF911F910F91FF90D8
:1039F000EF90DF90CF900C942F1BDF91CF911F9110
:103A00000F91FF90EF90DF90CF90089520914C059B
:103A100090915105213208F04AC080912905811109
:103A2000FCCF32E03093290531E0309328053FEF99
:103A3000309327051092260520932505ACE2B5E0CA
:103A400045E055E0FA013E2F341B321718F43D9142
:103A50003193F9CF1092040520910405990F922B10
:103A60009093040590910305913061F41092030541
:103A7000909104059093BB009091BC0093FDF8CF0A
:103A800095EC01C095EE9093BC0090912905923081
:103A9000E1F3909127059F3F79F0809127058032CF
:103AA00041F080912705803331F084E005C081E04A
:103AB00003C082E001C083E010922B0510924C05F8
:103AC00010922A05089565E088E291E00E94991716
:103AD00069E08FE191E00E9499178091500388235B
:103AE00029F065E08AE191E00E94991780915103E5
:103AF000882329F069E081E191E00E94991769E04B
:103B000088E091E00C9499176F927F928F929F9228
:103B1000AF92BF92CF92DF92EF92FF921F93CF931B
:103B2000DF93CDB7DEB729970FB6F894DEBF0FBE8F
:103B3000CDBF182F2FB7F89480914D0590914E0569
:103B4000A0914F05B09150052FBFC0904A03D0906F
:103B50004B03E0904C03F0904D03BC01CD016C1978
:103B60007D098E099F090E94E0326B017C0120E0F3
:103B700030E84BEB54E40E94B635181614F40E945A
:103B8000631D60914E0370E080E090E00E94E2329D
:103B90004B015C019B01AC01C701B6010E94DB3205
:103BA00087FF0AC0A7019601C501B4010E94A13494
:103BB0000E9487350E946A10112371F0212F30E096
:103BC000AFEBB0E00E9492342FEF30E040E050E0E5
:103BD0000E94313410E4120FCE0101967C0189E07D
:103BE000F70111928A95E9F781E0898382E48A835B
:103BF0001D8315E027E0C22ED12C5E01FAE0AF0E46
:103C0000B11C0E94FA160E9409170E948917C6016A
:103C10000197F1F7470194E2692E93E0792EF401C0
:103C200081914F010E941817F30181933F018A147B
:103C30009B04A9F780912503893741F00E94EB1678
:103C400080912503807F803789F41CC08DE2882E07
:103C500083E0982E80E00E941817F40181934F01B1
:103C6000F9E38F16F3E09F06A9F7E8CF0E94631DE2
:103C700060914E0370E080E090E00E946A10115065
:103C800009F0BFCF80912503807F803739F0809184
:103C90004E038A3018F48F5F80934E0380913C036B
:103CA00090913D0390933B0380933A0380912703C7
:103CB0009091280390933D0380933C032FB7F89491
:103CC00080914D0590914E05A0914F05B091500502
:103CD0002FBF80934A0390934B03A0934C03B09360
:103CE0004D0390912503907F81E0903709F080E0AB
:103CF00029960FB6F894DEBF0FBECDBFDF91CF91EE
:103D00001F91FF90EF90DF90CF90BF90AF909F906A
:103D10008F907F906F9008950F931F93CF93DF93B1
:103D200080911D0491E090932A0580935105109293
:103D30002B0510924C0560E08BED94E00E949406F8
:103D4000CDE0D4E08E0168818BED94E00E94940672
:103D50002296F80161818BED94E00E949406F4E0D4
:103D6000CD31DF0779F7DF91CF911F910F910C943F
:103D7000061D0F931F93CF9303EF13E080E7F80125
:103D800082A7109202051092010510922B05109245
:103D90004C0510922905C1E0C09328051092030537
:103DA00061E082E10E940C0F61E083E10E940C0F50
:103DB000E9EBF0E080818E7F808380818D7F80833E
:103DC00088E48093B80085E48093BC00F80182A564
:103DD000C0932A058093510510922B0510924C0533
:103DE00061E28BED94E00E9494060E94061DF801AA
:103DF00082A5C0932A058093510510922B0510923D
:103E00004C0561E88BED94E00E9494060E94061D2B
:103E1000F80182A5C0932A058093510510922B05C5
:103E200010924C056FEE8BED94E00E949406CF91BA
:103E30001F910F910C94061DCF92DF92EF92FF928B
:103E40000F931F93E82FF92F05C001501109210985
:103E5000310961F1908196239417B9F305C001509F
:103E600011092109310911F1908196239413F7CF9B
:103E7000C12CD12CE12CF12C0AC08FEFC81AD80A22
:103E8000E80AF80A0C151D052E053F0579F080811A
:103E90008623841791F36C2D7D2D8E2D9F2D1F91E0
:103EA0000F91FF90EF90DF90CF90089560E070E069
:103EB00080E090E01F910F91FF90EF90DF90CF9006
:103EC0000895CF93DF93CDB7DEB7E4970FB6F8949C
:103ED000DEBF0FBECDBF789484B5826084BD84B54B
:103EE000816084BD85B5826085BD85B5816085BDF5
:103EF00080916E00816080936E00109281008091AD
:103F00008100826080938100809181008160809334
:103F10008100809180008160809380008091B10059
:103F200084608093B1008091B00081608093B00084
:103F300080917A00846080937A0080917A00826018
:103F400080937A0080917A00816080937A008091DA
:103F50007A00806880937A001092C100E091660335
:103F6000F091670382E08083E0916203F091630344
:103F70001082E0916403F091650380E180831092E8
:103F80006E03E0916A03F0916B0386E08083E09119
:103F90006803F0916903808180618083E091680308
:103FA000F0916903808188608083E0916803F091DB
:103FB0006903808180688083E0916803F0916903E0
:103FC00080818F7D80830E94380B40E050E066E165
:103FD00074E48CE894E00E94A11C40E050E068E4A6
:103FE00073E48CE894E00E94511240E050E066E1F6
:103FF00074E488E494E00E94A11C40E050E068E48E
:1040000073E488E494E00E945112E0914704EA309E
:1040100068F481E08E0F80934704F0E0EE0FFF1FFD
:10402000ED5CFB4F8CE894E091838083E091470442
:10403000EA3068F481E08E0F80934704F0E0EE0FE1
:10404000FF1FED5CFB4F88E494E091838083109226
:10405000EC041092ED041092EE041092EF04109212
:10406000E8041092E9041092EA041092EB0481E053
:10407000809353038093520310925503109254037C
:1040800080E090EBACE5B6E48093F0049093F1040B
:10409000A093F204B093F30486EB93EFADEFBDE38E
:1040A0008093F4049093F504A093F604B093F7047E
:1040B00008EF14E0780161E0D8018D918D010E9434
:1040C000BE0F60E0F70180810E940C0FF5E0003028
:1040D0001F0781F703E311E061E0D8018D918D01A5
:1040E0000E94BE0FB1E00D331B07B1F780E1809352
:1040F00081001092800081E080936F0220E233E023
:1041000030936E0220936D023093870020938600D7
:1041100091E19093810023EC36E0309301012093EC
:10412000000180936F008091240487FD08C061E046
:104130000E94BE0F60E0809124040E940C0F81E079
:1041400080931F0484E60E94AD14FE0131961F0186
:1041500086E593E00E94AA0C892B11F40C940B2D98
:1041600086E593E00E94880CA091D202E1E0EA0F7C
:10417000E093D2020A2E000CBB0BAE56BD4F8C93BF
:104180008A3011F00C94012D0E2E000CFF0BEE5610
:10419000FD4F1082809192028D3411F00C94F82C16
:1041A00083E992E00E94CD308C01AE01485E5F4F02
:1041B0006AEE71E083E992E00E94F4300436110562
:1041C00009F48DC60CF0CDC00730110509F476C492
:1041D000E4F40330110509F4C1C174F40130110590
:1041E00009F49FC10CF0ABC1012B11F00C94F82C19
:1041F0000E94380B0C94F82C888D998D0530110590
:1042000009F434C20CF4BCC149C20B30110509F4E5
:104210009AC57CF50930110509F464C40CF07CC51D
:1042200085E10E942E108C0166EB71E086E593E03B
:104230000E94890E6AEE71E086E593E00E94890E85
:10424000B801110F880B990B0E94E23220E030E098
:1042500040E85AE30E94413326E636E646EA50E457
:104260000E9441339B01AC010E94A23442E00C94B5
:10427000ED2C0531110509F496C564F504311105DD
:1042800011F00C94F82C088D198D0E94B91E81E054
:10429000809307041092090481E090E09093060453
:1042A000809305049093040480930304F801019023
:1042B0000020E9F731979F01201B310B4BEF4203A0
:1042C0007001439FF00C11243AE0E31AF108C12C6D
:1042D000D12C60C50E31110509F4D0C50F3111057F
:1042E00011F00C94F82C3F922F92CE010A969F93D6
:1042F0008F9306969F938F9380EC91E09F938F937B
:10430000898D8F93888D8F930E945C38E980FA8025
:104310001A858B8508899989009390029093910260
:1043200010938E0280938F0261E0802F0E94BE0F57
:1043300061E0812F0E94BE0F60E0802F0E940C0F71
:1043400060E0812F0E940C0FB701FF0C880B990BC6
:104350000E946A1061E0802F0E940C0F61E0812FA3
:10436000BBC50C3C110511F40C944B2A0CF072C027
:104370000836110511F40C940E2A0CF04EC0998DDC
:10438000888D0636110509F403C60CF050C63F921D
:104390002F9226EC31E03F932F939F938F930E94AF
:1043A0005C3869817A81072E000C880B990B0E947A
:1043B000E2326B017C014090F0045090F104609077
:1043C000F2047090F304A30192010E94413320E0B3
:1043D00030E048EC52E40E940E350E9480354B01DB
:1043E0005C01C701B6019058A30192010E944133BC
:1043F00020E030E048EC52E40E940E350E94803507
:10440000F4EFEF2EFF24F3949501840144EF51E083
:104410000E94891587ED91E001C6083C110511F451
:104420000C941B2A0B3C110511F40C94392A093603
:10443000110511F00C94F82C888D998D0E94C930CB
:104440006093F4047093F5048093F6049093F7045A
:104450000C94F82C0C3D110511F40C94772B0CF0F6
:104460004AC0013D110511F40C94A62A043D110522
:1044700011F40C944C2B0D3C110511F00C94F82CFC
:104480003F922F92CE010A969F938F9306969F9309
:104490008F9302969F938F938DEB91E09F938F93D1
:1044A000898D8F93888D8F930E945C3829813A8102
:1044B0004A855B8568897989EA89FB89F89481E076
:1044C0008093520380935303809354038093550346
:1044D000F0934002E0933F027093420260934102E6
:1044E0005093440240934302309346022093450286
:1044F00078940C94A02A0E3D110511F40C949F2C75
:1045000014F40C948A2C0A3F110511F40C94C62C57
:10451000073E134011F00C94F82C0C9400000C94FE
:10452000F82CA101BE01665F7F4F888D998D0E9496
:10453000FB0B69818A850E94BE0F0C94F82CA101A7
:10454000BE01665F7F4F888D998D0E94FB0B61E0F5
:104550008A850E94BE0F69818A8532C0B101888D2B
:10456000998D0E94330C60E089810E94BE0F898181
:104570000E94E30E69817A81AC0180EB91E08AC0F0
:10458000A101BE01665F7F4F0E94FB0B0A851B8560
:104590000330110551F0C80105978230910528F0CC
:1045A0000497039710F00C94F82CE980FA8061E0EE
:1045B000802F0E94BE0FE114F10431F460E0802FDF
:1045C0000E940C0F0C94F82C2FEFE216F10409F462
:1045D0004BC0F801FF27E153FF4FE491E33011F1A5
:1045E00050F4E130C9F0E230D1F584B5806284BD89
:1045F000E8BC0C94F82CE73001F1E83039F1E430F4
:1046000071F580918000806280938000F0928B0031
:10461000E0928A000C94F82C84B5806884BDE7BCD5
:104620000C94F82C80918000806880938000F09238
:104630008900E09288000C94F82C8091B00080688A
:104640008093B000E092B3000C94F82C8091B000FD
:1046500080628093B000E092B4000C94F82C30E8B3
:10466000E316F1040CF4AACF61E0A9CFB1010E94D6
:10467000330C60E089810E94BE0F89810E942E1058
:1046800069817A816E30710514F40C94F82CAC01B8
:1046900083EB91E00E94440B0C94F82C9101AE0145
:1046A000465F5F4FBE01605F7F4F0E94BF0B498135
:1046B0005A815AA349A38A859B859AA789A7888985
:1046C000998920910201281304C0E3EEF0E01491CF
:1046D00080C02F3F09F0DBC180930201E3EEF0E0E0
:1046E00014911F3F09F4D3C1113029F1123009F49C
:1046F00049C011116EC014BC15BC24B5226024BD84
:1047000025B5216025BD9C013327F901EE5FF94FE6
:10471000E491F0E0EE0FFF1FEC51FF4F45915491F3
:104720005093750240937402F901EA5EF94FE491E7
:10473000E093730250C0109280001092810020918B
:1047400081002860209381002091810021602093C6
:1047500081009C013327F901EE5FF94FE491F0E00D
:10476000EE0FFF1FEC51FF4F459154915093720291
:1047700040937102F901EA5EF94FE491E09370020F
:1047800011E029C01092B0001092B1002091B00049
:1047900022602093B0002091B10021602093B100ED
:1047A0009C013327F901EE5FF94FE491F0E0EE0F41
:1047B000FF1FEC51FF4F4591549150933A024093A3
:1047C0003902F901EA5EF94FE491E093380212E010
:1047D00002C017FD5CC129A13AA1032E000C440BB5
:1047E000550B2DA33EA34FA358A761E00E94BE0F17
:1047F00049A55AA54A01A12CB12C812F8D7F09F022
:10480000BBC060E072E18AE790E0A50194010E94DC
:10481000313429013A0169017A0151E0C51AD10800
:10482000E108F1088FEFC816D104E104F10409F0A2
:1048300008F44EC060E472E48FE090E0A5019401BA
:104840000E94313469017A0191E0C91AD108E10866
:10485000F108123009F5AFEFCA16D104E104F104F2
:1048600009F010F40C94712D60E970ED83E090E094
:10487000A50194010E94313469017A01B1E0CB1A9B
:10488000D108E108F108EFEFCE16D104E104F104FC
:1048900009F0D0F583E069C0FFEFCF16D104E10441
:1048A000F104C1F0B8F068E478EE81E090E0A50191
:1048B00094010E94313469017A0181E0C81AD1085B
:1048C000E108F108112311F40C944C2D0C94422DA5
:1048D00081E001C082E0111148C011C0D301C201C2
:1048E0002AE0B595A795979587952A95D1F76C01FC
:1048F0007D01E1E0CE1AD108E108F10885E095B527
:10490000987F892B85BD73C068E478EE81E090E0E4
:10491000A50194010E94313469017A01B1E0CB1AFA
:10492000D108E108F108EFEFCE16D104E104F1045B
:1049300009F010F40C940F2D64E274EF80E090E025
:10494000A50194010E94313469017A0191E0C91AEC
:10495000D108E108F108AFEFCA16D104E104F1046F
:1049600019F010F00C94122D85E09091B100987F11
:10497000892B8093B1003BC060E072E18AE790E050
:10498000A50194010E94313469017A01F1E0CF1A46
:10499000D108E108F108C114D10421E0E206F104D4
:1049A00088F068E478EE81E090E0A50194010E942F
:1049B000313469017A0181E0C81AD108E108F108AF
:1049C00093E001C091E0113091F480918100887FE3
:1049D000892B809381002DA13EA14FA158A5232BA7
:1049E000242B252B61F42FEF3FEFA9012FC08DA1C0
:1049F0009EA1AFA1B8A5892B8A2B8B2B79F029A575
:104A00003AA5220F331FA9A1BAA10E94493628EE68
:104A100033E040E050E00E940F3403C02FEF3FEF3F
:104A2000A901113099F0123019F1111130C0C7BC31
:104A300020937A0230937B0240937C0250937D0254
:104A400080916E00826080936E0021C0D0928900B8
:104A5000C0928800209376023093770240937802C8
:104A60005093790280916F00826080936F000FC035
:104A7000C092B30020933B0230933C0240933D022E
:104A800050933E0280917000826080937000698133
:104A90007A81072E000C880B990B0E946A101092E5
:104AA00070001092B00082E08093B1001092B200CA
:104AB00081E087BB809370000C94F82CA101BE01AB
:104AC000665F7F4F888D998D0E94FB0B09811A814B
:104AD0006A857B858AED94E00E942A11B8018AEDEF
:104AE00094E002C6E88DF98DA081BE01665F7F4F1C
:104AF000AE01405F5F4F9E012E5E3F4FCE01469656
:104B0000A134C1F43F922F927F936F935F934F93A1
:104B10003F932F939F938F9389EB91E09F938F9374
:104B2000FF93EF930E945C388E899F890E969F8B2E
:104B30008E8B12C03F922F927F936F935F934F9310
:104B40003F932F939F938F938AEB91E09F938F9343
:104B5000FF93EF930E945C380FB6F894DEBF0FBE50
:104B6000CDBFF9800A851889CA88DB886E898EE1F5
:104B700094E00E941F12C114D104B9F4C12CD12CAD
:104B80008091200490912104C816D90630F42F2D6D
:104B9000402F612FC6010E946C14FFEFCF1ADF0A6D
:104BA00020E1C216D10461F70EC0C6010197209121
:104BB0002004309121048217930728F42F2D402FD1
:104BC000612F0E946C148091260490912704892BF8
:104BD00009F40EC70E94451000912C0410912D0479
:104BE00020912E0430912F04DC01CB01801B910B0E
:104BF000A20BB30BC297A105B10560F3F8948091A5
:104C00002204909123049D8B8C8BE0912604F091DB
:104C10002704DF011196808188A390911E04E09102
:104C20003004F091310480913204992309F42EC0AC
:104C30009081982B9F8F9081809589238E8F8E8D68
:104C40008B8F88E08A8F4F8D5E8D68A13A8D2B8D7A
:104C50008C899D89408367FD242F3A952083252FD9
:104C600039F0661F00C000005083000000C0F2CF82
:104C700038E06D9150830000019761F7F0933104A3
:104C8000E093300468A33A8F2B8F38C09081982B23
:104C90009F8F9081809589238E8F8E8D8D8F88E058
:104CA0008C8F4F8D5E8D68A13C8D2D8D8C899D895B
:104CB000408367FD242F00C000C0208300C000C0D7
:104CC00000C000C000C050830000252F3A9541F07D
:104CD000661F000000C000C000C000C000C0E8CFD8
:104CE00038E06D9100C0508300C0019709F7F09340
:104CF0003104E093300468A33C8F2D8F9D8B8C8B07
:104D000078940E94451060932C0470932D04809336
:104D10002E0490932F046CC6B101888D998D0E944A
:104D2000330C60E089810E94BE0F89810E94E30EEE
:104D300041E050E0892B11F040E050E069817A8138
:104D40008AEC91E0A7CCB101888D998D0E94330C3B
:104D500089810E94AD144CC61192119244E0ED314C
:104D6000F407D1F7D0920004C092FF03109202041E
:104D700010920104B80183EF93E00E94890E0E9413
:104D80008C1E64E670E080E090E00E946A1051E0C2
:104D9000C51AD108CE14DF041CF0EDE0F4E0DCCF3E
:104DA0008EEC91E023C6E88CF98C87010D5F1F4FD4
:104DB0009EE7C92E92E0D92E83E2E80EF11CF8019D
:104DC000339780818093050131968081809306011D
:104DD0003196808180930301D8018C9180930401E6
:104DE00040E150E060E070E083E091E00E94B72F86
:104DF000F601619371936F010C5F1F4F0E151F0534
:104E0000F1F60E94B91EEDE0F4E01192119224E057
:104E1000ED31F207D1F7B12CE12CF12C6701CC0C6C
:104E2000DD1C00E010E0C80187709927892B11F084
:104E3000BB0C0BC0F80183E0F595E7958A95E1F787
:104E4000EC0DFD1DE258FD4FB080B7FE08C021E01B
:104E500030E0A701B80183EF93E00E9437050F5FB0
:104E60001F4F00311105F9F63FEFE31AF30A48E04E
:104E7000E416F10499F60E948C1EBAC53F922F9257
:104E8000CE010A969F938F9306969F938F9380EC03
:104E900091E09F938F93898D8F93888D8F930E943C
:104EA0005C3809811A81DA84E090900268898E2D3D
:104EB0000E940C0FF0908E026D2D8F2D0E940C0F12
:104EC000B801110F880B990B0E946A1061E08E2DBA
:104ED0000E940C0F61E08F2D0E940C0F31C33F9296
:104EE0002F92CE010A969F938F9306969F938F934E
:104EF00080EC91E09F938F93898D8F93888D8F9312
:104F00000E945C386A857B85CB01770FAA0BBB0BAF
:104F1000BC01CD01BBE0660F771F881F991FBA95B2
:104F2000D1F728E631E040E050E00E9431344901F9
:104F30005A019981990F990F990F80E06CE370E005
:104F40000E942F36AB017A836983888999890FB6CD
:104F5000F894DEBF0FBECDBF8130910551F4A4EFB0
:104F6000EA2EFF24F39400E010E09801C501B4019B
:104F70000AC0029751F47B019501840144EF51E08E
:104F800060E070E0CB010E94891582ED91E02EC5B2
:104F90003F922F9226EC31E03F932F939F938F9374
:104FA0000E945C3869817A81072E000C880B990B6E
:104FB0000E94E23220E030E044E353E40E940E35E8
:104FC00023EC35EF48E450E40E9441332091F00493
:104FD0003091F1044091F2045091F3040E94413366
:104FE0002091F4043091F5044091F6045091F704B7
:104FF0000E94413320E030E040E05FE30E94413313
:105000000E948035E4EFEE2EFF24F3948B019C0187
:1050100044EF51E00E9489158CED91E00E94EE145E
:105020000F900F900F900F900F900F90E1C43F9250
:105030002F92CE010A969F938F9383EC91E09F93DA
:105040008F93898D8F93888D8F930E945C386A85AA
:105050007B85072E000C880B990B0E94E23220E022
:1050600030E048EC52E40E940E356DA37EA38FA37E
:1050700098A79B01AC016AE077ED83EA9CE30E946C
:105080000E354B015C0169817A81072E000C880B7B
:10509000990B0E94E232905820E030E044E353E460
:1050A0000E940E352BED3FE049E450E40E9441336D
:1050B00020E030E040E05FE30E9441336DA77EA72F
:1050C0008FA798AB20E030E040E05FE36091F4040C
:1050D0007091F5048091F6049091F7040E94413399
:1050E00069A77AA78BA79CA72DA13EA14FA158A580
:1050F0000E940E352B013C012091F0043091F10407
:105100004091F2045091F30429A33AA34BA35CA36A
:105110009B01AC0160E070E080E89FE30E94A13455
:105120009B01AC01C501B4010E94413329A13AA100
:105130004BA15CA10E9441336B017C0120E030E077
:1051400040E85FE3C301B2010E94A2349B01AC01BD
:10515000C501B4010E94413329A13AA14BA15CA130
:105160000E9441334B015C0129A53AA54BA55CA5E2
:105170006DA17EA18FA198A50E94A1349B01AC01D5
:105180006DA57EA58FA598A90E94413329A13AA1BA
:105190004BA15CA10E94413369AB7AAB8BAB9CAB5A
:1051A0004DA45EA46FA478A877FA709477F87094F1
:1051B00029A53AA54BA55CA56DA17EA18FA198A5B7
:1051C0000E94A2349B01AC01C301B2010E94413391
:1051D00029A13AA14BA15CA10E94413369A37AA302
:1051E0008BA39CA30FB6F894DEBF0FBECDBF20E00B
:1051F00030E0A901C701B6010E94B635260137018A
:10520000181624F077FA709477F8709420E030E064
:10521000A901C501B4010E94B635A5019401181673
:105220000CF462C45058C301B2010E94B63518167E
:105230000CF520E030E0A901C701B6010E94B635A7
:1052400018165CF420E030E04AEF53E4C701B601E1
:105250000E94B63518165CF00DC020E030E04AEF31
:1052600053ECC701B6010E94DB3287FF03C0A701E0
:10527000960120C020E030E0A901C501B4010E94E0
:10528000B63518165CF420E030E04AEF53E4C5016F
:10529000B4010E94B63518165CF024C020E030E05E
:1052A0004AEF53ECC501B4010E94DB3287FF1AC0FC
:1052B000A501940160E070E08AEF93E40E940E354E
:1052C0002B013C019B01AC01C701B6010E94413397
:1052D0006B017C01A3019201C501B4010E9441331D
:1052E0004B015C0169A97AA98BA99CA90E94803510
:1052F00000919704109198042091990430919A0498
:10530000DC01CB01800F911FA21FB31F00919B04F2
:1053100010919C0420919D0430919E040817190758
:105320002A073B0761F080939B0490939C04A09311
:105330009D04B0939E048CE894E00E942F1BB7015B
:10534000A6018CE894E00E94B31A69A17AA18BA10E
:105350009CA10E9480350091530410915404209127
:10536000550430915604DC01CB01800F911FA21F20
:10537000B31F0091570410915804209159043091A3
:105380005A04081719072A073B0761F0809357044E
:1053900090935804A0935904B0935A0488E494E07D
:1053A0000E942F1BB501A40188E494E00E94B31A67
:1053B00040919B0450919C0460919D0470919E04C7
:1053C0008091970490919804A0919904B0919A04C7
:1053D000481759076A077B0749F08CE894E00E9458
:1053E000131388E494E00E941313E2CF4091570412
:1053F000509158046091590470915A04809153045B
:1054000090915404A0915504B0915604481759073F
:105410006A077B0711F788EF91E0E8C2888D998DC4
:105420000E94C9306093F0047093F1048093F204F9
:105430009093F304DDC2888D998D1B861A861A829B
:105440001982A101BE01665F7F4F0E94FB0B29817B
:105450003A818A859B85F894FC01EE5AFC4F41E025
:105460004083880F991FFC01E15CFD4F318320834D
:1054700011C1F8941092400210923F021092420221
:10548000109241021092440210924302109246027E
:1054900010924502FFC09101AE01465F5F4FBE0111
:1054A000605F7F4F888D998D0E94BF0B69817A81E3
:1054B0008A859B85288939896115710599F4F89445
:1054C00041E04093520340935303109254031092CF
:1054D00055033093400220933F0290934202809301
:1054E0004102D8C0F89441E04093520340935303E3
:1054F00010925403109255033093400220933F02C0
:1055000090934202809341027894072E000C880BFE
:10551000990B0E946A10F8941092400210923F0278
:1055200010924202109241021092440210924302E1
:105530001092460210924502789481EE91E056C294
:105540000FB6F894DEBF0FBECDBF52C2288D398D85
:10555000198A188A1B861A861A8219823F922F92FC
:10556000CE010A969F938F9306969F938F9380EC1C
:1055700091E09F938F933F932F930E945C38098112
:105580001A8168897989072E000C880B990B0E9473
:10559000E23223EF34E045E35FE30E940E350E94E0
:1055A00080356B017C016A857B85072E000C880B9A
:1055B000990B0E94E23223EF34E045E35FE30E945F
:1055C0000E350E948035AB014C0D5D1D9B012C19E1
:1055D0003D09EE27FF27EC19FD09E61BF70BC61A5C
:1055E000D70A200F311FBF01600F711FC00ED11EDF
:1055F000040F151F0FB6F894DEBF0FBECDBF0F3FCF
:10560000110519F014F00FEF10E02F3F310519F0DC
:1056100014F02FEF30E06F3F710519F014F06FEFC9
:1056200070E0C6018F3F910519F014F08FEF90E004
:10563000F89441E040935203409353034093540342
:10564000409355030130BFEF1B0714F401E01FEF37
:105650001093400200933F022130EFEF3E0714F415
:1056600021E03FEF30934202209341026130FFEF8F
:105670007F0714F461E07FEF70934402609343026C
:1056800081302FEF920714F481E09FEF9093460250
:10569000809345027894ACC1A101BE01665F7F4F43
:1056A000888D998D0E94FB0B09811A818A859B85C3
:1056B000AC0140535B4F7A01DA012C9130E0F901E3
:1056C000EE0FFF1F2E0F3F1FF901E95BFD4F2081F9
:1056D00025FD08C0FC01ED5CFE4F608170E0C70154
:1056E0000E942A11B801C7010E94EE1081C10BE08F
:1056F00010E031E1A32E36E0B32E47E2842E46E0DF
:10570000942E0150110909F4FCC0E4E2F6E0849102
:1057100080933E03E0E1F6E08491E82FF0E0EE0FA5
:10572000FF1FEC51FF4F859194919093400380931C
:105730003F03E6E2F6E0849180934103E2E1F6E084
:105740008491E82FF0E0EE0FFF1FEC51FF4F8591A1
:1057500094919093430380934203E5E2F6E08491B1
:1057600080934403F5018491E82FF0E0EE0FFF1FD2
:10577000EC51FF4F8591949190934603809345039C
:10578000F401849180934703E3E1F6E0E491F0E0D3
:10579000EE0FFF1FE850FA4F8591949190934903C3
:1057A0008093480361E08EE00E94BE0F61E08FE0CD
:1057B0000E94BE0F61E080E10E94BE0F60E081E1C7
:1057C0000E94BE0F61E081E10E940C0F0E94FA1658
:1057D0000E94091780E00E94841D80E00E94841DC1
:1057E00080912503813429F0833719F0893709F036
:1057F00088CF81E080934E036BE0E62EF12C552498
:10580000539465E088E291E00E94991787E090E068
:105810000197F1F70E94FA160E9409170E94891752
:1058200087E090E00197F1F75DE3652E51E0752E7A
:105830006101D3018D913D010E941817F6018193FA
:105840006F01F6E46F16F1E07F0699F70E94EB1600
:105850008C8180934F0369E08FE191E00E9499175A
:1058600065E08AE191E00E9499175092500369E047
:1058700081E191E00E9499175092510369E088E01C
:1058800091E00E94991780E00E94841D8091250379
:10589000893771F0833709F434CF21E0E21AF10837
:1058A00009F42FCF80914E038F5F80934E03A9CFD1
:1058B00081E080936C02F8941AEF10936B02789455
:1058C00064EF71E080E090E00E946A10F89410921A
:1058D0006B02789468EC70E080E090E00E946A10BF
:1058E000F89410936B02789464EF71E080E090E09C
:1058F0000E946A10F89410926B02789460E070E055
:1059000002C06FEF7FEF4AE0C1010E94EF0D66EE2B
:1059100071E029C0BE01605F7F4F888D998D0E9424
:10592000330CE889F989FF27EC5DFC4F608170E05A
:105930004AE0C1010E94EF0D6CEE71E014C0BE019F
:10594000605F7F4F888D998D0E94330CE889F989BB
:10595000FF27EC5DFC4F608170E04AE0C1010E94CE
:10596000EF0D62EF71E0CE010A960E94390EB1018F
:10597000CE010A960E94B80D0E94DB16CE010A964F
:105980000E94EA0DC1010E94EA0D32C0888D998DF6
:105990002FEF3FEF3A832983A101BE01665F7F4F5E
:1059A0000E94FB0B69817A818A859B856331710531
:1059B00008F0BC010E940115BC01990F880B990BDE
:1059C0000E94E2326B017C0162EF71E086E593E0B8
:1059D0000E94890E42E0C701B6010E9496136FE053
:1059E00072E086E593E00E94740E02C00E94EE14FD
:1059F00080E4E2E9F2E0DF011D928A95E9F7109276
:105A0000D2028091D202803414F40C94A820109217
:105A1000D2020C94A8200E944A0D0C94A82084E085
:105A20000C94B52462E17AE780E090E0A50194014E
:105A30000E94313469017A01F1E0CF1AD108E108FE
:105A4000F1082FEFC216D104E104F104C1F0B8F05F
:105A5000D301C2015AE0B595A795979587955A95B8
:105A6000D1F76C017D01E1E0CE1AD108E108F1081F
:105A7000112311F40C947E2487E00C94B52486E065
:105A80000C946B243FEFC316D104E104F10409F038
:105A900048F684E00C946B24AFEFCA16D104E104FD
:105AA000F104E1F0D8F062E17AE780E090E0A5014E
:105AB00094010E94313469017A0181E0C81AD10849
:105AC000E108F1089FEFC916D104E104F10419F0CF
:105AD00010F00C946E2484E00C947F2483E00C94EA
