:100000000C9448030C9470030C9470030C947003CC
:100010000C9470030C9470030C9470030C9486146D
:100020000C9470030C9470030C9470030C94700384
:100030000C9470030C9470030C9470030C94700374
:100040000C9409140C9470030C9486120C94601296
:100050000C9470030C9470030C9470030C94700354
:100060000C944A0D0C94700307634236B79BD8A7D3
:100070001A39685618AEBAAB558C1D3CB7CC5763CD
:10008000BD6DEDFD753EF6177231BF000000803F7B
:1000900008000000BE922449123EABAAAA2ABECD97
:1000A000CCCC4C3E00000080BEABAAAAAA3E000009
:1000B0000000BF000000803F000000000008417801
:1000C000D3BB4387D1133D190E3CC3BD4282AD2B38
:1000D0003E68EC8276BED98FE1A93E4C80EFFFBE30
:1000E00001C4FF7F3F00000000004E414E494E49D1
:1000F0005459494E46CDCCCC3D0AD7233C17B7D1F5
:100100003877CC2B329595E6241FB14F0A0000209A
:10011000410000C84200401C4620BCBE4CCA1B0E19
:100120005AAEC59D746364696E6F70737578585B61
:100130000000000000003E5B4F5B3E3E6B4F6B3E9D
:100140001C3E7C3E1C183C7E3C181C577D571C1CDA
:100150005E7F5E1C00183C1800FFE7C3E7FF001835
:10016000241800FFE7DBE7FF30483A060E2629791E
:100170002926407F050507407F05253F5A3CE73C7F
:100180005A7F3E1C1C08081C1C3E7F14227F221430
:100190005F5F005F5F06097F017F006689956A6087
:1001A0006060606094A2FFA29408047E040810209E
:1001B0007E201008082A1C08081C2A08081E101097
:1001C00010100C1E0C1E0C30383E3830060E3E0E41
:1001D00006000000000000005F00000007000700AC
:1001E000147F147F14242A7F2A1223130864623692
:1001F000495620500008070300001C22410000411E
:10020000221C002A1C7F1C2A08083E080800807057
:10021000300008080808080000606000201008048A
:10022000023E5149453E00427F40007249494946DD
:100230002141494D331814127F1027454545393C5B
:100240004A49493141211109073649494936464948
:1002500049291E000014000000403400000008146A
:1002600022411414141414004122140802015909E3
:10027000063E415D594E7C1211127C7F4949493638
:100280003E414141227F4141413E7F494949417FB1
:10029000090909013E414151737F0808087F004167
:1002A0007F41002040413F017F081422417F4040B0
:1002B00040407F021C027F7F0408107F3E41414185
:1002C0003E7F090909063E4151215E7F09192946F1
:1002D000264949493203017F01033F4040403F1F07
:1002E0002040201F3F4038403F631408146303043C
:1002F0007804036159494D43007F4141410204089C
:100300001020004141417F0402010204404040406E
:1003100040000307080020545478407F28444438A4
:100320003844444428384444287F385454541800EE
:10033000087E090218A4A49C787F0804047800446D
:100340007D40002040403D007F1028440000417F58
:1003500040007C047804787C0804047838444444E1
:1003600038FC1824241818242418FC7C08040408D9
:10037000485454542404043F44243C4040207C1CF2
:100380002040201C3C4030403C44281028444C90E5
:1003900090907C4464544C4400083641000000773F
:1003A0000000004136080002010204023C26232618
:1003B0003C1EA1A161123A4040207A38545455594C
:1003C0002155557941225454784221555478402082
:1003D000545579400C1E527212395555555939549D
:1003E00054545939555454580000457C4100024535
:1003F0007D420001457C407D1211127DF0282528A8
:10040000F07C545545002054547C547C0A097F49A3
:1004100032494949323A4444443A324A4848303AE7
:100420004141217A3A42402078009DA0A07D3D4282
:1004300042423D3D4040403D3C24FF2424487E490B
:1004400043662B2FFC2F2BFF0929F620C0887E093D
:100450000320545479410000447D413048484A32D9
:10046000384040227A007A0A0A727D0D19317D26C1
:1004700029292F28262929292630484D40203808A7
:1004800008080808080808382F10C8ACBA2F102828
:1004900034FA00007B000008142A142222142A14C3
:1004A000085500550055AA55AA55AAFF55FF55FFF6
:1004B000000000FF00101010FF00141414FF0010C3
:1004C00010FF00FF1010F010F0141414FC001414AE
:1004D000F700FF0000FF00FF1414F404FC141417CD
:1004E000101F10101F101F1414141F00101010F0F4
:1004F000000000001F101010101F10101010F0103E
:10050000000000FF101010101010101010FF10004D
:100510000000FF140000FF00FF00001F1017000084
:10052000FC04F414141710171414F404F40000FF5E
:1005300000F714141414141414F700F714141417F7
:100540001410101F101F141414F4141010F010F0D5
:1005500000001F101F0000001F14000000FC14000A
:1005600000F010F01010FF10FF141414FF141010FE
:10057000101F00000000F010FFFFFFFFFFF0F0F081
:10058000F0F0FFFFFF0000000000FFFF0F0F0F0F54
:100590000F3844443844FC4A4A4A347E0202060674
:1005A000027E027E0263554941633844443C044064
:1005B0007E201E2006027E020299A5E7A5991C2A2C
:1005C000492A1C4C7201724C304A4D4D30304878EB
:1005D0004830BC625A463D3E494949007E0101010E
:1005E0007E2A2A2A2A2A44445F444440514A4440ED
:1005F00040444A51400000FF0103E080FF00000832
:10060000086B6B083612362436060F090F060000F9
:1006100018180000001010003040FF0101001F01F9
:10062000011E00191D1712003C3C3C3C000000005C
:1006300000000000080002010000030407000000A1
:10064000000000000000000000240027002A000035
:10065000000000250028002B000404040404040406
:100660000402020202020203030303030301020461
:100670000810204080010204081020010204081024
:100680002000000000230026002900006C296029BA
:1006900011241FBECFEFD8E0DEBFCDBF12E0A0E037
:1006A000B1E0EEEBF0E702C005900D92A036B10785
:1006B000D9F726E0A0E6B2E001C01D92A73CB20740
:1006C000E1F713E0C7E4D3E004C02197FE010E94E4
:1006D0001033C634D107C9F70E94FD1E0C9452385E
:1006E0000C9400000895FC016370658B84819581F2
:1006F00026813781613039F0633029F09187808716
:1007000033872287089531872087938782870895CA
:100710002F923F924F925F926F927F928F929F9211
:10072000AF92BF92CF92DF92EF92FF920F931F93FF
:10073000CF93DF93CDB7DEB76C970FB6F894DEBFDB
:100740000FBECDBF9C8F8B8F5B011A011F830E8361
:100750003701C982DC0158964D915C91599741153A
:10076000510509F0E5C018968D919C91199768176D
:1007700079070CF0CAC11A968D919C911B97281687
:1007800039060CF0C2C18C2C912CFB0136E0C39EC3
:10079000E00DF11D1124FB87EA871E161F060CF0E1
:1007A000B4C1C40133E0880F991F3A95E1F79D87E2
:1007B0008C87820D931D181619060CF0A6C157964A
:1007C0008C91811103C0203B08F02F5FAB8DBC8D55
:1007D000ED91FC9111970680F781E02DCD012A8FD4
:1007E00009952A8DB5E02B9F90011124F5013596CE
:1007F000FF87EE87BB82AA822501A9014A195B09FE
:10080000598B488BC10108969B8B8A8BE889F989A3
:10081000E40DF51DEF5CFE4F9491988761013D82D8
:100820002C82A885A0FF13C0AB8DBC8DED91FC91EF
:10083000B981B13031F40084F185E02D2E813F8102
:1008400016C00284F385E02DEE80FF801AC0EE8191
:10085000FF816E167F06F1F0AB8DBC8DED91FC91A2
:10086000B981B13051F40084F185E02D9301A601E6
:10087000B2018B8D9C8D09950DC00284F385E02D0E
:100880007301840194014C815D816A817B818B8D30
:100890009C8D0995E885E695E887FFEFCF1ADF0A7A
:1008A0002C813D81280D391D3D832C834A895B892C
:1008B000C416D50609F0B5CF5FEF451A550A8A81EF
:1008C0009B81880D991D9B838A83AE85BF854A16BF
:1008D0005B0609F09BCFEE81FF816E167F0609F45F
:1008E000F2C0EB8DFC8DA081B181F981F13079F4FA
:1008F000B5016B5F7F4F1C96ED91FC911D978301B5
:1009000028E030E0A1018B8D9C8D0995DCC06A85C3
:100910007B85681979091A96ED91FC911B977301F3
:100920000C851D859401A1018B8D9C8D0995CBC0F3
:10093000FA0134969491329765917491291BCB01F9
:10094000B7E02B9F800D911D1124FA012591349160
:100950003B8B2A8BFC01459154915B834A83FC01BC
:100960003296C490319654915E87329614913196A6
:10097000D4908981823058F0612E012E000C7708C6
:10098000AD2D0D2C000CBB0BB987A88704C01986B0
:100990001886612C712CAB8DBC8DED91FC9111975B
:1009A0000680F781E02DCD010995B9818B2E912C20
:1009B000689CC001699C900D789C900D1124FC01ED
:1009C000EA0DFB1DFD87EC871C82712C612CE12F49
:1009D000110FFF0B95012E0F3F1F3B872A87AC0C91
:1009E000B11CA5014E0F5F1F5F8B4E8BC1018D0D9A
:1009F000911DD7FC9A95998F888F4E85641608F0C3
:100A000062C0862D90E048855985480F591F489D42
:100A10009001499D300D589D300D1124D901A20D32
:100A2000B31DB98BA88BAA84BB844C845D84DC8005
:100A3000BA85DB1AE88DF98DE80FF91FFD8BEC8B79
:100A40008D2D8A0D2E893F89A216B306B9F18770C4
:100A500061F48A819B810196EA89FB89AA81BB8125
:100A6000EA0FFB1F74909B838A8377FE20C0AB8DB7
:100A7000BC8DED91FC91B981B13061F40084F185B8
:100A8000E02D2E813F814C895D89B5018B8D9C8D38
:100A900009950DC00284F385E02DEE80FF8084016E
:100AA000940148895989B2018B8D9C8D0995770CE9
:100AB000EFEFAE1ABE0A480C591CC2CF3C813C0D68
:100AC0003C8363949ACFAB8DBC8DED91FC911197D3
:100AD0000288F389E02DCD016C960FB6F894DEBF45
:100AE0000FBECDBFDF91CF911F910F91FF90EF907F
:100AF000DF90CF90BF90AF909F908F907F906F903E
:100B00005F904F903F902F9009946C960FB6F89499
:100B1000DEBF0FBECDBFDF91CF911F910F91FF9030
:100B2000EF90DF90CF90BF90AF909F908F907F908D
:100B30006F905F904F903F902F900895AF92BF922B
:100B4000CF92EF92FF920F931F93CF93DF93EC011D
:100B5000262F888D998D009709F040C06A3059F48E
:100B60001D861C862C898E859F8538E0239F800DED
:100B7000911D112441C06D3009F4AAC08E898823CB
:100B8000C1F03C898C859D8546E0349F800D911D88
:100B9000112448855985481759075CF41D861C8621
:100BA0008E859F8548E0349F800D911D11249F877D
:100BB0008E87EA88FB88088919894E855F856C8550
:100BC0007D85CC88CE010E9488032C898C859D85EB
:100BD00036E0239F800D911D112442C06A3079F4C4
:100BE0001D861C862C89FC013696E4918E859F8596
:100BF0002E9F800D911D11249F878E8769C06D30B7
:100C000009F466C0FC0134963491631708F460C09F
:100C10003196E491E61708F45BC0FC013296A5908A
:100C2000B490462F50E0431B510937E0349FB00188
:100C3000359F700D1124A60EB71EF5013296349122
:100C40003196E491332311F0E1110DC0F501349692
:100C5000E4912C898C859D85E29F800D911D112446
:100C60009D878C8735C0F501359644915E89552363
:100C700011F16C89E32FF0E0E40FF11D47FDFA95C7
:100C80006E9FD0016F9FB00D11244C855D854A0F7A
:100C90005B1FE885F985E417F5076CF41D861C8653
:100CA000FC013696E4918E859F856E9F800D911D87
:100CB00011249F878E87EA88FB88088919894E85C9
:100CC0005F856C857D85CC88CE010E948803BECF70
:100CD00081E090E0DF91CF911F910F91FF90EF9015
:100CE000CF90BF90AF9008956F927F928F929F9216
:100CF000AF92BF92CF92DF92EF92FF920F931F932A
:100D0000CF93DF93EC014B015A0169013801E8816F
:100D1000F9810680F781E02D0995E881F981068443
:100D2000F785E02D87019601A501B401CE01099553
:100D3000E881F981A501460D571D415051090684EE
:100D4000F785E02D9601B401CE010995E881F9817E
:100D50000484F585E02D9301A501B401CE01099528
:100D6000E881F981C80CD91CB6016150710904846D
:100D7000F585E02D9301A501CE010995E881F98162
:100D80000288F389E02DCE01DF91CF911F910F9161
:100D9000FF90EF90DF90CF90BF90AF909F908F909B
:100DA0007F906F900994CF92DF92EF92FF920F9312
:100DB0001F93CF93DF9300D000D000D0CDB7DEB724
:100DC0006C01DC01ED91FC916217730789F4041743
:100DD00015072CF4942F852FA801092F182F041B19
:100DE000150B98012F5F3F4F008CF18DE02D12C045
:100DF0004017510709F5261737072CF4962F872F30
:100E0000B901292F382F261B370B2F5F3F4F028C3C
:100E1000F38DE02D8701C601099526960FB6F8944B
:100E2000DEBF0FBECDBFDF91CF911F910F91FF901D
:100E3000EF90DF90CF9008950680F781E02D2D830D
:100E40003E834B835C8369837A830995D601ED9158
:100E5000FC910088F189E02D2D813E814B815C81E0
:100E600069817A81C6010995D601ED91FC910288CC
:100E7000F389E02DC60126960FB6F894DEBF0FBEAB
:100E8000CDBFDF91CF911F910F91FF90EF90DF9039
:100E9000CF900994EF92FF920F931F93DC01ED9195
:100EA000FC9111971A960D911C911B9718962D91F4
:100EB0003C911997048CF58DE02D7B0140E050E0CA
:100EC00060E070E009951F910F91FF90EF900895F9
:100ED0004F925F926F927F928F929F92AF92BF924A
:100EE000CF92DF92EF92FF920F931F93CF93DF93F6
:100EF00000D0CDB7DEB76C015A0139014801DC01E1
:100F0000ED91FC910680F781E02D69837A83099544
:100F10006981462E7A81572E640C751CD601ED919D
:100F2000FC91461457046CF40484F585E02D870188
:100F30009401A501B201C6010995BFEF4B1A5B0AE6
:100F4000EDCF0288F389E02DC6010F900F90DF915D
:100F5000CF911F910F91FF90EF90DF90CF90BF90B6
:100F6000AF909F908F907F906F905F904F9009947B
:100F7000AF92BF92CF92DF92EF92FF920F931F93A7
:100F8000CF93DF9300D000D0CDB7DEB75C0169010D
:100F9000DC01ED91FC910680F781E02D4B835C83B1
:100FA00069837A830995D501ED91FC9169817A81F4
:100FB0009B012C0D3D1D215031090088F189E02D48
:100FC00078014B815C818A01C5010995D501ED91BC
:100FD000FC910288F389E02DC5010F900F900F90CE
:100FE0000F90DF91CF911F910F91FF90EF90DF90C5
:100FF000CF90BF90AF900994AF92BF92CF92DF9203
:10100000EF92FF920F931F93CF93DF9300D000D006
:10101000CDB7DEB75C016901DC01ED91FC91068082
:10102000F781E02D4B835C8369837A830995D50131
:10103000ED91FC914B815C81C40ED51EB1E0CB1AC1
:10104000D1080088F189E02D7801860169817A81D3
:101050009B01C5010995D501ED91FC910288F389A9
:10106000E02DC5010F900F900F900F90DF91CF9161
:101070001F910F91FF90EF90DF90CF90BF90AF90B6
:1010800009940895EF92FF920F931F93DC01ED9165
:10109000FC91048CF58DE02D09951F910F91FF9027
:1010A000EF9008950F931F93DC01ED91FC91028C5A
:1010B000F38DE02D09951F910F9108950F931F93C4
:1010C000DC01ED91FC91008CF18DE02D09951F91D3
:1010D0000F910895DC01ED91FC910480F581E02DE4
:1010E000099408952F923F924F925F926F927F9250
:1010F0008F929F92AF92BF92CF92DF92EF92FF9228
:101100000F931F93CF93DF9300D01F92CDB7DEB71D
:101110004C017B836A836A01590117019801241BE2
:10112000350B37FF03C0319521953109C5014A813F
:101130005B81841B950B97FF03C091958195910965
:1011400051E059838217930714F019820BC09A2D2E
:101150008B2D5801092F182F9A818B81DB82CA822F
:10116000C92ED82E8A819B81A816B9065CF49C2DC5
:101170008D2D6801092F182F9A818B81BB82AA823D
:10118000A92EB82E2501AA81BB814A1A5B0A380113
:101190006C187D0877FE03C0719461947108720128
:1011A00057FE03C0BFEFEB1AFB0AF594E794C01695
:1011B000D1061CF00FEF1FEF1FC001E010E01CC0B4
:1011C000D401ED91FC91B9810084F185E02D91016C
:1011D000BB23C1F04A815B81B601C4010995E618C1
:1011E000F708F7FE04C0C00ED11EE40CF51CEA811E
:1011F000FB813196FB83EA834A815B81A416B506A5
:10120000FCF604C0A6016A817B81E7CF0F900F90A6
:101210000F90DF91CF911F910F91FF90EF90DF9092
:10122000CF90BF90AF909F908F907F906F905F9086
:101230004F903F902F90089548305105F0F4603161
:101240007105D8F4440F551FFC01E40FF51F81E030
:1012500090E002C0880F991F6A95E2F7232B29F0CE
:10126000228D338D822B932B06C080959095228DF5
:10127000338D82239323938F828F08950895FC01E9
:1012800024A535A5231728F4E20FF11D848590E0ED
:1012900008958FEF9FEF0895FC0194A585A59817F9
:1012A00048F4DF01A90FB11D1C962C9130E09F5F1F
:1012B00094A702C02FEF3FEFC9010895FC0125A5B7
:1012C00030E084A5A901481B5109CA010895CF92B5
:1012D000DF92EF92FF920F931F93CF93DF936C01F6
:1012E000EB017B01E40EF51E00E010E0CE15DF05FA
:1012F00061F06991D601ED91FC910190F081E02DB2
:10130000C6010995080F191FF1CFC801DF91CF91D0
:101310001F910F91FF90EF90DF90CF90089585ED92
:101320008093BC008091BC0084FDFCCF10925703D9
:1013300008954091E102262F30E0240F311D213223
:101340003105DCF4209157032430C9F4FC0180E01E
:1013500090E0861758F43091E1022191DC01A1540C
:10136000BD4FA30FB11D2C930196F3CF8091E102E5
:10137000680F6093E10280E0089581E0089582E0C3
:1013800008950895E091100380910F03E81730F459
:10139000F0E0EF5EFC4F808190E008958FEF9FEFCB
:1013A00008959091100380910F03981750F4E92F3E
:1013B000F0E0EF5EFC4F208130E09F5F90931003E0
:1013C00002C02FEF3FEFC901089580910F0390E015
:1013D00020911003821B91090895CF92DF92EF9222
:1013E000FF920F931F93CF93DF937C01262F972FAC
:1013F0008A0180915803882391F0C62FD72F6E0160
:10140000C40ED51ECC15DD0571F06991D701ED91A3
:10141000FC910190F081E02DC7010995F3CF642F75
:10142000822F0E949909C801DF91CF911F910F91DE
:10143000FF90EF90DF90CF900895CF93DF931F92AE
:10144000CDB7DEB76983209158032223D1F02091D4
:101450007B03203240F021E030E0FC013383228323
:1014600080E090E015C080915903E82FF0E0E65A43
:10147000FC4F998190838F5F8093590380937B0306
:1014800005C061E0CE0101960E94990981E090E0DB
:101490000F90DF91CF910895CF93DF93EC01888572
:1014A0009985009711F00E94AB338E8187FD05C0AE
:1014B00060E0DF91CF910C941113DF91CF910895EB
:1014C0002F923F924F925F926F927F928F929F9254
:1014D000AF92BF92CF92DF92EF92FF920F931F9342
:1014E000CF93DF93CDB7DEB76C970FB6F894DEBF1E
:1014F0000FBECDBF25EB222E22E0322E0CE713E0EB
:101500009E012F5F3F4F3E8B2D8BA12CB12CF501FF
:10151000E153FA4F828D0E94AC134C01F10181938B
:1015200091931F01F801828D938D2C01612C712CF8
:10153000C088D188E12CF12CC418D508E608F7083A
:1015400026813781C901A0E0B0E09C01AD012419DA
:10155000350946095709A8EEB3E00E94FF2FA701FD
:1015600096010E94E02F298F3A8F4B8F5C8FC40128
:10157000990CAA0BBB0B9C01AD0124193509460936
:101580005709A8EEB3E00E94FF2FA70196010E9421
:10159000E02F698D7A8D621B730B072E000C880B70
:1015A000990B0E947B2E26E636E646EE5FE30E940C
:1015B000DA2E6B017C01298D3A8DB901330F880B2E
:1015C000990B0E947B2E9B01AC01C701B6010E94C2
:1015D000C5306B017C0120E030E0A9010E946D3133
:1015E00018161CF0C12CD12C7601ED89FE89C19210
:1015F000D192E192F192FE8BED8BF2E0AF0EB11C35
:101600000E5F1F4F2AE0A216B10409F080CF698156
:101610007A818B819C819B01AC010E9459302D8184
:101620003E814F8158850E9459306B017C01698948
:101630007A898B899C899B01AC010E9459302D8548
:101640003E854F8558890E9459304B015C019B01B2
:10165000AC01C701B6010E9458302B013C012AE9B8
:1016600039E949E95EE3C501B4010E94742E87FFA0
:1016700020C02AE939E949E95EE3C701B6010E94C1
:10168000742E87FF16C02AE939E949E95EE36985C6
:101690007A858B859C850E94742E87FF0AC0809175
:1016A000DB059091DC0501969093DC058093DB05CA
:1016B00018C020E030E040E050E4C501B4010E94D1
:1016C0006D31181654F420E030E040E050E4C701DA
:1016D000B6010E946D31181614F31092DC051092B9
:1016E000DB058091DB059091DC05853691053CF1A9
:1016F00060E070E080E090E00E947B1887E591E078
:101700000E94D61710926102109260026C960FB67A
:10171000F894DEBF0FBECDBFDF91CF911F910F9127
:10172000FF90EF90DF90CF90BF90AF909F908F9001
:101730007F906F905F904F903F902F90089523E39C
:1017400033E343E35FE36091CF057091D00580916F
:10175000D1059091D2050E94DA2E6B017C012AE915
:1017600039E949E95EE3C301B2010E94DA2E9B0127
:10177000AC01C701B6010E9459304B015C01609376
:10178000CF057093D0058093D1059093D205209119
:10179000D3053091D4054091D5055091D6050E94CE
:1017A00058306D8B7E8B8F8B988F2091D705309121
:1017B000D8054091D9055091DA05C501B4010E94C0
:1017C00059306B017C0120E030E048E452EC0E948B
:1017D000742E87FD11C020E030E048E452E4C701D8
:1017E000B6010E946D3118166CF4C12CD12C88E41E
:1017F000E82E82E4F82E06C0C12CD12C98E4E92E04
:1018000092ECF92EC092D705D092D805E092D90576
:10181000F092DA052091DD053091DE054091DF057B
:101820005091E005C501B4010E94DA2E2B013C0164
:101830002091E1053091E2054091E3055091E405E6
:10184000C701B6010E94DA2E9B01AC01C301B201AF
:101850000E9459306B017C012091E5053091E6052D
:101860004091E7055091E8056D897E898F89988DB3
:101870000E94DA2E9B01AC01C701B6010E945930CB
:101880006B017C018092D3059092D405A092D5057E
:10189000B092D60520E030E046E153E40E94593092
:1018A0000E9437314B015C01A701960160E070E0B6
:1018B00086E193E40E9458300E943731DC01CB016D
:1018C000B4016C960FB6F894DEBF0FBECDBFDF91AA
:1018D000CF911F910F91FF90EF90DF90CF90BF902D
:1018E000AF909F908F907F906F905F904F903F90C0
:1018F0002F900C947B18CF93DF93EC018E8187FDA2
:1019000007C061E00E94111360E08E810E94E11225
:1019100081E08983DF91CF91089571E0249A239823
:10192000000000000000B1D02498AFD0A8940000BF
:10193000000000001C9BA4D0B2F088941B9908946E
:10194000771F60F7249A803011F0239801C0239A02
:1019500000000000000099D02498A8940000000026
:101960001C9B8ED092D000000000249A872F9927CC
:10197000089580E208950894881F01C0880FB9F087
:10198000249A00000000000018F40000239802C010
:10199000239A00C07AD02498A89400000000000088
:1019A0001C9B6ED012F4882712C06FD0E7CF249A08
:1019B00000000000239869D0992788272498A894CC
:1019C00000001C9B5DD07AF31B9B81E05ED0000081
:1019D0000000249A089581E00895CF93DF93EC01ED
:1019E000862F0E94BB0C811106C08FA5811106C0F5
:1019F00083E08FA703C081E090E002C080E090E028
:101A0000DF91CF910895249A239A3FD024983DD016
:101A10001C9B36D0239839D008958F938F918F9344
:101A20001C9B2ED0239A31D0A6DF882311F4EBDF44
:101A3000F5CF0F9008950895249A27D0239825D0A4
:101A4000249823D01C9B1CD0239A1FD094DF089588
:101A500081E008951C9B14D0239A17D08CDF089541
:101A600081E00895239824982B982C98882799270B
:101A70001B9B08951C9B089581E0089581E00895C3
:101A80001C9BFECFA8940895089591E09A95F1F7D4
:101A9000089508951F920F920FB60F9211242F935D
:101AA0003F934F935F936F937F938F939F93AF93E6
:101AB000BF93EF93FF938091B900887F803609F43C
:101AC0009CC068F5883209F45BC090F4803109F459
:101AD00054C038F4882309F4F6C0883009F44DC0A6
:101AE000F6C0883109F44CC0803209F45DC0EFC003
:101AF000803409F468C048F4803309F455C0883351
:101B000009F0E5C080935503D8C0803509F44FC073
:101B1000883509F45DC0883409F0D9C0D6C0883949
:101B200009F4C7C0A8F4883709F467C038F48836C8
:101B300009F463C0803709F460C0C9C0883809F46B
:101B4000B8C0803909F45FC0803809F0C0C05BC0FC
:101B5000803B09F486C038F4803A09F466C0883ABC
:101B600009F47FC0B4C0803C09F4A7C0883C09F4E4
:101B7000A4C0883B09F48AC0AAC08091320310C077
:101B80009091540380915303981770F5E09154039A
:101B900081E08E0F80935403F0E0ED5CFC4F808178
:101BA0008093BB0085EC86C0809355038EC0E09186
:101BB000540381E08E0F809354038091BB00F0E0CA
:101BC000ED5CFC4F808390915403809153036EC071
:101BD000E091540381E08E0F809354038091BB0009
:101BE000F0E0ED5CFC4F80838091560381116DC065
:101BF00081E08093310384EA61C083E080935703DE
:101C000010920503CFCF80910503803208F051C0B8
:101C1000E091050381E08E0F809305038091BB0066
:101C2000F0E0EB51FD4F8083BDCF85EC8093BC008D
:101C30001092570380910503803230F4E091050340
:101C4000F0E0EB51FD4F10826091050370E0E091F0
:101C5000E302F091E40285EE92E00995109205030B
:101C600036C084E0809357031092E2021092E102A2
:101C7000E091DF02F091E00209958091E10281118B
:101C800005C081E08093E1021092BF02E091E20280
:101C900081E08E0F8093E202F0E0E154FD4F8081FD
:101CA0008093BB009091E2028091E102981708F4C2
:101CB00079CF85E88093BC000AC085EC8093BC0096
:101CC0001092570304C0109255030E948F09FF9190
:101CD000EF91BF91AF919F918F917F916F915F91A4
:101CE0004F913F912F910F900FBE0F901F9018951D
:101CF00060E372E08CEA93E00E945E1264E372E0BB
:101D00008CEA93E00C945E122F923F924F925F9276
:101D10006F927F928F929F92AF92BF92CF92DF92FB
:101D2000EF92FF920F931F93CF93DF93CDB7DEB760
:101D3000E8970FB6F894DEBF0FBECDBF8AE0EDE4A2
:101D4000F1E0DE011B9601900D928A95E1F7CE013C
:101D500001961C018AE0F10111928A95E9F7E12CC4
:101D6000F12CCE0145969CAB8BABE114F10429F428
:101D70006CE370E084EC9FEF08C098ECE916F10486
:101D800039F464EC7FEF8CE390E00E947B1805C08F
:101D9000E8E5EE16E2E0FE0659F399EE892E95E0AD
:101DA000992ECE010B969EAB8DAB38AE2FAA51016A
:101DB0006C01F4018081F2E08F0E911C0E94AC1343
:101DC0008C01F601608171818617970724F5072E33
:101DD000000C880B990B0E947B2E23E333E343E333
:101DE0005FE30E94DA2E2B013C01B801110F880B32
:101DF000990B0E947B2E2AE939E949E95EE30E94AA
:101E0000DA2E9B01AC01C301B2010E9459300E943D
:101E10003731F60129C0F5016081718168177907B2
:101E20002CF5072E000C880B990B0E947B2E23E3C8
:101E300033E343E35FE30E94DA2E2B013C01B80158
:101E4000110F880B990B0E947B2E2AE939E949E989
:101E50005EE30E94DA2E9B01AC01C301B2010E9435
:101E600059300E943731F50171836083F2E0CF0E63
:101E7000D11C82E0A80EB11CEBA9FCA9CE16DF068E
:101E800009F097CFFFEFEF1AFF0A65E070E080E0FE
:101E900090E00E94C31380E2E81683E0F80609F0A0
:101EA00064CF60E070E080E090E00E947B1882E800
:101EB000E82E83E0F82E00E010E0EFA9F8ADA19045
:101EC000B190F8AFEFABEDA9FEA9C190D190FEABF8
:101ED000EDABB5016C197D09072E000C880B990B31
:101EE0000E947B2E2AE939E949E95EE30E94DA2E55
:101EF0002B013C01B6010D2C000C880B990B0E94A4
:101F00007B2E9B01AC01C301B2010E9459300E949B
:101F100037312B013C014AE0CE018D960E9411120F
:101F20004AE0B501CE0187960E9411124AE0B6013F
:101F3000CE0181960E9411124AE0B801CE014B9663
:101F40000E9411121E8A1D8A188E1F8A1A8E198EDF
:101F500042E050E066E472E0CE0145960E94EB114B
:101F6000BE01655E7F4FCE0145960E94D81167E4A1
:101F700072E00E94BF11BE016F5D7F4F0E94D811B9
:101F80006AE172E00E94BF11BE01695D7F4F0E944D
:101F9000D81169E472E00E94BF11BE01635D7F4FFA
:101FA0000E94D8110E94711ACE0145960E940C120F
:101FB000CE014B960E940C12CE0181960E940C120B
:101FC000CE0187960E940C12CE018D960E940C12B3
:101FD000F701419251927F01B186A086D38AC28ACD
:101FE0000F5F1F4F0530110509F067CF0E940E1AD1
:101FF000E8960FB6F894DEBF0FBECDBFDF91CF914C
:102000001F910F91FF90EF90DF90CF90BF90AF9016
:102010009F908F907F906F905F904F903F902F9008
:102020000895CF92DF92EF92FF920F931F93CF9379
:10203000DF936C017A018B01C0E0D0E0CE15DF05A3
:1020400089F0D8016D918D01D601ED91FC9101903F
:10205000F081E02DC6010995892B11F47E0102C0A3
:102060002196ECCFC701DF91CF911F910F91FF9087
:10207000EF90DF90CF900895FC01918D828D98179D
:1020800061F0828DDF01A80FB11D5D968C91928D5C
:102090009F5F9F73928F90E008958FEF9FEF089559
:1020A000FC01918D828D981731F0828DE80FF11D22
:1020B000858D90E008958FEF9FEF0895FC01918D3D
:1020C000228D892F90E0805C9F4F821B91098F7336
:1020D000992708958CEA93E00E945E1021E0892BF5
:1020E00009F420E0822F0895FC01848DDF01A80F00
:1020F000B11DA35ABF4F2C91848D90E001968F7330
:102100009927848FA689B7892C93A089B1898C914E
:1021100080648C93938D848D981306C00288F38914
:10212000E02D80818F7D80830895EF92FF920F9341
:102130001F93CF93DF93EC0181E0888F9B8D8C8D73
:10214000981305C0E889F989808185FD24C0F62EA1
:102150000B8D10E00F5F1F4F0F731127E02E8C8D3A
:10216000E8120CC00FB607FCFACFE889F989808124
:1021700085FFF5CFCE010E947410F1CF8B8DFE014B
:10218000E80FF11DE35AFF4FF0820B8FEA89FB89BC
:102190008081806207C0EE89FF896083E889F989C0
:1021A00080818064808381E090E0DF91CF911F91F6
:1021B0000F91FF90EF900895CF93DF93EC01888DFE
:1021C0008823C9F0EA89FB89808185FD05C0A8893B
:1021D000B9898C9186FD0FC00FB607FCF5CF8081C1
:1021E00085FFF2CFA889B9898C9185FFEDCFCE010B
:1021F0000E947410E7CFDF91CF91089580E090E0C6
:10220000892B29F00E946A1081110C940000089516
:10221000833081F028F4813099F08230A1F0089564
:102220008730A9F08830B9F08430D1F480918000F3
:102230008F7D03C0809180008F7780938000089508
:1022400084B58F7702C084B58F7D84BD0895809159
:10225000B0008F7703C08091B0008F7D8093B00075
:1022600008953FB7F89480910B0390910C03A091CF
:102270000D03B0910E0326B5A89B05C02F3F19F0A2
:102280000196A11DB11D3FBFBA2FA92F982F8827F6
:10229000820F911DA11DB11DBC01CD0142E0660F51
:1022A000771F881F991F4A95D1F708950E940D3511
:1022B0000F931F93CF93DF93EC018881998100974F
:1022C00029F02A813B812617370788F48B016F5F3D
:1022D0007F4F0E944334009761F0998388831B836A
:1022E0000A832C813D81232B11F4FC01108281E0B3
:1022F00001C080E0DF91CF911F910F910895EF927F
:10230000FF920F931F93CF93DF93FC0124813581BC
:102310006115710511F480E019C041155105A9F04E
:102320007B01EC018A01020F131FB8010E945811B2
:10233000882389F3288139818C819D81B701820F9F
:10234000931F0E9422351D830C8381E0DF91CF9182
:102350001F910F91FF90EF900895CF93DF93EC01C1
:1023600088819981009711F00E94AB3319821882FD
:102370001D821C821B821A82DF91CF910895CF9318
:10238000DF93EC016115710561F0FB010190002004
:10239000E9F73197AF01461B570B0E947F1181115E
:1023A00003C0CE010E94AD11CE01DF91CF910895FF
:1023B000CF93DF93EC01FB014481558160817181F2
:1023C0000E947F11811103C0CE010E94AD11CE0188
:1023D000DF91CF910895EF92FF920F931F93CF93C8
:1023E000DF93EC017B018A01BA010E94581181112F
:1023F00004C0CE010E94AD1107C01D830C83B7013C
:10240000888199810E942235CE01DF91CF911F9161
:102410000F91FF90EF900895FC01808191810C94C1
:10242000AB33EF92FF920F931F93CF93DF93CDB710
:10243000DEB762970FB6F894DEBF0FBECDBF8C013A
:10244000CB01F8011182108213821282158214824C
:1024500050E09E012F5F3F4F7901B9010E94922CFD
:10246000F70101900020E9F73197AF014E195F099C
:10247000B701C8010E94EB1162960FB6F894DEBF57
:102480000FBECDBFDF91CF911F910F91FF90EF90C5
:1024900008956115710579F0FB0101900020E9F7BD
:1024A0003197AF01461B570BDC01ED91FC91028087
:1024B000F381E02D099480E090E008950C94491296
:1024C0001F920F920FB60F9211242F933F934F93A9
:1024D0005F936F937F938F939F93AF93BF93EF938C
:1024E000FF938CEA93E00E947410FF91EF91BF91EB
:1024F000AF919F918F917F916F915F914F913F919C
:102500002F910F900FBE0F901F9018951F920F9252
:102510000FB60F9211242F938F939F93EF93FF93F6
:10252000E091BC03F091BD038081E091C203F09182
:10253000C30382FD12C090818091C5038F5F8F73AA
:102540002091C603821751F0E091C503F0E0E455F5
:10255000FC4F958F8093C50301C08081FF91EF915F
:102560009F918F912F910F900FBE0F901F901895F4
:10257000CF93DF93282F30E0F901EF5CF94F84917E
:10258000F901E359F94FD491F901E75AF94FC49190
:10259000CC2391F081110E940811EC2FF0E0EE0F96
:1025A000FF1FEF57F94FA591B491EC91ED2381E016
:1025B00090E021F480E002C080E090E0DF91CF91D4
:1025C00008951F93CF93DF93282F30E0F901EF5C3C
:1025D000F94F8491F901E359F94FD491F901E75A80
:1025E000F94FC491CC23C9F0162F81110E94081114
:1025F000EC2FF0E0EE0FFF1FE15BF94FA591B491D6
:102600008FB7F894111105C09C91ED2FE095E92347
:1026100002C0EC91ED2BEC938FBFDF91CF911F9116
:102620000895CF93DF9390E0FC01E359F94F249193
:10263000FC01E75AF94F8491882361F190E0880FFB
:10264000991FFC01EB5BF94FC591D491FC01E15B53
:10265000F94FA591B491611109C09FB7F894888191
:10266000209582238883EC912E230BC0623061F485
:102670009FB7F8943881822F809583238883EC91CB
:102680002E2B2C939FBF06C08FB7F894E8812E2B7A
:1026900028838FBFDF91CF9108951F93CF93DF934E
:1026A000182FEB0161E00E941113209711F460E0F4
:1026B00004C0CF3FD10539F461E0812FDF91CF9184
:1026C0001F910C94E112E12FF0E0EF5CF94FE491DF
:1026D000E330F9F048F4E130B9F0E230A1F584B527
:1026E000806284BDC8BD34C0E730E9F0E83019F13C
:1026F000E43049F580918000806280938000D0931F
:102700008B00C0938A0024C084B5806884BDC7BD97
:102710001FC080918000806880938000D0938900E2
:10272000C093880015C08091B00080688093B0008D
:10273000C093B3000DC08091B00080628093B00060
:10274000C093B40005C0C038D1050CF0B5CFAFCFF1
:10275000DF91CF911F9108958E3008F08E508770D1
:10276000806480937C0080917A00806480937A00FA
:1027700080917A0086FDFCCF8091780020917900CD
:1027800090E0922B08958F929F92AF92BF92CF923A
:10279000DF92EF92FF926B017C010E9431114B019D
:1027A0005C01C114D104E104F104F1F00E94311183
:1027B000DC01CB0188199909AA09BB09883E93401D
:1027C000A105B10570F321E0C21AD108E108F108B2
:1027D00088EE880E83E0981EA11CB11CC114D104A0
:1027E000E104F10419F7DDCFFF90EF90DF90CF9077
:1027F000BF90AF909F908F9008952FB7F8946091FD
:102800000703709108038091090390910A032FBF79
:1028100008951F920F920FB60F9211242F933F939A
:102820008F939F93AF93BF93809107039091080379
:10283000A0910903B0910A033091060323E0230F0E
:102840002D3720F40196A11DB11D05C026E8230FE8
:102850000296A11DB11D2093060380930703909358
:102860000803A0930903B0930A0380910B0390918E
:102870000C03A0910D03B0910E030196A11DB11D93
:1028800080930B0390930C03A0930D03B0930E035E
:10289000BF91AF919F918F913F912F910F900FBE5C
:1028A0000F901F9018958F929F92AF92BF92CF92E8
:1028B000DF92EF92FF926B017C010E9431114B017C
:1028C0005C0184E0C81AD108E108F108C80CD91CE1
:1028D000EA1CFB1CC814D904EA04FB0438F40E9467
:1028E000311186169706A806B906C8F30E94311161
:1028F0006C157D058E059F05C8F3FF90EF90DF9066
:10290000CF90BF90AF909F908F9008951F920F929D
:102910000FB60F9211242F933F934F935F936F93B2
:102920007F938F939F93AF93BF93EF93FF93809188
:102930007A040E94B81220917E0430917F042F5FA8
:102940003F4F30937F0420937E0490917D04953611
:1029500018F096E090937904909179049430C9F13D
:1029600028F4923069F09330D1F05EC0953009F4CC
:1029700051C0963009F058C091E090934A0551C07B
:10298000811152C020917E0430917F04243631059C
:1029900008F442C010924A0510927D041CC0813098
:1029A00009F042C0E0917D0491E09E0F90937D0478
:1029B000F0E020917E0430917F04EE0FFF1FE75876
:1029C000FB4F3087278310927F0410927E0494E09F
:1029D00029C0811117C0E0917D0491E09E0F909372
:1029E0007D04F0E020917E0430917F04EE0FFF1F04
:1029F000E758FB4F3087278310927F0410927E04A4
:102A000093E010C020917E0430917F04253631057B
:102A100058F007C0811108C010927F0410927E0404
:102A200003C095E09093790490917C049923B9F0C8
:102A300081110AC080917B04882321F080917B045E
:102A400061E009C02D9A0BC080917B04882331F08E
:102A500080917B0460E00E94E11201C02D98FF91FB
:102A6000EF91BF91AF919F918F917F916F915F9106
:102A70004F913F912F910F900FBE0F901F9018957F
:102A8000FF920F931F93CF93DF93EC01FF24F394F6
:102A9000F60E2F81F21679F1088519852150B9F0CB
:102AA0006F3F59F430E040E050E06FEF7FEF80E09F
:102AB00090E00E94E02FB9010CC08F2D90E0982F7C
:102AC00088270197622F70E00E94FC3202C060E00C
:102AD00070E0F8014C815D81CF01801B910B841760
:102AE000950740F44081469FC001479F900D1124F7
:102AF0009193F0CFFF82DF91CF911F910F91FF90C3
:102B000008950F931F93DC0112968D919C9113975A
:102B10006817790708F043C017968C911797882398
:102B200061F0489FA0011124452F289F9001112496
:102B3000232F089F80011124012F1D968C911D9732
:102B40001A969C911A971896ED91FC9119978913F2
:102B500008C0CB01880F991F680F791F6E0F7F1F68
:102B60000AC0660F771F660F771F6E0F7F1FFB016E
:102B7000E80FF11D10821A968C911A97FB01E80F4D
:102B8000F11D40831B968C911B97FB01E80FF11DF3
:102B900020831C968C91FB01E80FF11D00831F918F
:102BA0000F9108951F93CF93DF93EC01162F898126
:102BB000882331F08E8187FD03C060E00E941113ED
:102BC0001E838981882341F061E0812F0E941113C7
:102BD00060E0812F0E94E112812F90E0FC01E75A12
:102BE000F94FE491F0E0EE0FFF1FE15BF94F259103
:102BF00034913B8B2A8BFC01E359F94FE491EC8B28
:102C0000DF91CF911F910895CF92DF92EF92FF92C3
:102C10000F931F93CF93DF93CDB7DEB729970FB6EE
:102C2000F894DEBF0FBECDBF8C01DC0118968D91EC
:102C30009C911997892B09F49EC00E943111F801CB
:102C4000C684D784E088F188DC01CB018C199D090A
:102C5000AE09BF09C297A105B10578F3F894848144
:102C600095819A8389830084F185E02D7F01BFEFF0
:102C7000EB1AFB0A80818987F80190810288F38929
:102C8000E02DD80154968C91992309F430C090819D
:102C9000982B98879081809589238F838F818C834F
:102CA00088E08B8358856F8149853B812C818981A0
:102CB0009A81D701508347FD252F3A952083262FEF
:102CC00039F0441F00C000006083000000C0F2CF54
:102CD00038E04D9160830000019761F7D801539669
:102CE000FC93EE93529749873B832C833AC09081A3
:102CF000982B98879081809589238F838F818E83ED
:102D000088E08D8358856F8149853D812E81898139
:102D10009A81D701508347FD252F00C000C0208332
:102D200000C000C000C000C000C060830000262FAB
:102D30003A9541F0441F000000C000C000C000C030
:102D400000C0E8CF38E04D9100C0608300C001971B
:102D500009F7D8015396FC93EE93529749873D8328
:102D60002E839A83898378940E943111F8016687B3
:102D70007787808B918B29960FB6F894DEBF0FBEB4
:102D8000CDBFDF91CF911F910F91FF90EF90DF901A
:102D9000CF900895EF92FF920F931F93CF93DF93FD
:102DA000EC017B0188859985009711F00E94AB3377
:102DB0009D858A85981719F084E090E002C083E031
:102DC00090E08E9D80018F9D100D9E9D100D112411
:102DD0001D830C83C8010E9416339987888700974A
:102DE00041F0A80160E070E00E941B35FB82EA829E
:102DF00004C01D821C821B821A82DF91CF911F9119
:102E00000F91FF90EF9008952F923F924F925F9213
:102E10006F927F928F929F92AF92BF92CF92DF92EA
:102E2000EF92FF920F931F93CF93DF93CDB7DEB74F
:102E300027970FB6F894DEBF0FBECDBF6B017C01A4
:102E40008A0160E472E48FE090E0A70196010E949D
:102E5000BE2FE1E7F6E0649169838DE596E0FC0121
:102E60006491E62FF0E0EE0FFF1FE15BF94F6591F3
:102E700074917F836E83FC018491E82FF0E0EE0F64
:102E8000FF1FEB5BF94FA591B4918C91F9818F2BCA
:102E90008C932C833D834A835B830E94FD134B01FB
:102EA0005C012C813D814A815B81DA01C901B695C3
:102EB000A795979587951C017C01EE0CFF1CEE0CE5
:102EC000FF1C65E0E61AF108281B390B6901CC0CE0
:102ED000DD1CCC0CDD1C75E0C71AD1082801612C63
:102EE000712C198110952C833D830E94FD13DC0108
:102EF000CB0188199909AA09BB092C813D81841548
:102F00009505A605B705D8F4EE81FF818081F9818A
:102F10008F2BEE81FF818083F2E02F16310418F0B1
:102F2000C7010197F1F7EE81FF81808181238083C2
:102F300022303105C0F2C6010197F1F7D4CF2796B0
:102F40000FB6F894DEBF0FBECDBFDF91CF911F91BA
:102F50000F91FF90EF90DF90CF90BF90AF909F9038
:102F60008F907F906F905F904F903F902F9008953B
:102F7000CF93DF939B01EA01BC01990F880B990B5A
:102F8000611571058105910531F4B90180E090E08A
:102F90000E94C31303C0A9010E940417BE01DD0FE4
:102FA000880B990BDF91CF910C94C3134F925F92D2
:102FB0007F928F929F92AF92BF92CF92DF92EF92C9
:102FC000FF920F931F93CF93DF9300D000D0CDB724
:102FD000DEB76C01FC0101900020E9F731978F0109
:102FE000081B190B412C512C84EFA82EBB24B39441
:102FF00094E0892E912C2DE7722E401651060CF08C
:1030000066C0F601E40DF51DE0818FE98E0F873073
:1030100038F4EE0FFF0BE954FF4FE080F18053C00E
:10302000E23709F44EC08EEC8E0F853040F42E2F1F
:10303000EE0F330B490180E3881A910844C0EA334C
:1030400089F48FEF481A580AF601E40DF51D8081C6
:10305000082E000C990BC097789E5001799EB00CF9
:10306000112431C0E03279F5B40164507109072EA2
:10307000000C880B990B0E947B2E9B01AC0160E039
:1030800070E080E090E40E9472319B01AC01B701D6
:10309000FF0C880B990B29833A834B835C830E9436
:1030A0007B2E29813A814B815C810E94DA2E0E941D
:1030B0003731DC01CB017C01A501B5010E94B817B5
:1030C00002C0E12CF12C8FEF481A580A96CF0F90CE
:1030D0000F900F900F90DF91CF911F910F91FF9064
:1030E000EF90DF90CF90BF90AF909F908F907F90A8
:1030F0005F904F900895CF92DF92EF92FF920F93DF
:103100001F93CF93DF93EC01072E000C880B990BD4
:103110000E947B2E20917E0330917F03409180039B
:10312000509181030E94DA2E0E9437316B017C019D
:103130008B01D7FF0AC060E070E085E00E944D136C
:10314000662777276C1B7D0B06C0BE0185E00E94B9
:103150004D1360E070E086E00E944D1317FF0AC037
:10316000662777276C197D0989E00E944D1360E07E
:1031700070E006C060E070E089E00E944D13B60187
:103180008AE0DF91CF911F910F91FF90EF90DF9038
:10319000CF900C944D13382F20917B0390917A039C
:1031A000213208F049C0809157038111FCCF42E0E1
:1031B00040935703309356033FEF309355031092DB
:1031C000540320935303AAE5B3E043E353E0FA0129
:1031D0003E2F341B321718F43D913193F9CF1092E2
:1031E000320320913203990F922B909332039091E6
:1031F0003103913061F41092310390913203909336
:10320000BB009091BC0093FDF8CF95EC01C095EE0A
:103210009093BC00909157039230E1F39091550345
:103220009F3F79F080915503803241F080915503A2
:10323000803331F084E005C081E003C082E001C04A
:1032400083E01092590310927B0310925803089563
:103250001F93CF93DF93162FC2ECD5E0998521E021
:103260002093580390937A031092590310927B0392
:10327000682F86EB95E00E941D0A612F86EB95E092
:103280000E941D0A81E00E94CB188E83DF91CF91AE
:103290001F910895909157039111FCCF91E0909365
:1032A0005703909356032FEF209355031092540326
:1032B000260F209353039093320390913203880F8B
:1032C000892B8093320380913103813061F4109215
:1032D0003103809132038093BB008091BC0083FD59
:1032E000F8CF85EC01C085EE8093BC008091570338
:1032F0008130E1F380915403861710F460915403F8
:10330000A3E3B3E021E133E0F9018E2F821B86179E
:1033100018F48D918193F9CF862F0895BF92CF92A3
:10332000DF92EF92FF920F931F93CF93DF938091E1
:10333000CB0591E09093580380937A031092590340
:1033400010927B0368EA86EB95E00E941D0A81E0FB
:103350000E94CB1866E08091CB050E944A19E82EA6
:103360001092100380930F030E94FD136B01F12C48
:1033700026E0E216F104ACF48091CC059091CD05E5
:10338000892BB1F30E94FD136C197D098091CC0546
:103390009091CD058617970758F781E08093CE0569
:1033A00033C086EB95E00E94D109C82E86EB95E0EC
:1033B0000E94D109B82E86EB95E00E94D109E82E33
:1033C00086EB95E00E94D109D82E86EB95E00E940D
:1033D000D109F82E86EB95E00E94D1091B2D00E063
:1033E0000C291093C3050093C205DD2D20E0C22FE8
:1033F000CE29D093C505C093C405982F88278F295F
:103400009093C7058093C605DF91CF911F910F91CF
:10341000FF90EF90DF90CF90BF9008950F931F9390
:10342000CF93DF930CE713E0C0E0D0E0F8016191A7
:103430008F01CE010E94A02F2196C033D105B1F794
:10344000DF91CF911F910F910895E091AC03F0911E
:10345000AD030190F081E02D682F8CEA93E0099490
:1034600060E070E080E090E00C947B18CF93DF93F5
:10347000BC018CEA93E00E944912EC0163E472E023
:103480008CEA93E00E9449128C0F9D1FDF91CF912F
:103490000895CF93C82F81E080935803C0937A0397
:1034A0001092590310927B036FE086EB95E00E9427
:1034B0001D0A81E00E94CB1881110FC061E08C2FA2
:1034C0000E944A191092100380930F03882329F059
:1034D00086EB95E0CF910C94D1098FEF9FEFCF91C0
:1034E0000895CF93DF93FC01448155816081718100
:1034F0008CEA93E00E941110EC0163E472E08CEA24
:1035000093E00E9449128C0F9D1FDF91CF91089587
:103510008F929F92AF92BF920F931F93CF93DF939F
:10352000CDB7DEB7A1970FB6F894DEBF0FBECDBF03
:1035300019A2423008F44AE08E010F5D1F4F842E1D
:10354000912CA12CB12CA50194010E94BE2FE62F35
:10355000B901CA0101501109EA3014F4E05D01C05B
:10356000E95CD801EC93232B242B252B61F7B801C0
:103570008CEA93E00E944912A1960FB6F894DEBF40
:103580000FBECDBFDF91CF911F910F91BF90AF9034
:103590009F908F900895CF92DF92EF92FF92CF93FA
:1035A000DF936B017C018DE20E94251AEC016627F6
:1035B0007727CB016C197D098E099F094AE00E948B
:1035C000881A8C0F9D1FDF91CF91FF90EF90DF90B5
:1035D000CF900895CF93DF93BC01990F880B990B7F
:1035E00097FF03C00E94CB1A03C04AE00E94881ACA
:1035F000EC0163E472E08CEA93E00E9449128C0FC4
:103600009D1FDF91CF9108954F925F926F927F92AD
:103610008F929F92AF92BF92CF92DF92EF92FF92E2
:103620006B017C01B42E9B01AC010E94C231882346
:1036300019F06CE472E027C026013701E89477F8AE
:103640002FEF3FEF4FE75FE7C301B2010E94C231A6
:1036500081110DC02FEF3FEF4FE75FE7C301B201CC
:103660000E94742E18161CF460E572E00CC02FEF57
:103670003FEF4FE75FE4C701B6010E946D311816B6
:1036800094F464E572E08CEA93E0FF90EF90DF90B1
:10369000CF90BF90AF909F908F907F906F905F90F2
:1036A0004F900C9449122FEF3FEF4FE75FECC701AB
:1036B000B6010E94742E87FDE4CF20E030E0A9011E
:1036C000C701B6010E94742E87FF09C08DE20E94D7
:1036D000251A4C01F7FAF094F7F8F09402C0812C07
:1036E000912CA12C60E070E080E09FE3AB1441F0EE
:1036F00020E030E040E251E40E94C530A394F6CFD0
:103700009B01AC01C701B6010E9459302B013C015D
:103710000E943E316B017C010E94792E9B01AC011D
:10372000C301B2010E9458302B013C014AE0C7019D
:10373000B6010E94881A7C01E80CF91CBB2029F014
:103740008EE20E94251AE80EF91EDB2CDD2021F105
:1037500020E030E040E251E4C301B2010E94DA2EE1
:103760002B013C010E943E314B01A12CB12C4AE0BF
:10377000C501B4010E94881AE80EF91EC501B40102
:103780000E94792E9B01AC01C301B2010E94583006
:103790002B013C01DA94DACFC701FF90EF90DF9064
:1037A000CF90BF90AF909F908F907F906F905F90E1
:1037B0004F900895CF93DF9342E00E94041BEC01E9
:1037C00063E472E08CEA93E00E9449128C0F9D1F23
:1037D000DF91CF9108950F931F93CF93DF938C01C7
:1037E000EB0161E08CE00E94111361E08BE00E942C
:1037F000111361E0012B09F060E08BE00E94E112FF
:1038000061E0CD2B09F060E08CE0DF91CF911F915A
:103810000F910C94E112CF92DF92EF92FF920F93EF
:103820001F9361E08CE00E94111361E08CE00E9424
:10383000E11283E290E00197F1F760E08CE00E94F2
:103840001113E9E7F6E06491E5E6F6E0E491F0E0D3
:10385000EE0FFF1FEF57F94F8591949100E412E4AA
:103860002FE030E0462F0E94B81E611571058105DA
:10387000910539F0DC01CB010196A11DB11DBF708E
:1038800003C080E090E0DC01BC0180E090E00E9499
:10389000792E2DEC3CEC48E652E40E94C5306B01D9
:1038A0007C0120E030E0A9010E94742E811107C044
:1038B000C12C80ECD82E89E7E82E84E4F82EC701CD
:1038C000B6011F910F91FF90EF90DF90CF90089578
:1038D000E9E7F4E08181F89482E08093B00080937E
:1038E000B10094E69093B3001092B2008093700000
:1038F000789480831482818160E00E94111381E0BA
:1039000080934B0508952091B00020622093B00071
:10391000009751F0BC0180E090E0653071058105B1
:10392000910510F00C9453140895CF93C09177042F
:10393000880FCC2351F00E941C0D811102C082E03F
:1039400001C080E08093780407C00E942A0D811195
:1039500001C0C2E0C093780481E080937704CF91E6
:1039600008950F931F93CF93DF93809176050E9464
:10397000951C60E089E494E00E94ED0CC6E6D5E079
:103980008E01688189E494E00E94ED0C2296F80192
:10399000618189E494E00E94ED0CF5E0C637DF0711
:1039A00079F70E94030D1092770410927804DF914A
:1039B000CF911F910F9108950F931F93CF93DF9392
:1039C0000CE415E080E7F80182A7C9E4D4E01CA666
:1039D0001DA61FA61EA60E94320DF80182A50E94F8
:1039E000951C61E2CE010E94ED0C0E94030D1EA603
:1039F0001FA6F80182A50E94951C61E8CE010E94D5
:103A0000ED0C0E94030D1EA61FA6F80182A50E94C0
:103A1000951C6FEECE010E94ED0C0E94030D1EA6B8
:103A20001FA6DF91CF911F910F9108952F923F9282
:103A30004F925F926F927F928F929F92AF92BF92BE
:103A4000CF92DF92EF92FF920F931F93CF93DF936A
:103A5000CDB7DEB7A9970FB6F894DEBF0FBECDBFC6
:103A600080E894E09093BC068093BB0680917D042F
:103A7000282E312C3092BE062092BD0680914A0538
:103A800090E09093C0068093BF06809179048530C2
:103A900009F055C18091820490918304885891095E
:103AA0008D35910588F480917D04843041F48091B6
:103AB0008404909185048097479708F49AC0809178
:103AC0007D04843408F07CC026E0221631040CF416
:103AD000F6C006E814E083E090E099A788A775ECAB
:103AE000C72E7DE9D72E7CE1E72E71E8F72EE8A5F9
:103AF000F9A5E215F3050CF052C0F801608171815F
:103B00003497A080B18080E090E00E94792E2B0154
:103B10003C01B50180E090E00E94792E4B015C01F0
:103B20002DEC3CEC4CE45FE30E94DA2E9B01AC01EF
:103B3000C301B2010E94742E87FD17C02DEC3CEC2E
:103B40004CE45FE3C301B2010E94DA2E9B01AC0199
:103B5000C501B4010E94742EE82F880FFF0BEE27D9
:103B6000FF0FEE1FFF27319602C0E0E0F0E0A70153
:103B7000960163E971E080E091E00E94AE2F6F0151
:103B8000FF0FEE08FF08C626D726E826F92688A5E7
:103B900099A5019699A788A70E5F1F4FA8CFC0923D
:103BA000B506D092B606E092B706F092B80680E26B
:103BB00090E09093BA068093B9068FEF9FEF5BC0B9
:103BC0008091840490918504825491098E9708F025
:103BD0007BCF20E030E080E090E0DC01F901EA57A3
:103BE000FB4F40815181495051094930510588F0BE
:103BF0006BCF80918604909187040997099708F00C
:103C00005ECF1092BA061092B9068FEF9FEFDC01DB
:103C100028C0F901E857FB4F4081518147515109B4
:103C20004231510588F4880F991FAA1FBB1F81607C
:103C30002C5F3F4F2038310589F620E230E0309389
:103C4000BA062093B9060DC04081518146505109F2
:103C50004730510508F038CF880F991FAA1FBB1FA6
:103C6000E7CF8093B5069093B606A093B706B093BE
:103C7000B80683E090E09093B2068093B10660911D
:103C8000B5067091B6068091B7069091B8066F3F61
:103C9000FFEF7F078F079F0791F0609305017093F7
:103CA0000601809307019093080128E030E0611538
:103CB00071058105910549F4E0E0F0E0099582E0A5
:103CC0008093790410927D043AC02150310979F72C
:103CD0001BA21AA21DA21CA21FA21EA220E18E01DD
:103CE0000F5F1F4FA8010E94B02CF8010190002027
:103CF000E9F73197AF01401B510BB801CE01829615
:103D00000E94EB111A8219821C821B821E821D8264
:103D100047E050E068E572E0C8010E94EB11BE0187
:103D20006E5D7F4FC8010E94D8110E94711AC801B0
:103D30000E940C12CE0182960E940C12C0CFA9964E
:103D40000FB6F894DEBF0FBECDBFDF91CF911F91AC
:103D50000F91FF90EF90DF90CF90BF90AF909F902A
:103D60008F907F906F905F904F903F902F9008952D
:103D7000CF92DF92EF92FF920F931F93E82FF92FCC
:103D800005C0015011092109310961F19081962383
:103D90009417B9F305C0015011092109310911F136
:103DA000908196239413F7CFC12CD12CE12CF12CC8
:103DB0000AC08FEFC81AD80AE80AF80A0C151D05C0
:103DC0002E053F0579F080818623841791F36C2DB1
:103DD0007D2D8E2D9F2D1F910F91FF90EF90DF90E5
:103DE000CF90089560E070E080E090E01F910F9127
:103DF000FF90EF90DF90CF900895CF93DF93CDB7F2
:103E0000DEB762970FB6F894DEBF0FBECDBF7894D1
:103E100084B5826084BD84B5816084BD85B58260CF
:103E200085BD85B5816085BD80916E008160809380
:103E30006E001092810080918100826080938100E9
:103E400080918100816080938100809180008160F9
:103E5000809380008091B10084608093B100809154
:103E6000B00081608093B00080917A00846080937C
:103E70007A0080917A00826080937A0080917A0043
:103E8000816080937A0080917A00806880937A00C4
:103E90001092C1001092100310920F031092590358
:103EA00010927B031092570381E080935603109287
:103EB000310361E082E10E94E11261E083E10E944E
:103EC000E1128091B9008E7F8093B9008091B90092
:103ED0008D7F8093B90088E48093B80085E4809357
:103EE000BC00E091BC03F091BD0382E08083E091CF
:103EF000B803F091B9031082E091BA03F091BB03CB
:103F000080E180831092C403E091C003F091C1036B
:103F100086E08083E091BE03F091BF0380818061E1
:103F20008083E091BE03F091BF038081886080832D
:103F3000E091BE03F091BF03808180688083E091AF
:103F4000BE03F091BF0380818F7D808360E070E0CD
:103F500086E00E944D1360E070E085E00E944D1302
:103F600060E070E08AE00E944D1360E070E089E05C
:103F70000E944D1361E08CE00E94111361E08BE020
:103F80000E94111362E087E00E94111362E088E052
:103F90000E94111381EA95E00E947B0C6DE081EA9A
:103FA00095E00E94D21564E681EA95E00E944015F2
:103FB0008CE895E00E947B0C6BE08CE895E00E9419
:103FC000D21564E68CE895E00E94401587E795E0FD
:103FD0000E947B0C6CE087E795E00E94D21564E6B6
:103FE00087E795E00E9440159CE7E92E93E0F92EC3
:103FF00000E010E0C8010E94982FD7018D937D0149
:104000000F5F1F4F00331105A9F780917C0390913A
:104010007D03873C944089F180E1ECE7F3E0DF0128
:104020001D928A95E9F787EC94E090937D03809345
:104030007C0380E090E0A0E8BFE380937E03909350
:104040007F03A0938003B093810388E790E090936F
:1040500083038093820390938503809384039093DA
:1040600087038093860390938903809388039093BA
:104070008B0380938A030E940E1A00E020E040E048
:1040800060E070E081EA95E00E94811520E040E068
:1040900061E070E081EA95E00E94811581EA95E097
:1040A0000E94041660E070E080E090E00E94EB1B4C
:1040B0000E94681CE3EFF5E000E010E080818111D0
:1040C0002AC023E1209FC001219F900D1124FC01F3
:1040D000ED50FA4F7F0181E0808385E090E0A0E021
:1040E000B0E081839283A383B4838FEF9FEF9683A5
:1040F000858380E69AE0928781870E94FD13D7012D
:104100001D966D937D938D939C93509752961C9220
:104110001E92519707C00F5F1F4F73960A3011050B
:1041200069F60FEF002E000C110B10936302009341
:1041300062020E94780E8091600290916102009765
:1041400009F058C087E00E94B812892BF1F586E388
:1041500091E00E94D61787E00E94B812892B99F44B
:104160004CE251E068EC70E088EE93E00E94B817F2
:104170004CE251E068EC70E088EE93E00E94B817E2
:104180000E94840E22C01092DC051092DB05109272
:10419000CF051092D0051092D1051092D205109241
:1041A000D3051092D4051092D5051092D605109221
:1041B000D7051092D8051092D9051092DA0582E041
:1041C00090E0909361028093600288E00E94B812B0
:1041D000892B51F48BE291E00E94D61783E090E0A6
:1041E00090936102809360020E94161DFE01319639
:1041F0004F01E6C08230910509F066C00E94FD13B0
:104200004B015C018BEFE82E85E0F82E03EF15E003
:10421000D8012C91222309F44CC01D968D919D91BB
:104220000D90BC91A02DB501A401481B590B6A0B40
:104230007B0BF80181819281A381B48148175907D2
:104240006A077B0700F1213019F0223031F011C0EC
:104250000184F285E02D09950CC061E0F7018081B1
:10426000811160E0D7016C93F701319780810E9442
:10427000E112F80185869686A786B08A818992899F
:104280000196928B818BD80115968D919C911697F2
:1042900097FD0FC051962D913C91529728173907E1
:1042A00044F01C921B96ED91FC911C97309709F0FD
:1042B00009950D5E1F4FB3E1EB0EF11CE6E0013BEB
:1042C0001E0709F0A5CF92CF039709F08DCF0E946A
:1042D0000B1C20E030E040E251E40E94742E87FF86
:1042E00019C00E94301A64E170E080E090E00E9402
:1042F000C3136CE97FEF8CE99FEF0E947B1868EC99
:1043000070E080E090E00E94C31360E070E080E025
:1043100090E025C00E94212B6B017C010E94212B83
:104320004B015C01C701B60124E630E040E050E0FB
:104330000E94E02F6B017C01F2E3CF0ED11CE11C47
:10434000F11CC501B40124E630E040E050E00E94D9
:10435000E02FDC01CB01C296A11DB11DB6010E9468
:104360007B1864E170E080E090E00E94C31388E075
:104370000E94B812892B09F039CF10926102109275
:10438000600283E191E00E94D6170E94301A2ECF7E
:104390008CEA93E00E943C10A091B402E1E0EA0FA5
:1043A000E093B4020A2E000CBB0BAC58BD4F8C93AB
:1043B0008A3069F08091B402803414F01092B40213
:1043C0008CEA93E00E945E10892B11F734C60E2E02
:1043D000000CFF0BEC58FD4F1082809174028D345D
:1043E00009F01FC685E792E00E94442C8C01AE01C3
:1043F000475F5F4F6AE172E085E792E00E946B2CB5
:104400000131110509F4B7C30CF064C00730110580
:1044100009F449C204F50330110509F485C194F487
:104420000130110509F4EAC00CF04DC1012B09F06F
:10443000F8C50E94780E81E090E09093610280932D
:104440006002EFC59A8589850530110509F4F4C12C
:104450000CF4BDC10DC20C30110509F471C27CF51C
:104460000930110509F44BC20CF42CC20B301105B4
:1044700009F0D7C567EF71E08CEA93E00E945E1205
:104480000E94681C609105017091060180910701EE
:10449000909108012FEF3FEFA90120930501309380
:1044A0000601409307015093080140E10E94881AD9
:1044B00063E472E08CEA93E00E944912B2C50E30C8
:1044C000110509F4FEC20CF4BFC20031110509F454
:1044D00015C3A7C5093C110509F418C5CCF405316D
:1044E000110509F41AC43CF40331110509F471C330
:1044F0000CF446C3C4C30E31110509F4BCC4083C16
:10450000110509F4EEC40631110509F08AC570C41D
:10451000063D110509F436C5C4F5013D110509F440
:1045200013C5023D110509F41EC50A3C110509F029
:1045300078C59F928F92CE0103969F938F93029698
:104540009F938F9383E092E09F938F938A858F93BD
:1045500089858F930E94293509811A816B817C811D
:104560008D819E810E947B18B801110F880B990BD9
:104570000E94C31360E070E080E090E00E947B182E
:1045800081E192E00E94361A88C10C3221E01207C4
:1045900009F419C53CF5073D110509F042C59F9284
:1045A0008F9289E092E09F938F938A858F9389857C
:1045B0008F930E94293589819A81909383038093F8
:1045C0008203909385038093840390938703809361
:1045D0008603909389038093880390938B03809341
:1045E0008A03EAC4063341E0140709F4F7C4073E1E
:1045F000134009F016C50C94000013C59F928F92CA
:1046000089E092E09F938F938A858F9389858F931A
:104610000E94293589819A81FC01EE0FFF1FE45722
:10462000FC4FC080D1800D2C000CEE08FF080D96C9
:10463000880F991FFC01E458FC4F40805180052CE5
:10464000000C66087708FC01E153FA4F80810E9454
:10465000AC13092E000CAA0BBB0B9C01AD01241955
:10466000350946095709A8EEB3E00E94FF2FA701BC
:10467000960124193509460957090E94E02F69015E
:104680007A016FED71E08CEA93E00E945E1269811D
:104690007A81072E000C880B990B0F900F900F90CA
:1046A0000F900F900F9097FF03C00E94CB1A03C08A
:1046B0004AE00E94881A6AE172E08CEA93E00E9464
:1046C0005E12C601B6C063EE71E08CEA93E00E9410
:1046D0005E126091DD057091DE058091DF0590919D
:1046E000E00542E00E94041B6AE172E08CEA93E07C
:1046F0000E945E126091E1057091E2058091E305F0
:104700009091E40542E00E94041B6AE172E08CEAA9
:1047100093E00E945E126091E5057091E60580913C
:10472000E7059091E805CBC009851A851A830983AE
:10473000C12CD12C760126013701CB86DC86ED8693
:10474000FE86012B39F1A4016AE172E080E090E07D
:104750000E946B2C8C01DC018C91803549F4C801DE
:1047600001960E94402C6B877C878D879E87E9CFBE
:10477000893439F4C80101960E94402C2B013C0178
:10478000E0CF8434F1F6C80101960E94402C6B0101
:104790007C01D7CF2B853C854D855E852093DD053B
:1047A0003093DE054093DF055093E0054092E1052C
:1047B0005092E2056092E3057092E405C092E5052F
:1047C000D092E605E092E705F092E8052AC49F92B0
:1047D0008F9229E032E03F932F939F938F930E9413
:1047E000293567EE71E08CEA93E00E945E126981E0
:1047F0007A81072E000C880B990B0F900F900F9069
:104800000F900F900F9097FF03C00E94CB1A03C028
:104810004AE00E94881A6AE172E08CEA93E00E9402
:104820005E12E981FA81EE0FFF1FEE57FC4F808187
:1048300091810E94EA1AF5C39F928F929E012D5F8B
:104840003F4F3F932F9326E032E03F932F939F9368
:104850008F930E942935EB81FC81EE0FFF1FEE57ED
:10486000FC4F89819A81918380830E940E1A15C022
:104870009F928F929E012D5F3F4F3F932F9326E093
:1048800032E03F932F939F938F930E942935698144
:104890007A818B819C810E94EB1B0FB6F894DEBF5E
:1048A0000FBECDBFBEC30E940B1C6B017C016BEE23
:1048B00071E08CEA93E00E945E12C701B6010E948B
:1048C000DA1BAFC385E10E94AC138C016FEE71E07F
:1048D0008CEA93E00E945E12B801110F880B990BCD
:1048E0000E947B2E20E030E040E85AE30E94DA2E5E
:1048F00026E636E646EA50E40E94DA2EE0CF8985C5
:104900009A850E94442C8C0163EF71E08CEA93E05D
:104910000E945E120130110511F487E004C00230DC
:10492000110559F488E00E94B81231E020E0892B8B
:1049300009F030E0832F922F7CCF8FEF9FEF79CF5C
:104940009F928F928CEF91E09F938F938A858F93A4
:1049500089858F930E94293549805A80052C000C47
:10496000660877081092700061E083E00E941113DE
:1049700060E083E00E94E11281E08093B00089E072
:104980008093B10082ED8093B30086E48093B400FD
:1049900088E293E20E94831C8091B0008F7D809317
:1049A000B00064E971E180E090E00E9453140F9040
:1049B0000F900F900F900F900F9000E210E0C12C1D
:1049C000D12CE12CF0E8FF2ED701C60184219521DE
:1049D000A621B721892B8A2B8B2B71F080E392E0E3
:1049E0000E94831C8091B0008F7D8093B0006AE9A3
:1049F00076E080E090E00DC080E392E00E94831CAE
:104A00008091B0008F7D8093B00060E372E080E021
:104A100090E00E945314F694E794D794C794015001
:104A2000110991F680E392E00E94831C8091B0000E
:104A30008F7D8093B00065E070E080E090E00E94A0
:104A4000C3130E94681CEDC29F928F92CE01039601
:104A50009F938F9302969F938F9302969F938F932A
:104A600080E092E09F938F938A858F9389858F93BF
:104A70000E942935E980FB801D816F8178850FB602
:104A8000F894DEBF0FBECDBF6115710571F40E2D18
:104A90002F2D412F60E070E081EA95E00E948115A2
:104AA0002F2D412F61E070E005C0615071090E2D7E
:104AB0002F2D412F81EA95E00E94811581EA95E032
:104AC000D7C19F928F9289E092E09F938F938A85BE
:104AD0008F9389858F930E9429351981612F81EAEF
:104AE00095E00E944015612F8CE895E00E944015EA
:104AF000612F87E795E00E9440155EC29F928F92DA
:104B0000CE0103969F938F9302969F938F93029665
:104B10009F938F9380E092E09F938F938A858F93EA
:104B200089858F930E942935E980FB801D816F81E3
:104B300078850FB6F894DEBF0FBECDBF6115710545
:104B400071F40E2D2F2D412F60E070E08CE895E080
:104B50000E9481152F2D412F61E070E005C061504A
:104B600071090E2D2F2D412F8CE895E00E948115A3
:104B70008CE895E07DC189859A850E94D61751C23F
:104B80009F928F92CE0103969F938F9386E092E03F
:104B90009F938F938A858F9389858F930E94293560
:104BA00049815A816B817C81072E000C880B990BFF
:104BB0000FB6F894DEBF0FBECDBF6115710581053C
:104BC000910521F4BA0180E090E056C00E940417DC
:104BD00028C29F928F92CE0103969F938F9386E077
:104BE00092E09F938F938A858F9389858F930E94FC
:104BF00029356B817C8165547109072E000C880B67
:104C0000990B0E947B2E20E030E040E451E40E94AA
:104C1000C5309B01AC0160E070E080E090E40E9450
:104C2000723129813A814DE7429F8001439F100DE7
:104C3000112420E030E04CED53E40E94DA2E0E9473
:104C40003731072E000C880B990B0FB6F894DEBF96
:104C50000FBECDBF611571058105910531F4B80115
:104C600080E090E00E94C31303C0A8010E940417D3
:104C7000B801110F880B990B0E94C313D2C109858B
:104C80001A850E94DC1C81E0809360051092620509
:104C900081E090E090935F0580935E0590935D05C1
:104CA00080935C05F80101900020E9F731979F019E
:104CB000201B310B4BEF42037001439FF00C11247A
:104CC000FAE0EF1AF1087FE0C72ED12CCE14DF04F2
:104CD0000CF1E6E6F5E01192119225E0E637F207D5
:104CE000D1F7D0925905C092580510925B051092E9
:104CF0005A05B8018CE495E00E945E120E94B11C36
:104D000064E670E080E090E00E94C31331E0C31AD3
:104D1000D108DCCF8DE092E082C1E984FA8487017A
:104D20000D5F1F4F64E6C62E62E0D62E43E2E40E0E
:104D3000F11CF801339780818093020131968081C4
:104D4000809303013196808180930001D8018C917A
:104D50008093010140E150E060E070E080E091E08C
:104D60000E942F2BF601619371936F010C5F1F4F0F
:104D70000E151F05F1F60E94DC1CE6E6F5E0119227
:104D8000119225E0E637F207D1F7B12CE12CF12C96
:104D90006701CC0CDD1C00E010E0C801877099278A
:104DA000892B11F0BB0C0BC0F80153E0F595E7958A
:104DB0005A95E1F7EC0DFD1DEC59FD4FB080B7FEA3
:104DC00008C021E030E0A701B8018CE495E00E9422
:104DD0006A080F5F1F4F00311105F9F63FEFE31A24
:104DE000F30A48E0E416F10499F60E94B11C19C1D7
:104DF0009F928F92CE0103969F938F9302969F93DB
:104E00008F9302969F938F9380E092E09F938F936E
:104E10008A858F9389858F930E942935C980DB808D
:104E20001D816F8178850FB6F894DEBF0FBECDBFB0
:104E30006115710591F4E12CF12C0C2D2D2D412FD4
:104E4000B70187E795E00E9481159FEFE91AF90AFB
:104E5000A0E1EA16F10489F709C0615071090C2D2F
:104E60002D2D412F87E795E00E94811587E795E07A
:104E70000E940416D6C09F928F92CE0103969F93F4
:104E80008F9302969F938F9383E092E09F938F93EB
:104E90008A858F9389858F930E94293509811A818C
:104EA000FB80ED8061E08CE00E94111361E08BE0FB
:104EB0000E9411136E2D8CE00E94E1126F2D8BE089
:104EC0000E94E112B801110F880B990B0E94C313C5
:104ED00061E08CE00E94E11261E08BE00E94E1124F
:104EE000DCCC9F928F92CE0103969F938F9386E0A6
:104EF00092E09F938F938A858F9389858F930E94E9
:104F0000293569817A818B819C811BC09F928F9208
:104F1000CE0103969F938F9386E092E09F938F93A9
:104F20008A858F9389858F930E94293589819A81FB
:104F3000880F991F2B813C81B901681B790B820F67
:104F4000931F0E947B18A9CC89859A850E94402CCA
:104F500060937E0370937F0380938003909381031B
:104F60000E940E1A5EC066E172E08CEA93E00E9435
:104F70005E1260917E0370917F0380918003909117
:104F800081039DCC9F928F92CE0103969F938F9326
:104F900086E092E09F938F938A858F9389858F9384
:104FA0000E94293589819A81880F991F2B813C8124
:104FB000BC01621B730BC3CF0F900F900F900F902B
:104FC0000F900F902EC00E94301A8BE60E94491A53
:104FD0008F3FBFEF9B0709F042C030C00E94840E94
:104FE00020C03FEF231A330A46E02416310409F0AB
:104FF0003FC120E030E040E85FE3C701B6010E9416
:10500000593060937E0370937F0380938003909365
:1050100081030E940E1A0E94301A8CE192E00E94D5
:10502000361A80E4E4E7F2E0DF011D928A95E9F7A1
:105030001092B402BFC90E94FE107DC88AE60E9489
:10504000491A8F3FBFEF9B0769F489E60E94491A0E
:10505000833D910509F02BC121E030E025C121E01D
:1050600030E002C020E030E0873D910509F417C12F
:1050700081E090E09093CA058093C905AC0141504E
:1050800051094230510538F42130310511F02AE63A
:1050900008C02BE606C02130310511F028E601C01A
:1050A00029E62093CB05029721F460E089E30E9472
:1050B000281960E083E20E9428196FE680E20E94CE
:1050C000281985E1E82EF12C10E000E0B12CA12C8C
:1050D000E1E0EE1AF10879F10E948E1923E333E33F
:1050E00043E35FE3612F702F8B2D9A2D0E94DA2E00
:1050F0002B013C016091C6057091C705072E000C7D
:10510000880B990B0E947B2E2AE939E949E95EE375
:105110000E94DA2E9B01AC01C301B2010E945930FA
:10512000162F072FB82EA92E62E370E080E090E0E2
:105130000E94C313CDCF1F87088BB98AAA8A0E9409
:10514000FD132B013C0120E030E040E85FE32093B9
:105150007E0330937F03409380035093810368E77D
:1051600070E088E790E00E947B18C12CD12C76017A
:10517000212C312C0E948E1923E333E343E35FE3B8
:10518000612F702F8B2D9A2D0E94DA2E6B877C87D2
:105190008D879E876091C6057091C705072E000C0C
:1051A000880B990B0E947B2E2AE939E949E95EE3D5
:1051B0000E94DA2E9B01AC016B857C858D859E85D6
:1051C0000E945930162F072FB82EA92E62E370E0E7
:1051D00080E090E00E94C3130E94FD13DC01CB012C
:1051E00084199509A609B70985369105A105B10568
:1051F00008F22F85388949895A89612F702F8B2DA4
:105200009A2D0E9458306B877C878D879E870E94DD
:10521000FD132B013C0120E030E04AE754E46B85AC
:105220007C858D859E850E946D3118164CF42AE090
:1052300037ED43EA5CE3C701B6010E94593014C060
:1052400020E030E04AE754EC6B857C858D859E85B7
:105250000E94742E87FFC5CE2AE037ED43EA5CE357
:10526000C701B6010E9458306B017C01212C312C02
:1052700020E030E040E85FE3C701B6010E9459300A
:1052800060937E0370937F038093800390938103E8
:1052900068E770E088E790E00E947B186BCF82E0BF
:1052A00090E0E8CE20E030E080E090E0E3CE88E6D9
:1052B0000E94491A833D9105A9F381E292E0AFCEA5
:1052C00087E795E00E944C0A8CE895E00E944C0A22
:1052D00081EA95E00C944C0ACF92DF92EF92FF9214
:1052E000CF93DF931092AF031092AE0388EEC82ED7
:1052F00083E0D82EE12CF12CC092B003D092B10300
:10530000E092B203F092B3038BE891E09093AD0387
:105310008093AC0385EC90E09093B9038093B8033D
:1053200084EC90E09093BB038093BA0380EC90E010
:105330009093BD038093BC0381EC90E09093BF03F6
:105340008093BE0382EC90E09093C1038093C003EE
:1053500086EC90E09093C3038093C2031092C50340
:105360001092C6031092C7031092C80310924C0407
:1053700010924B04C0924D04D0924E04E0924F0420
:10538000F09250048BE991E090934A048093490491
:105390001092A2051092A8051092AA051092A905D4
:1053A0001092AF051092B0051092B1051092B2059F
:1053B000C1E0C093AE05C093AB051092AC05D2E03E
:1053C000D093AD05C093A10562E070E081EA95E05D
:1053D0000E94CA1666E081EA95E00E94D2151092FA
:1053E0008D051092930510929505109294051092D8
:1053F0009A0510929B0510929C0510929D05C093F2
:105400009905C093960510929705D0939805C0937F
:105410008C0562E070E08CE895E00E94CA1666E0B8
:105420008CE895E00E94D2151092780510927E05C6
:105430001092800510927F051092850510928605C6
:105440001092870510928805C0938405C09381054A
:1054500010928205D0938305C093770560E170E0D8
:1054600087E795E00E94CA1666E087E795E00E940C
:10547000D21510924F0510924E0520E130E0309386
:1054800051052093500588E090E090935305809358
:1054900052053093550520935405909357058093FA
:1054A00056051092610510925905109258051092F8
:1054B0005B0510925A05C09360058FEF9FEF9093A4
:1054C0005F0580935E0590935D0580935C05C093B6
:1054D00062051092630510926505109264058BEACF
:1054E00091E090934D0580934C05D0937A041092EF
:1054F0007C041092B9051092B805C092BA05D092FA
:10550000BB05E092BC05F092BD0583ED91E0909360
:10551000B7058093B605E3EFF5E01082739686E059
:10552000E13BF807D1F780E090E0A4EBB2E4809390
:10553000DD059093DE05A093DF05B093E0058AE9D1
:1055400099E9A9E1BEE38093E1059093E205A09378
:10555000E305B093E40580E090E0A6E9B4E480932D
:10556000E5059093E605A093E705B093E8058AE08A
:10557000EFE6F1E0A9EEB5E001900D928A95E1F732
:1055800083E090E09093CA058093C9051092CD0501
:105590001092CC051092CE05DF91CF91FF90EF9045
:1055A000DF90CF9008958F929F92AF92BF92CF924B
:1055B000DF92EF92FF92CF93DF93EC0168817981C4
:1055C0008A819B81611571058105910521F464E251
:1055D00079ED8BE597E02DE133EF41E050E00E945B
:1055E000E02F49015A019B01AC01A7EAB1E40E94F6
:1055F000FF2F6B017C01ACEEB4EFA50194010E947A
:105600000D30DC01CB018C0D9D1DAE1DBF1DB7FF04
:1056100003C00197A109B04888839983AA83BB83FB
:10562000BC01CD019F77DF91CF91FF90EF90DF908C
:10563000CF90BF90AF909F908F9008950E94D32AF3
:10564000089589E091E00E94D32A089560930901AA
:1056500070930A0180930B0190930C010895A0E0D0
:10566000B0E0E5E3FBE20C9412305C016B017A01DF
:105670006115710519F0FB0191838083E114F10438
:1056800029F0C7010297839708F0F1C0E501219640
:10569000F5011081812F90E00E94622C892B11F07E
:1056A0005E01F4CF1D3229F42196F501118101E04C
:1056B00007C01B3221F4E5012296F501118100E0BB
:1056C000E114F10459F1F0E1EF16F10461F4103343
:1056D000E1F488818F7D883569F519812296026011
:1056E00070E1E72EF12C88E0E816F10439F12CF492
:1056F000F2E0EF16F104C9F12AC08AE0E816F104DD
:1057000079F0E0E1EE16F10411F550E1E52EF12C0F
:10571000812C912CA12C68E0B62E2CC01033C9F23C
:105720003AE0E32EF12C4CEC842E982CA82C4CE083
:10573000B42E20C010E3E114F104A9F698E0E92E9C
:10574000F12C812C912CA12C20E1B22E13C060E011
:1057500070E080E090E897010F2C000C440B550B93
:105760000E94BE2F49015A0105C0812C912CA12C09
:1057700080E4B82E60E020E030E0A90127010F2C82
:10578000000C660877081E01E0EDE10FEA3060F0DA
:105790008FEB810F8A3110F4E9EC05C08FE9810F9E
:1057A0008A3128F5E9EAE10F8E2F90E08E159F05EA
:1057B000F4F467FD18C082169306A406B50690F0AF
:1057C000C301B2010E94AE2F9B01AC012E0F311D0F
:1057D000411D511D213031054105F0E85F0710F4EE
:1057E00061E001C06FEF2196F1011081CCCF802FD5
:1057F0008170C114D10471F0662329F02197F6015C
:10580000D183C08307C001FF19C02297F601D1835D
:10581000C08314C067FF12C0811105C02FEF3FEF96
:105820004FEF5FE704C020E030E040E050E882E264
:1058300090E09093C2068093C10616C0882341F081
:1058400050954095309521953F4F4F4F5F4F0CC07D
:1058500057FF0AC082E290E09093C2068093C1068F
:105860002FEF3FEF4FEF5FE7B901CA0104C060E0DF
:1058700070E080E090E0CDB7DEB7E2E10C942E302E
:10588000662777270C94EC2CFC0188279927E8944D
:1058900021912032E9F3293010F02E30C8F32B3259
:1058A00041F02D3239F4689404C00E94A82C820F74
:1058B000911D219120532A30C0F31EF490958195BB
:1058C0009F4F089591110C94492E803219F0895000
:1058D0008550C8F70895FA01A191B081009719F495
:1058E0001097E1F0CD01DC01CD010D90002011F405
:1058F000C00113C0FB012191222319F02015D9F713
:10590000F3CFFB012191201519F41E92119606C0C8
:105910002223C1F70D900020A1F7D001FA01A19335
:10592000B08308954532510520F4423010F00C94B4
:105930009D2CFB011082CB010895BB274A3031F426
:10594000992322F4BDE2909581959F4F0C94D32C1E
:105950007AE0979F902D879F802D910D11240895B7
:10596000BB27FA01A62F6217710581059105330B3C
:1059700030FB66F0AA27660F771F881F991FAA1FA2
:10598000A21710F0A21B63953850A9F7A05DAA33A7
:1059900008F0A95DA19336F7B111B1931082CA0145
:1059A0000C94642EBB27FB015527AA27880F991F4B
:1059B000AA1FA41710F0A41B83955051B9F7A05D3E
:1059C000AA3308F0A95DA193009779F7B111B193BB
:1059D0001192CB010C94642EA0E0B0E0E2EFFCE267
:1059E0000C941630EC017B016115710519F0DB0197
:1059F0008D939C938E010F5F1F4F7880872D90E0D1
:105A00000E94622C892B11F0E801F4CFBDE27B12D9
:105A100005C00F5F1F4F7980C1E008C0EBE27E1226
:105A200004C08E010E5F1F4F7980C0E06801F1E075
:105A3000CF1AD10843E050E062EF70E0C6010E9447
:105A40004C2E892BF1F4680122E0C20ED11C45E0F6
:105A500050E06DEE70E0C6010E944C2E892B21F4BF
:105A6000680187E0C80ED11CE114F10419F0D701D8
:105A7000CD92DC92C111FFC060E070E080E89FE74A
:105A800003C143E050E06AEE70E0C6010E944C2E74
:105A9000892B51F4E114F10409F4F2C00E5F1F4F99
:105AA000F70111830083ECC0680160E070E0CB0176
:105AB00000E010E0F601D0EDD70DDA3058F52C2FCC
:105AC0002260622E2C2F2870C2FF05C0211128C031
:105AD0000F5F1F4F25C0222311F001501109A5E0CF
