:100000000C9448030C9470030C9470030C947003CC
:100010000C9470030C9470030C9470030C946A128B
:100020000C9470030C9470030C9470030C94611482
:100030000C9470030C9470030C9470030C94700374
:100040000C94E4130C9470030C94DF110C94B9110C
:100050000C9470030C9470030C9470030C94700354
:100060000C94A30C0C94700307634236B79BD8A77B
:100070001A39685618AEBAAB558C1D3CB7CC5763CD
:10008000BD6DEDFD753EF6177231BF000000803F7B
:1000900008000000BE922449123EABAAAA2ABECD97
:1000A000CCCC4C3E00000080BEABAAAAAA3E000009
:1000B0000000BF000000803F000000000008417801
:1000C000D3BB4387D1133D190E3CC3BD4282AD2B38
:1000D0003E68EC8276BED98FE1A93E4C80EFFFBE30
:1000E00001C4FF7F3F00000000004E414E494E49D1
:1000F0005459494E46CDCCCC3D0AD7233C17B7D1F5
:100100003877CC2B329595E6241FB14F0A0000209A
:10011000410000C84200401C4620BCBE4CCA1B0E19
:100120005AAEC59D746364696E6F70737578585B61
:100130000000000000003E5B4F5B3E3E6B4F6B3E9D
:100140001C3E7C3E1C183C7E3C181C577D571C1CDA
:100150005E7F5E1C00183C1800FFE7C3E7FF001835
:10016000241800FFE7DBE7FF30483A060E2629791E
:100170002926407F050507407F05253F5A3CE73C7F
:100180005A7F3E1C1C08081C1C3E7F14227F221430
:100190005F5F005F5F06097F017F006689956A6087
:1001A0006060606094A2FFA29408047E040810209E
:1001B0007E201008082A1C08081C2A08081E101097
:1001C00010100C1E0C1E0C30383E3830060E3E0E41
:1001D00006000000000000005F00000007000700AC
:1001E000147F147F14242A7F2A1223130864623692
:1001F000495620500008070300001C22410000411E
:10020000221C002A1C7F1C2A08083E080800807057
:10021000300008080808080000606000201008048A
:10022000023E5149453E00427F40007249494946DD
:100230002141494D331814127F1027454545393C5B
:100240004A49493141211109073649494936464948
:1002500049291E000014000000403400000008146A
:1002600022411414141414004122140802015909E3
:10027000063E415D594E7C1211127C7F4949493638
:100280003E414141227F4141413E7F494949417FB1
:10029000090909013E414151737F0808087F004167
:1002A0007F41002040413F017F081422417F4040B0
:1002B00040407F021C027F7F0408107F3E41414185
:1002C0003E7F090909063E4151215E7F09192946F1
:1002D000264949493203017F01033F4040403F1F07
:1002E0002040201F3F4038403F631408146303043C
:1002F0007804036159494D43007F4141410204089C
:100300001020004141417F0402010204404040406E
:1003100040000307080020545478407F28444438A4
:100320003844444428384444287F385454541800EE
:10033000087E090218A4A49C787F0804047800446D
:100340007D40002040403D007F1028440000417F58
:1003500040007C047804787C0804047838444444E1
:1003600038FC1824241818242418FC7C08040408D9
:10037000485454542404043F44243C4040207C1CF2
:100380002040201C3C4030403C44281028444C90E5
:1003900090907C4464544C4400083641000000773F
:1003A0000000004136080002010204023C26232618
:1003B0003C1EA1A161123A4040207A38545455594C
:1003C0002155557941225454784221555478402082
:1003D000545579400C1E527212395555555939549D
:1003E00054545939555454580000457C4100024535
:1003F0007D420001457C407D1211127DF0282528A8
:10040000F07C545545002054547C547C0A097F49A3
:1004100032494949323A4444443A324A4848303AE7
:100420004141217A3A42402078009DA0A07D3D4282
:1004300042423D3D4040403D3C24FF2424487E490B
:1004400043662B2FFC2F2BFF0929F620C0887E093D
:100450000320545479410000447D413048484A32D9
:10046000384040227A007A0A0A727D0D19317D26C1
:1004700029292F28262929292630484D40203808A7
:1004800008080808080808382F10C8ACBA2F102828
:1004900034FA00007B000008142A142222142A14C3
:1004A000085500550055AA55AA55AAFF55FF55FFF6
:1004B000000000FF00101010FF00141414FF0010C3
:1004C00010FF00FF1010F010F0141414FC001414AE
:1004D000F700FF0000FF00FF1414F404FC141417CD
:1004E000101F10101F101F1414141F00101010F0F4
:1004F000000000001F101010101F10101010F0103E
:10050000000000FF101010101010101010FF10004D
:100510000000FF140000FF00FF00001F1017000084
:10052000FC04F414141710171414F404F40000FF5E
:1005300000F714141414141414F700F714141417F7
:100540001410101F101F141414F4141010F010F0D5
:1005500000001F101F0000001F14000000FC14000A
:1005600000F010F01010FF10FF141414FF141010FE
:10057000101F00000000F010FFFFFFFFFFF0F0F081
:10058000F0F0FFFFFF0000000000FFFF0F0F0F0F54
:100590000F3844443844FC4A4A4A347E0202060674
:1005A000027E027E0263554941633844443C044064
:1005B0007E201E2006027E020299A5E7A5991C2A2C
:1005C000492A1C4C7201724C304A4D4D30304878EB
:1005D0004830BC625A463D3E494949007E0101010E
:1005E0007E2A2A2A2A2A44445F444440514A4440ED
:1005F00040444A51400000FF0103E080FF00000832
:10060000086B6B083612362436060F090F060000F9
:1006100018180000001010003040FF0101001F01F9
:10062000011E00191D1712003C3C3C3C000000005C
:100630000000000000240027002A0000000008003D
:100640000201000003040700000000000000000099
:1006500000000023002600290001020408102040A9
:10066000800102040810200102040810200000008C
:1006700000250028002B00040404040404040402E0
:10068000020202020203030303030302B62BAA2B96
:1006900011241FBECFEFD8E0DEBFCDBF12E0A0E037
:1006A000B1E0E0E6F5E702C005900D92A236B10791
:1006B000D9F726E0A2E6B2E001C01D92A73DB2073D
:1006C000E1F713E0C7E4D3E004C02197FE010E94E4
:1006D0006135C634D107C9F70E944E210C94A33A64
:1006E0000C9400000895FC016370658B84819581F2
:1006F00026813781613039F0633029F09187808716
:1007000033872287089531872087938782870895CA
:100710002F923F924F925F926F927F928F929F9211
:10072000AF92BF92CF92DF92EF92FF920F931F93FF
:10073000CF93DF93CDB7DEB76C970FB6F894DEBFDB
:100740000FBECDBF9C8F8B8F5B011A011F830E8361
:100750003701C982DC0158964D915C91599741153A
:10076000510509F0E5C018968D919C91199768176D
:1007700079070CF0CAC11A968D919C911B97281687
:1007800039060CF0C2C18C2C912CFB0136E0C39EC3
:10079000E00DF11D1124FB87EA871E161F060CF0E1
:1007A000B4C1C40133E0880F991F3A95E1F79D87E2
:1007B0008C87820D931D181619060CF0A6C157964A
:1007C0008C91811103C0203B08F02F5FAB8DBC8D55
:1007D000ED91FC9111970680F781E02DCD012A8FD4
:1007E00009952A8DB5E02B9F90011124F5013596CE
:1007F000FF87EE87BB82AA822501A9014A195B09FE
:10080000598B488BC10108969B8B8A8BE889F989A3
:10081000E40DF51DEF5CFE4F9491988761013D82D8
:100820002C82A885A0FF13C0AB8DBC8DED91FC91EF
:10083000B981B13031F40084F185E02D2E813F8102
:1008400016C00284F385E02DEE80FF801AC0EE8191
:10085000FF816E167F06F1F0AB8DBC8DED91FC91A2
:10086000B981B13051F40084F185E02D9301A601E6
:10087000B2018B8D9C8D09950DC00284F385E02D0E
:100880007301840194014C815D816A817B818B8D30
:100890009C8D0995E885E695E887FFEFCF1ADF0A7A
:1008A0002C813D81280D391D3D832C834A895B892C
:1008B000C416D50609F0B5CF5FEF451A550A8A81EF
:1008C0009B81880D991D9B838A83AE85BF854A16BF
:1008D0005B0609F09BCFEE81FF816E167F0609F45F
:1008E000F2C0EB8DFC8DA081B181F981F13079F4FA
:1008F000B5016B5F7F4F1C96ED91FC911D978301B5
:1009000028E030E0A1018B8D9C8D0995DCC06A85C3
:100910007B85681979091A96ED91FC911B977301F3
:100920000C851D859401A1018B8D9C8D0995CBC0F3
:10093000FA0134969491329765917491291BCB01F9
:10094000B7E02B9F800D911D1124FA012591349160
:100950003B8B2A8BFC01459154915B834A83FC01BC
:100960003296C490319654915E87329614913196A6
:10097000D4908981823058F0612E012E000C7708C6
:10098000AD2D0D2C000CBB0BB987A88704C01986B0
:100990001886612C712CAB8DBC8DED91FC9111975B
:1009A0000680F781E02DCD010995B9818B2E912C20
:1009B000689CC001699C900D789C900D1124FC01ED
:1009C000EA0DFB1DFD87EC871C82712C612CE12F49
:1009D000110FFF0B95012E0F3F1F3B872A87AC0C91
:1009E000B11CA5014E0F5F1F5F8B4E8BC1018D0D9A
:1009F000911DD7FC9A95998F888F4E85641608F0C3
:100A000062C0862D90E048855985480F591F489D42
:100A10009001499D300D589D300D1124D901A20D32
:100A2000B31DB98BA88BAA84BB844C845D84DC8005
:100A3000BA85DB1AE88DF98DE80FF91FFD8BEC8B79
:100A40008D2D8A0D2E893F89A216B306B9F18770C4
:100A500061F48A819B810196EA89FB89AA81BB8125
:100A6000EA0FFB1F74909B838A8377FE20C0AB8DB7
:100A7000BC8DED91FC91B981B13061F40084F185B8
:100A8000E02D2E813F814C895D89B5018B8D9C8D38
:100A900009950DC00284F385E02DEE80FF8084016E
:100AA000940148895989B2018B8D9C8D0995770CE9
:100AB000EFEFAE1ABE0A480C591CC2CF3C813C0D68
:100AC0003C8363949ACFAB8DBC8DED91FC911197D3
:100AD0000288F389E02DCD016C960FB6F894DEBF45
:100AE0000FBECDBFDF91CF911F910F91FF90EF907F
:100AF000DF90CF90BF90AF909F908F907F906F903E
:100B00005F904F903F902F9009946C960FB6F89499
:100B1000DEBF0FBECDBFDF91CF911F910F91FF9030
:100B2000EF90DF90CF90BF90AF909F908F907F908D
:100B30006F905F904F903F902F900895AF92BF922B
:100B4000CF92EF92FF920F931F93CF93DF93EC011D
:100B5000262F888D998D009709F040C06A3059F48E
:100B60001D861C862C898E859F8538E0239F800DED
:100B7000911D112441C06D3009F4AAC08E898823CB
:100B8000C1F03C898C859D8546E0349F800D911D88
:100B9000112448855985481759075CF41D861C8621
:100BA0008E859F8548E0349F800D911D11249F877D
:100BB0008E87EA88FB88088919894E855F856C8550
:100BC0007D85CC88CE010E9488032C898C859D85EB
:100BD00036E0239F800D911D112442C06A3079F4C4
:100BE0001D861C862C89FC013696E4918E859F8596
:100BF0002E9F800D911D11249F878E8769C06D30B7
:100C000009F466C0FC0134963491631708F460C09F
:100C10003196E491E61708F45BC0FC013296A5908A
:100C2000B490462F50E0431B510937E0349FB00188
:100C3000359F700D1124A60EB71EF5013296349122
:100C40003196E491332311F0E1110DC0F501349692
:100C5000E4912C898C859D85E29F800D911D112446
:100C60009D878C8735C0F501359644915E89552363
:100C700011F16C89E32FF0E0E40FF11D47FDFA95C7
:100C80006E9FD0016F9FB00D11244C855D854A0F7A
:100C90005B1FE885F985E417F5076CF41D861C8653
:100CA000FC013696E4918E859F856E9F800D911D87
:100CB00011249F878E87EA88FB88088919894E85C9
:100CC0005F856C857D85CC88CE010E948803BECF70
:100CD00081E090E0DF91CF911F910F91FF90EF9015
:100CE000CF90BF90AF9008956F927F928F929F9216
:100CF000AF92BF92CF92DF92EF92FF920F931F932A
:100D0000CF93DF93EC014B015A0169013801E8816F
:100D1000F9810680F781E02D0995E881F981068443
:100D2000F785E02D87019601A501B401CE01099553
:100D3000E881F981A501460D571D415051090684EE
:100D4000F785E02D9601B401CE010995E881F9817E
:100D50000484F585E02D9301A501B401CE01099528
:100D6000E881F981C80CD91CB6016150710904846D
:100D7000F585E02D9301A501CE010995E881F98162
:100D80000288F389E02DCE01DF91CF911F910F9161
:100D9000FF90EF90DF90CF90BF90AF909F908F909B
:100DA0007F906F900994CF92DF92EF92FF920F9312
:100DB0001F93CF93DF9300D000D000D0CDB7DEB724
:100DC0006C01DC01ED91FC916217730789F4041743
:100DD00015072CF4942F852FA801092F182F041B19
:100DE000150B98012F5F3F4F008CF18DE02D12C045
:100DF0004017510709F5261737072CF4962F872F30
:100E0000B901292F382F261B370B2F5F3F4F028C3C
:100E1000F38DE02D8701C601099526960FB6F8944B
:100E2000DEBF0FBECDBFDF91CF911F910F91FF901D
:100E3000EF90DF90CF9008950680F781E02D2D830D
:100E40003E834B835C8369837A830995D601ED9158
:100E5000FC910088F189E02D2D813E814B815C81E0
:100E600069817A81C6010995D601ED91FC910288CC
:100E7000F389E02DC60126960FB6F894DEBF0FBEAB
:100E8000CDBFDF91CF911F910F91FF90EF90DF9039
:100E9000CF900994EF92FF920F931F93DC01ED9195
:100EA000FC9111971A960D911C911B9718962D91F4
:100EB0003C911997048CF58DE02D7B0140E050E0CA
:100EC00060E070E009951F910F91FF90EF900895F9
:100ED0004F925F926F927F928F929F92AF92BF924A
:100EE000CF92DF92EF92FF920F931F93CF93DF93F6
:100EF00000D0CDB7DEB76C015A0139014801DC01E1
:100F0000ED91FC910680F781E02D69837A83099544
:100F10006981462E7A81572E640C751CD601ED919D
:100F2000FC91461457046CF40484F585E02D870188
:100F30009401A501B201C6010995BFEF4B1A5B0AE6
:100F4000EDCF0288F389E02DC6010F900F90DF915D
:100F5000CF911F910F91FF90EF90DF90CF90BF90B6
:100F6000AF909F908F907F906F905F904F9009947B
:100F7000AF92BF92CF92DF92EF92FF920F931F93A7
:100F8000CF93DF9300D000D0CDB7DEB75C0169010D
:100F9000DC01ED91FC910680F781E02D4B835C83B1
:100FA00069837A830995D501ED91FC9169817A81F4
:100FB0009B012C0D3D1D215031090088F189E02D48
:100FC00078014B815C818A01C5010995D501ED91BC
:100FD000FC910288F389E02DC5010F900F900F90CE
:100FE0000F90DF91CF911F910F91FF90EF90DF90C5
:100FF000CF90BF90AF900994AF92BF92CF92DF9203
:10100000EF92FF920F931F93CF93DF9300D000D006
:10101000CDB7DEB75C016901DC01ED91FC91068082
:10102000F781E02D4B835C8369837A830995D50131
:10103000ED91FC914B815C81C40ED51EB1E0CB1AC1
:10104000D1080088F189E02D7801860169817A81D3
:101050009B01C5010995D501ED91FC910288F389A9
:10106000E02DC5010F900F900F900F90DF91CF9161
:101070001F910F91FF90EF90DF90CF90BF90AF90B6
:1010800009940895EF92FF920F931F93DC01ED9165
:10109000FC91048CF58DE02D09951F910F91FF9027
:1010A000EF9008950F931F93DC01ED91FC91028C5A
:1010B000F38DE02D09951F910F9108950F931F93C4
:1010C000DC01ED91FC91008CF18DE02D09951F91D3
:1010D0000F910895DC01ED91FC910480F581E02DE4
:1010E000099408952F923F924F925F926F927F9250
:1010F0008F929F92AF92BF92CF92DF92EF92FF9228
:101100000F931F93CF93DF9300D01F92CDB7DEB71D
:101110004C017B836A836A01590117019801241BE2
:10112000350B37FF03C0319521953109C5014A813F
:101130005B81841B950B97FF03C091958195910965
:1011400051E059838217930714F019820BC09A2D2E
:101150008B2D5801092F182F9A818B81DB82CA822F
:10116000C92ED82E8A819B81A816B9065CF49C2DC5
:101170008D2D6801092F182F9A818B81BB82AA823D
:10118000A92EB82E2501AA81BB814A1A5B0A380113
:101190006C187D0877FE03C0719461947108720128
:1011A00057FE03C0BFEFEB1AFB0AF594E794C01695
:1011B000D1061CF00FEF1FEF1FC001E010E01CC0B4
:1011C000D401ED91FC91B9810084F185E02D91016C
:1011D000BB23C1F04A815B81B601C4010995E618C1
:1011E000F708F7FE04C0C00ED11EE40CF51CEA811E
:1011F000FB813196FB83EA834A815B81A416B506A5
:10120000FCF604C0A6016A817B81E7CF0F900F90A6
:101210000F90DF91CF911F910F91FF90EF90DF9092
:10122000CF90BF90AF909F908F907F906F905F9086
:101230004F903F902F90089548305105F0F4603161
:101240007105D8F4440F551FFC01E40FF51F81E030
:1012500090E002C0880F991F6A95E2F7232B29F0CE
:10126000228D338D822B932B06C080959095228DF5
:10127000338D82239323938F828F08950895FC01E9
:1012800024A535A5231728F4E20FF11D848590E0ED
:1012900008958FEF9FEF0895FC0194A585A59817F9
:1012A00048F4DF01A90FB11D1C962C9130E09F5F1F
:1012B00094A702C02FEF3FEFC9010895FC0125A5B7
:1012C00030E084A5A901481B5109CA010895CF92B5
:1012D000DF92EF92FF920F931F93CF93DF936C01F6
:1012E000EB017B01E40EF51E00E010E0CE15DF05FA
:1012F00061F06991D601ED91FC910190F081E02DB2
:10130000C6010995080F191FF1CFC801DF91CF91D0
:101310001F910F91FF90EF90DF90CF90089585ED92
:101320008093BC008091BC0084FDFCCF10925203DE
:1013300008954091DB02262F30E0240F311D213229
:101340003105DCF4209152032430C9F4FC0180E023
:1013500090E0861758F43091DB022191DC01A7540C
:10136000BD4FA30FB11D2C930196F3CF8091DB02EB
:10137000680F6093DB0280E0089581E0089582E0C9
:1013800008950895E0910B0380910A03E81730F463
:10139000F0E0E45FFC4F808190E008958FEF9FEFD5
:1013A000089590910B0380910A03981750F4E92F48
:1013B000F0E0E45FFC4F208130E09F5F90930B03EF
:1013C00002C02FEF3FEFC901089580910A0390E01A
:1013D00020910B03821B91090895CF92DF92EF9227
:1013E000FF920F931F93CF93DF937C01262F972FAC
:1013F0008A0180915303882391F0C62FD72F6E0165
:10140000C40ED51ECC15DD0571F06991D701ED91A3
:10141000FC910190F081E02DC7010995F3CF642F75
:10142000822F0E949909C801DF91CF911F910F91DE
:10143000FF90EF90DF90CF900895CF93DF931F92AE
:10144000CDB7DEB76983209153032223D1F02091D9
:101450007603203240F021E030E0FC013383228328
:1014600080E090E015C080915403E82FF0E0EB5A43
:10147000FC4F998190838F5F809354038093760310
:1014800005C061E0CE0101960E94990981E090E0DB
:101490000F90DF91CF910895CF93DF93EC01888572
:1014A0009985009711F00E94FC358E8187FD05C05B
:1014B00060E0DF91CF910C94EC12DF91CF91089511
:1014C0004F925F926F927F928F929F92AF92BF9254
:1014D000CF92DF92EF92FF92CF93DF9300D000D0B4
:1014E00000D0CDB7DEB787EB92E00E94511E882373
:1014F00011F08F31B1F48091DD059091DE050196F8
:101500009093DE058093DD0564EC7FEF84EC9FEF24
:101510000E94011ECE0101960E94511E8E70D1F3D1
:101520001AC1813069F46CE370E084EC9FEF0E9493
:10153000011ECE0101960E94511E8E70D1F30BC187
:10154000803169F464EC7FEF8CE390E00E94011E2F
:10155000CE0101960E94511E8E70D1F3FCC020E096
:1015600030E040E05FE36091D1057091D205809159
:10157000D3059091D4050E9424316B017C018091A8
:10158000B7029091B802BC01990F880B990B0E9489
:10159000C53020E030E040E05FE30E9424319B0151
:1015A000AC01C701B6010E94A3324B015C016093FC
:1015B000D1057093D2058093D3059093D4052091E3
:1015C000D5053091D6054091D7055091D8050E9498
:1015D000A2326B837C838D839E832091D9053091C9
:1015E000DA054091DB055091DC05C501B4010E948C
:1015F000A3326B017C0120E030E048E452EC0E9411
:10160000BE3087FD11C020E030E048E452E4C7015D
:10161000B6010E94B73318166CF4C12CD12C28E403
:10162000E22E22E4F22E06C0C12CD12C38E4E32EA7
:1016300032ECF32EC092D905D092DA05E092DB05A8
:10164000F092DC052091DF053091E0054091E10545
:101650005091E205C501B4010E9424312B013C01E7
:101660002091E3053091E4054091E5055091E605B0
:10167000C701B6010E9424319B01AC01C301B20134
:101680000E94A3326B017C012091E7053091E805AF
:101690004091E9055091EA056B817C818D819E81A5
:1016A0000E9424319B01AC01C701B6010E94A33204
:1016B0006B017C018092D5059092D605A092D7054A
:1016C000B092D80520E030E046E153EC0E94BE30F5
:1016D00087FD27C020E030E046E153E4C701B601B2
:1016E0000E94B733181654F020E030E0A901C7017A
:1016F000B6010E94B73318163CF019C0C12CD12C8A
:1017000096E1E92E93E4F92EA701960160E070E0DE
:1017100086E193E40E94A2320E94813386E990E040
:1017200013C0C12CD12C86E1E82E83ECF82E20E0EA
:1017300030E046E153E4C701B6010E94A3320E94A3
:101740008133CB0166E970E00E94011E1092DE0534
:101750001092DD0514C08091DD059091DE050B9798
:1017600074F060E070E080E090E00E94011E88E587
:1017700091E00E94451D109263021092620226962B
:101780000FB6F894DEBF0FBECDBFDF91CF91FF90B3
:10179000EF90DF90CF90BF90AF909F908F907F9011
:1017A0006F905F904F900895CF93DF93EC018E81FF
:1017B00087FD07C061E00E94EC1260E08E810E940C
:1017C0003A1281E08983DF91CF91089571E0249AE4
:1017D0002298000000000000B1D02498AFD0A89457
:1017E0000000000000001C9BA4D0B2F088941A995D
:1017F0000894771F60F7249A803011F0229801C076
:10180000229A00000000000099D02498A8940000BB
:1018100000001C9B8ED092D000000000249A872FDD
:101820009927089580E208950894881F01C0880FC1
:10183000B9F0249A00000000000018F4000022987B
:1018400002C0229A00C07AD02498A8940000000018
:1018500000001C9B6ED012F4882712C06FD0E7CF17
:10186000249A00000000229869D09927882724989C
:10187000A89400001C9B5DD07AF31A9B81E05ED097
:1018800000000000249A089581E00895CF93DF932B
:10189000EC01862F0E94140C811106C08FA58111C6
:1018A00006C083E08FA703C081E090E002C080E023
:1018B00090E0DF91CF910895249A229A3FD0249806
:1018C0003DD01C9B36D0229839D008958F938F91AC
:1018D0008F931C9B2ED0229A31D0A6DF882311F43F
:1018E000EBDFF5CF0F9008950895249A27D0229822
:1018F00025D0249823D01C9B1CD0229A1FD094DF83
:10190000089581E008951C9B14D0229A17D08CDF93
:10191000089581E00895229824982A982C98882781
:1019200099271A9B08951C9B089581E0089581E0F2
:1019300008951C9BFECFA8940895089591E09A9570
:10194000F1F7089508951F920F920FB60F92112488
:101950002F933F934F935F936F937F938F939F93B7
:10196000AF93BF93EF93FF938091B900887F803648
:1019700009F49CC068F5883209F45BC090F48031AA
:1019800009F454C038F4882309F4F6C0883009F407
:101990004DC0F6C0883109F44CC0803209F45DC0F6
:1019A000EFC0803409F468C048F4803309F455C0AE
:1019B000883309F0E5C080935003D8C0803509F41E
:1019C0004FC0883509F45DC0883409F0D9C0D6C04D
:1019D000883909F4C7C0A8F4883709F467C038F417
:1019E000883609F463C0803709F460C0C9C08838FC
:1019F00009F4B8C0803909F45FC0803809F0C0C06C
:101A00005BC0803B09F486C038F4803A09F466C0B4
:101A1000883A09F47FC0B4C0803C09F4A7C0883C70
:101A200009F4A4C0883B09F48AC0AAC080912D03A0
:101A300010C090914F0380914E03981770F5E0917C
:101A40004F0381E08E0F80934F03F0E0E25DFC4F87
:101A500080818093BB0085EC86C0809350038EC04C
:101A6000E0914F0381E08E0F80934F038091BB0084
:101A7000F0E0E25DFC4F808390914F0380914E0334
:101A80006EC0E0914F0381E08E0F80934F038091F1
:101A9000BB00F0E0E25DFC4F808380915103811137
:101AA0006DC081E080932C0384EA61C083E0809361
:101AB00052031092FF02CFCF8091FF02803208F0D4
:101AC00051C0E091FF0281E08E0F8093FF02809170
:101AD000BB00F0E0E152FD4F8083BDCF85EC8093E9
:101AE000BC00109252038091FF02803230F4E091EA
:101AF000FF02F0E0E152FD4F10826091FF0270E0C2
:101B0000E091DD02F091DE028FED92E009951092F6
:101B1000FF0236C084E0809352031092DC021092E0
:101B2000DB02E091D902F091DA0209958091DB02A3
:101B3000811105C081E08093DB021092B902E0912F
:101B4000DC0281E08E0F8093DC02F0E0E754FD4F71
:101B500080818093BB009091DC028091DB0298171A
:101B600008F479CF85E88093BC000AC085EC8093A7
:101B7000BC001092520304C0109250030E948F09BF
:101B8000FF91EF91BF91AF919F918F917F916F9155
:101B90005F914F913F912F910F900FBE0F901F902B
:101BA000189561E372E08EEA93E00E94B71165E355
:101BB00072E08EEA93E00C94B7112F923F924F920D
:101BC0005F926F927F928F929F92AF92BF92CF92CD
:101BD000DF92EF92FF920F931F93CF93DF93CDB7D6
:101BE000DEB7E8970FB6F894DEBF0FBECDBF8AE030
:101BF000EEE4F1E0DE011B9601900D928A95E1F78B
:101C0000CE0101961C018AE0F10111928A95E9F753
:101C1000E12CF12CCE0145969CAB8BABE114F10489
:101C200029F46CE370E084EC9FEF08C096E9E916B4
:101C3000F10439F464EC7FEF8CE390E00E94011E24
:101C400005C0E2ECEE16E1E0FE0659F39BEE892EAC
:101C500095E0992ECE010B969EAB8DAB38AE2FAA98
:101C600051016C01F4018081F2E08F0E911C0E9401
:101C700087138C01F601608171818617970724F51F
:101C8000072E000C880B990B0E94C53023E333E329
:101C900043E35FE30E9424312B013C01B801110FA3
:101CA000880B990B0E94C5302AE939E949E95EE3BE
:101CB0000E9424319B01AC01C301B2010E94A332F6
:101CC0000E948133F60129C0F50160817181681796
:101CD00079072CF5072E000C880B990B0E94C53054
:101CE00023E333E343E35FE30E9424312B013C0110
:101CF000B801110F880B990B0E94C5302AE939E908
:101D000049E95EE30E9424319B01AC01C301B201A9
:101D10000E94A3320E948133F50171836083F2E057
:101D2000CF0ED11C82E0A80EB11CEBA9FCA9CE16E7
:101D3000DF0609F097CFFFEFEF1AFF0A65E070E0CA
:101D400080E090E00E949E1388E5E81682E0F806A5
:101D500009F064CF60E070E080E090E00E94011E36
:101D60008DE7E82E83E0F82E00E010E0EFA9F8AD53
:101D7000A190B190F8AFEFABEDA9FEA9C190D190C1
:101D8000FEABEDABB5016C197D09072E000C880B7D
:101D9000990B0E94C5302AE939E949E95EE30E94BE
:101DA00024312B013C01B6010D2C000C880B990B42
:101DB0000E94C5309B01AC01C301B2010E94A33255
:101DC0000E9481332B013C014AE0CE018D960E9496
:101DD0006A114AE0B501CE0187960E946A114AE075
:101DE000B601CE0181960E946A114AE0B801CE0187
:101DF0004B960E946A111E8A1D8A188E1F8A1A8E9F
:101E0000198E42E050E067E472E0CE0145960E94F0
:101E10004411BE01655E7F4FCE0145960E9431118F
:101E200068E472E00E941811BE016F5D7F4F0E944E
:101E300031116BE172E00E941811BE01695D7F4FA4
:101E40000E9431116AE472E00E941811BE01635DC4
:101E50007F4F0E9431110E949918CE0145960E9431
:101E60006511CE014B960E946511CE0181960E94AC
:101E70006511CE0187960E946511CE018D960E9454
:101E80006511F701419251927F01B186A086D38AF4
:101E9000C28A0F5F1F4F0530110509F067CF0E94FE
:101EA000D017E8960FB6F894DEBF0FBECDBFDF9116
:101EB000CF911F910F91FF90EF90DF90CF90BF9047
:101EC000AF909F908F907F906F905F904F903F90DA
:101ED0002F900895CF92DF92EF92FF920F931F936E
:101EE000CF93DF936C017A018B01C0E0D0E0CE1577
:101EF000DF0589F0D8016D918D01D601ED91FC913E
:101F00000190F081E02DC6010995892B11F47E0125
:101F100002C02196ECCFC701DF91CF911F910F91A5
:101F2000FF90EF90DF90CF900895FC01918D828D0E
:101F3000981761F0828DDF01A80FB11D5D968C911D
:101F4000928D9F5F9F73928F90E008958FEF9FEF28
:101F50000895FC01918D828D981731F0828DE80FE4
:101F6000F11D858D90E008958FEF9FEF0895FC019E
:101F7000918D228D892F90E0805C9F4F821B91096B
:101F80008F73992708958EEA93E00E94B70F21E09E
:101F9000892B09F420E0822F0895FC01848DDF0154
:101FA000A80FB11DA35ABF4F2C91848D90E00196CC
:101FB0008F739927848FA689B7892C93A089B189BB
:101FC0008C9180648C93938D848D981306C00288C5
:101FD000F389E02D80818F7D80830895EF92FF92B9
:101FE0000F931F93CF93DF93EC0181E0888F9B8D3C
:101FF0008C8D981305C0E889F989808185FD24C0FE
:10200000F62E0B8D10E00F5F1F4F0F731127E02E80
:102010008C8DE8120CC00FB607FCFACFE889F9895D
:10202000808185FFF5CFCE010E94CD0FF1CF8B8D42
:10203000FE01E80FF11DE35AFF4FF0820B8FEA8992
:10204000FB898081806207C0EE89FF896083E8890F
:10205000F98980818064808381E090E0DF91CF9175
:102060001F910F91FF90EF900895CF93DF93EC01B4
:10207000888D8823C9F0EA89FB89808185FD05C0A8
:10208000A889B9898C9186FD0FC00FB607FCF5CFE2
:10209000808185FFF2CFA889B9898C9185FFEDCF2A
:1020A000CE010E94CD0FE7CFDF91CF91089580E060
:1020B00090E0892B29F00E94C30F81110C9400003D
:1020C0000895833081F028F4813099F08230A1F0B6
:1020D00008958730A9F08830B9F08430D1F4809128
:1020E00080008F7D03C0809180008F778093800077
:1020F000089584B58F7702C084B58F7D84BD08951F
:102100008091B0008F7703C08091B0008F7D809365
:10211000B00008953FB7F8948091050390910603AD
:10212000A0910703B091080326B5A89B05C02F3FD7
:1021300019F00196A11DB11D3FBFBA2FA92F982FED
:102140008827820F911DA11DB11DBC01CD0142E068
:10215000660F771F881F991F4A95D1F708950E942F
:102160005E370F931F93CF93DF93EC0188819981A2
:10217000009729F02A813B812617370788F48B01C5
:102180006F5F7F4F0E949436009761F09983888338
:102190001B830A832C813D81232B11F4FC011082C7
:1021A00081E001C080E0DF91CF911F910F910895F0
:1021B000EF92FF920F931F93CF93DF93FC01248143
:1021C00035816115710511F480E019C04115510583
:1021D000A9F07B01EC018A01020F131FB8010E94D4
:1021E000B110882389F3288139818C819D81B701C1
:1021F000820F931F0E9473371D830C8381E0DF9150
:10220000CF911F910F91FF90EF900895CF93DF939F
:10221000EC0188819981009711F00E94FC351982A8
:1022200018821D821C821B821A82DF91CF91089531
:10223000CF93DF93EC016115710561F0FB01019013
:102240000020E9F73197AF01461B570B0E94D810C9
:10225000811103C0CE010E940611CE01DF91CF9102
:102260000895CF93DF93EC01FB0144815581608198
:1022700071810E94D810811103C0CE010E94061105
:10228000CE01DF91CF910895EF92FF920F931F93AC
:10229000CF93DF93EC017B018A01BA010E94B11058
:1022A000811104C0CE010E94061107C01D830C835A
:1022B000B701888199810E947337CE01DF91CF9158
:1022C0001F910F91FF90EF900895FC018081918103
:1022D0000C94FC35EF92FF920F931F93CF93DF93F3
:1022E000CDB7DEB762970FB6F894DEBF0FBECDBF95
:1022F0008C01CB01F80111821082138212821582A7
:10230000148250E09E012F5F3F4F7901B9010E9476
:10231000DC2EF70101900020E9F73197AF014E194B
:102320005F09B701C8010E94441162960FB6F89484
:10233000DEBF0FBECDBFDF91CF911F910F91FF90F8
:10234000EF9008956115710579F0FB01019000206F
:10235000E9F73197AF01461B570BDC01ED91FC917A
:102360000280F381E02D099480E090E008950C94C0
:10237000A2111F920F920FB60F9211242F933F9329
:102380004F935F936F937F938F939F93AF93BF937D
:10239000EF93FF938EEA93E00E94CD0FFF91EF91B0
:1023A000BF91AF919F918F917F916F915F914F916D
:1023B0003F912F910F900FBE0F901F9018951F9275
:1023C0000F920FB60F9211242F938F939F93EF9339
:1023D000FF93E091BE03F091BF038081E091C403BD
:1023E000F091C50382FD12C090818091C7038F5F79
:1023F0008F732091C803821751F0E091C703F0E07A
:10240000E255FC4F958F8093C70301C08081FF91F7
:10241000EF919F918F912F910F900FBE0F901F9072
:102420001895CF93DF93282F30E0F901E55CF94F41
:102430008491F901E75AF94FD491F901E958F94F1C
:10244000C491CC2391F081110E946110EC2FF0E037
:10245000EE0FFF1FE15BF94FA591B491EC91ED23D5
:1024600081E090E021F480E002C080E090E0DF9124
:10247000CF9108951F93CF93DF93282F30E0F90178
:10248000E55CF94F8491F901E75AF94FD491F901CC
:10249000E958F94FC491CC23C9F0162F81110E943D
:1024A0006110EC2FF0E0EE0FFF1FE359F94FA591FB
:1024B000B4918FB7F894111105C09C91ED2FE09560
:1024C000E92302C0EC91ED2BEC938FBFDF91CF910C
:1024D0001F9108951F920F920FB60F9211242F9300
:1024E0003F934F935F936F937F938F939F93AF939C
:1024F000BF93EF93FF938091AA039091AB03A091B8
:10250000AC03B091AD03892B8A2B8B2B59F18091B1
:10251000A703E091A803F091A90390818927808304
:102520008091AA039091AB03A091AC03B091AD034D
:10253000181619061A061B060CF03DC08091AA0356
:102540009091AB03A091AC03B091AD030197A109A9
:10255000B1098093AA039093AB03A093AC03B0930B
:10256000AD0329C080910501EBE8F6E0E4919FEF0F
:1025700090930501E130B9F098F0E230C9F4909100
:1025800070009D7F9093700091E09093B0009091C7
:10259000B100987F94609093B1001092B30008C08E
:1025A00010926E0005C090916F009D7F90936F0018
:1025B00060E00E943A12FF91EF91BF91AF919F911D
:1025C0008F917F916F915F914F913F912F910F90DC
:1025D0000FBE0F901F901895CF93DF9390E0FC01F2
:1025E000E75AF94F2491FC01E958F94F8491882367
:1025F00061F190E0880F991FFC01EF5CF94FC591E4
:10260000D491FC01E359F94FA591B491611109C02E
:102610009FB7F8948881209582238883EC912E239C
:102620000BC0623061F49FB7F8943881822F809597
:1026300083238883EC912E2B2C939FBF06C08FB7EA
:10264000F894E8812E2B28838FBFDF91CF910895D6
:102650001F93CF93DF93182FEB0161E00E94EC12E0
:10266000209711F460E004C0CF3FD10539F461E058
:10267000812FDF91CF911F910C943A12E12FF0E05E
:10268000E55CF94FE491E330F9F048F4E130B9F05A
:10269000E230A1F584B5806284BDC8BD34C0E730A6
:1026A000E9F0E83019F1E43049F58091800080626A
:1026B00080938000D0938B00C0938A0024C084B59F
:1026C000806884BDC7BD1FC08091800080688093F2
:1026D0008000D0938900C093880015C08091B0001D
:1026E00080688093B000C093B3000DC08091B000AB
:1026F00080628093B000C093B40005C0C038D1059B
:102700000CF0B5CFAFCFDF91CF911F9108958E30F0
:1027100008F08E508770806480937C0080917A00EE
:10272000806480937A0080917A0086FDFCCF80914E
:1027300078002091790090E0922B08958F929F92DB
:10274000AF92BF92CF92DF92EF92FF926B017C012A
:102750000E948A104B015C01C114D104E104F10410
:10276000F1F00E948A10DC01CB0188199909AA09AD
:10277000BB09883E9340A105B10570F321E0C21A60
:10278000D108E108F10888EE880E83E0981EA11CAC
:10279000B11CC114D104E104F10419F7DDCFFF909D
:1027A000EF90DF90CF90BF90AF909F908F90089563
:1027B0002FB7F89460910103709102038091030395
:1027C000909104032FBF08951F920F920FB60F929E
:1027D00011242F933F938F939F93AF93BF93809137
:1027E000010390910203A0910303B091040330917F
:1027F000000323E0230F2D3720F40196A11DB11D06
:1028000005C026E8230F0296A11DB11D20930003E9
:102810008093010390930203A0930303B0930403F6
:102820008091050390910603A0910703B0910803DE
:102830000196A11DB11D8093050390930603A093FB
:102840000703B0930803BF91AF919F918F913F9180
:102850002F910F900FBE0F901F9018958F929F92FF
:10286000AF92BF92CF92DF92EF92FF926B017C0109
:102870000E948A104B015C0184E0C81AD108E1086B
:10288000F108C80CD91CEA1CFB1CC814D904EA04C2
:10289000FB0438F40E948A1086169706A806B9062B
:1028A000C8F30E948A106C157D058E059F05C8F33C
:1028B000FF90EF90DF90CF90BF90AF909F908F9060
:1028C00008951F920F920FB60F9211242F933F93EA
:1028D0004F935F936F937F938F939F93AF93BF9328
:1028E000EF93FF9380917C040E9411122091800449
:1028F000309181042F5F3F4F3093810420938004F7
:1029000090917F04953618F096E090937B04909117
:102910007B049430C9F128F4923069F09330D1F0FF
:102920005EC0953009F451C0963009F058C091E06E
:1029300090934C0551C0811152C020918004309178
:1029400081042436310508F442C010924C051092DF
:102950007F041CC0813009F042C0E0917F0491E007
:102960009E0F90937F04F0E02091800430918104C9
:10297000EE0FFF1FE558FB4F30872783109281042D
:102980001092800494E029C0811117C0E0917F0467
:1029900091E09E0F90937F04F0E0209180043091AD
:1029A0008104EE0FFF1FE558FB4F308727831092FD
:1029B00081041092800493E010C020918004309133
:1029C00081042536310558F007C0811108C01092E6
:1029D00081041092800403C095E090937B04909151
:1029E0007E049923B9F081110AC080917D04882367
:1029F00021F080917D0461E009C02D9A0BC0809187
:102A00007D04882331F080917D0460E00E943A12B9
:102A100001C02D98FF91EF91BF91AF919F918F9140
:102A20007F916F915F914F913F912F910F900FBECA
:102A30000F901F901895FF920F931F93CF93DF93E2
:102A4000EC01FF24F394F60E2F81F21679F108853C
:102A500019852150B9F06F3F59F430E040E050E063
:102A60006FEF7FEF80E090E00E942A32B9010CC046
:102A70008F2D90E0982F88270197622F70E00E9499
:102A8000463502C060E070E0F8014C815D81CF0105
:102A9000801B910B8417950740F44081469FC0012D
:102AA000479F900D11249193F0CFFF82DF91CF913A
:102AB0001F910F91FF9008950F931F93DC011296C1
:102AC0008D919C9113976817790708F043C017966A
:102AD0008C911797882361F0489FA0011124452FFE
:102AE000289F90011124232F089F80011124012F7A
:102AF0001D968C911D971A969C911A971896ED9198
:102B0000FC911997891308C0CB01880F991F680F92
:102B1000791F6E0F7F1F0AC0660F771F660F771F22
:102B20006E0F7F1FFB01E80FF11D10821A968C912A
:102B30001A97FB01E80FF11D40831B968C911B97A0
:102B4000FB01E80FF11D20831C968C91FB01E80F1F
:102B5000F11D00831F910F9108951F93CF93DF9371
:102B6000EC01162F8981882331F08E8187FD03C007
:102B700060E00E94EC121E838981882341F061E0AD
:102B8000812F0E94EC1260E0812F0E943A12812F67
:102B900090E0FC01E958F94FE491F0E0EE0FFF1FDF
:102BA000E359F94F259134913B8B2A8BFC01E75A6D
:102BB000F94FE491EC8BDF91CF911F910895CF9263
:102BC000DF92EF92FF920F931F93CF93DF93CDB7D6
:102BD000DEB729970FB6F894DEBF0FBECDBF8C01CC
:102BE000DC0118968D919C911997892B09F49EC050
:102BF0000E948A10F801C684D784E088F188DC013D
:102C0000CB018C199D09AE09BF09C297A105B10579
:102C100078F3F894848195819A8389830084F1857F
:102C2000E02D7F01BFEFEB1AFB0A80818987F80155
:102C300090810288F389E02DD80154968C919923D4
:102C400009F430C09081982B9887908180958923D2
:102C50008F838F818C8388E08B8358856F81498532
:102C60003B812C8189819A81D701508347FD252F93
:102C70003A952083262F39F0441F00C0000060835E
:102C8000000000C0F2CF38E04D9160830000019752
:102C900061F7D8015396FC93EE93529749873B8393
:102CA0002C833AC09081982B9887908180958923B6
:102CB0008F838F818E8388E08D8358856F814985CE
:102CC0003D812E8189819A81D701508347FD252F2F
:102CD00000C000C0208300C000C000C000C000C011
:102CE00060830000262F3A9541F0441F000000C089
:102CF00000C000C000C000C0E8CF38E04D9100C067
:102D0000608300C0019709F7D8015396FC93EE93B6
:102D1000529749873D832E839A83898378940E94B2
:102D20008A10F80166877787808B918B29960FB67A
:102D3000F894DEBF0FBECDBFDF91CF911F910F91F1
:102D4000FF90EF90DF90CF900895EF92FF920F9356
:102D50001F93CF93DF93EC017B01888599850097C2
:102D600011F00E94FC359D858A85981719F084E042
:102D700090E002C083E090E08E9D80018F9D100D59
:102D80009E9D100D11241D830C83C8010E94673580
:102D900099878887009741F0A80160E070E00E9461
:102DA0006C37FB82EA8204C01D821C821B821A825D
:102DB000DF91CF911F910F91FF90EF900895909127
:102DC00052039111FCCF91E09093520390935103E1
:102DD0002FEF2093500310924F03260F20934E03A2
:102DE00090932D0390912D03880F892B80932D03B1
:102DF00080912C03813061F410922C0380912D037B
:102E00008093BB008091BC0083FDF8CF85EC01C0AE
:102E100085EE8093BC00809152038130E1F3809174
:102E20004F03861710F460914F03AEE2B3E02CE03D
:102E300033E0F9018E2F821B861718F48D91819350
:102E4000F9CF862F0895E091AE03F091AF03019082
:102E5000F081E02D682F8EEA93E009941F93CF93C1
:102E6000DF93162FC4ECD5E0998521E0209353031E
:102E7000909375031092540310927603682F88EB99
:102E800095E00E941D0A612F88EB95E00E941D0AC3
:102E900081E00E940A1F8E83DF91CF911F910895D8
:102EA000BF92CF92DF92EF92FF920F931F93CF9337
:102EB000DF938091CD0591E0909353038093750348
:102EC000109254031092760368EA88EB95E00E9412
:102ED0001D0A81E00E940A1F66E08091CD050E94D4
:102EE000DF16E82E10920B0380930A030E94D8137A
:102EF0006B01F12C26E0E216F104ACF48091CE05D2
:102F00009091CF05892BB1F30E94D8136C197D09DC
:102F10008091CE059091CF058617970758F781E0ED
:102F20008093D00533C088EB95E00E94D109C82E6C
:102F300088EB95E00E94D109B82E88EB95E00E94BD
:102F4000D109E82E88EB95E00E94D109D82E88EBB4
:102F500095E00E94D109F82E88EB95E00E94D109F6
:102F60001B2D00E00C291093C5050093C405DD2D31
:102F700020E0C22FCE29D093C705C093C605982F55
:102F800088278F299093C9058093C805DF91CF9139
:102F90001F910F91FF90EF90DF90CF90BF90089519
:102FA0000F931F93CF93DF9307E713E0C0E0D0E0C8
:102FB000F80161918F01CE010E94EA312196C03360
:102FC000D105B1F7DF91CF911F910F91089560E086
:102FD00070E080E090E00C94011ECF93DF93BC0181
:102FE0008EEA93E00E94A211EC0164E472E08EEAA2
:102FF00093E00E94A2118C0F9D1FDF91CF91089545
:10300000CF93C82F81E080935303C0937503109230
:103010005403109276036FE088EB95E00E941D0A3E
:1030200081E00E940A1F81110FC061E08C2F0E9475
:10303000DF1610920B0380930A03882329F088EB94
:1030400095E0CF910C94D1098FEF9FEFCF91089528
:10305000CF92DF92EF92FF920F931F9361E08CE08B
:103060000E94EC1261E08CE00E943A1283E290E050
:103070000197F1F760E08CE00E94EC12E5E6F6E0E3
:103080006491E3E8F6E0E491F0E0EE0FFF1FE15B0E
:10309000F94F8591949100E412E42FE030E0462F3F
:1030A0000E940921611571058105910539F0DC0146
:1030B000CB010196A11DB11DBF7003C080E090E05F
:1030C000DC01BC0180E090E00E94C3302DEC3CECC0
:1030D00048E652E40E940F336B017C0120E030E0AF
:1030E00040EC50E40E94B733181654F42AE037ED50
:1030F00043EA5FE3C701B6010E9424316B017C0102
:1031000020E030E0A901C701B6010E94BE30811164
:1031100007C0C12C80ECD82E89E7E82E84E4F82E75
:10312000C701B6011F910F91FF90EF90DF90CF90F4
:103130000895CF93DF93FC014481558160817181B3
:103140008EEA93E00E946A0FEC0164E472E08EEA7A
:1031500093E00E94A2118C0F9D1FDF91CF910895E3
:103160008F929F92AF92BF920F931F93CF93DF9353
:10317000CDB7DEB7A1970FB6F894DEBF0FBECDBFB7
:1031800019A2423008F44AE08E010F5D1F4F842ED1
:10319000912CA12CB12CA50194010E940832E62F9C
:1031A000B901CA0101501109EA3014F4E05D01C00F
:1031B000E95CD801EC93232B242B252B61F7B80174
:1031C0008EEA93E00E94A211A1960FB6F894DEBF9A
:1031D0000FBECDBFDF91CF911F910F91BF90AF90E8
:1031E0009F908F900895CF92DF92EF92FF92CF93AE
:1031F000DF936B017C018DE20E942317EC016627AF
:103200007727CB016C197D098E099F094AE00E943E
:10321000B0188C0F9D1FDF91CF91FF90EF90DF9042
:10322000CF900895CF93DF93BC01990F880B990B32
:1032300097FF03C00E94F31803C04AE00E94B01831
:10324000EC0164E472E08EEA93E00E94A2118C0F1C
:103250009D1FDF91CF9108954F925F926F927F9261
:103260008F929F92AF92BF92CF92DF92EF92FF9296
:103270006B017C01B42E9B01AC010E940C348823AD
:1032800019F06DE472E027C026013701E89477F861
:103290002FEF3FEF4FE75FE7C301B2010E940C340D
:1032A00081110DC02FEF3FEF4FE75FE7C301B20180
:1032B0000E94BE3018161CF461E572E00CC02FEFBE
:1032C0003FEF4FE75FE4C701B6010E94B73318161E
:1032D00094F465E572E08EEA93E0FF90EF90DF9062
:1032E000CF90BF90AF909F908F907F906F905F90A6
:1032F0004F900C94A2112FEF3FEF4FE75FECC70107
:10330000B6010E94BE3087FDE4CF20E030E0A90185
:10331000C701B6010E94BE3087FF09C08DE20E943E
:1033200023174C01F7FAF094F7F8F09402C0812CBF
:10333000912CA12C60E070E080E09FE3AB1441F0A1
:1033400020E030E040E251E40E940F33A394F6CF36
:103350009B01AC01C701B6010E94A3322B013C01C5
:103360000E9488336B017C010E94C3309B01AC0139
:10337000C301B2010E94A2322B013C014AE0C70105
:10338000B6010E94B0187C01E80CF91CBB2029F0A2
:103390008EE20E942317E80EF91EDB2CDD2021F1BE
:1033A00020E030E040E251E4C301B2010E94243148
:1033B0002B013C010E9488334B01A12CB12C4AE027
:1033C000C501B4010E94B018E80EF91EC501B40190
:1033D0000E94C3309B01AC01C301B2010E94A23222
:1033E0002B013C01DA94DACFC701FF90EF90DF9018
:1033F000CF90BF90AF909F908F907F906F905F9095
:103400004F900895CF93DF9342E00E942C19EC0176
:1034100064E472E08EEA93E00E94A2118C0F9D1F7B
:10342000DF91CF9108950F931F93CF93DF938C017A
:10343000EB0161E08CE00E94EC1261E08AE00E9406
:10344000EC1261E0012B09F060E08AE00E943A1280
:1034500061E0CD2B09F060E08CE0DF91CF911F910E
:103460000F910C943A12EBE7F4E08181F8941092FA
:10347000800089E08093810080E293E0909389004E
:1034800080938800109285001092840082E08093DF
:103490006F00789480831482818160E00E94EC1236
:1034A00081E080934D05089520918000206820934D
:1034B0008000009751F0BC0180E090E0653071051C
:1034C0008105910510F00C942E140895CF93C091AE
:1034D0007904880FCC2351F00E94750C811102C031
:1034E00082E001C080E080937A0407C00E94830CD0
:1034F000811101C0C2E0C0937A0481E08093790415
:10350000CF9108950F931F93CF93DF938091780508
:103510000E94661A60E08BE494E00E94460CC8E6C4
:10352000D5E08E0168818BE494E00E94460C2296DF
:10353000F80161818BE494E00E94460CF5E0C83705
:10354000DF0779F70E945C0C1092790410927A04DC
:10355000DF91CF911F910F9108950F931F93CF93F8
:10356000DF930EE415E080E7F80182A7CBE4D4E016
:103570001CA61DA61FA61EA60E948B0CF80182A5E4
:103580000E94661A61E2CE010E94460C0E945C0C09
:103590001EA61FA6F80182A50E94661A61E8CE0148
:1035A0000E94460C0E945C0C1EA61FA6F80182A574
:1035B0000E94661A6FEECE010E94460C0E945C0CBF
:1035C0001EA61FA6DF91CF911F910F9108953F92E4
:1035D0004F925F926F927F928F929F92AF92BF9223
:1035E000CF92DF92EF92FF920F931F93CF93DF93CF
:1035F00000D000D0CDB7DEB720910501243021F0F6
:103600002F3F09F02CC204C0EBE8F6E0349076C0FE
:1036100024E020930501EBE8F6E0E491EF3F09F4A4
:103620001EC2E13011F1E23009F443C0E11165C07E
:1036300014BC15BC24B5226024BD25B5216025BD70
:10364000EBE7F6E0E491F0E0EE0FFF1FE359F94FEE
:10365000259134913093B8062093B706EDE5F6E056
:10366000E491E093B606312C4BC01092800010928A
:1036700081002091810028602093810020918100A9
:10368000216020938100EBE7F6E0E491F0E0EE0F9B
:10369000FF1FE359F94F259134913093B5062093DC
:1036A000B406EDE5F6E0E491E093B30633243394F9
:1036B00027C01092B0001092B1002091B00022609B
:1036C0002093B0002091B10021602093B100EBE77E
:1036D000F6E0E491F0E0EE0FFF1FE359F94F25917A
:1036E00034913093A9032093A803EDE5F6E0E4912B
:1036F000E093A703B2E03B2E03C03E2E37FCAFC1E0
:103700002A013B018C0161E084E00E94EC12480137
:10371000A12CB12C832D8D7F09F0BBC060E072E13C
:103720008AE790E0A50194010E942A3229833A8316
:103730004B835C8369017A0121E0C21AD108E10858
:10374000F1088FEFC816D104E104F10409F008F480
:103750004CC060E472E48FE090E0A50194010E9407
:103760002A3269017A01E1E0CE1AD108E108F108B4
:10377000F2E03F1220C02FEFC216D104E104F104A1
:1037800009F008F46AC160E970ED83E090E0A501FA
:1037900094010E942A3269017A0181E0C81AD10895
:1037A000E108F108EFEFCE16D104E104F10409F0CD
:1037B000D0F583E067C0FFEFCF16D104E104F10438
:1037C000B1F0A8F068E478EE81E090E0A501940102
:1037D0000E942A3269017A0181E0C81AD108E10801
:1037E000F108332009F4DFC02FC181E001C082E07D
:1037F0003320A1F047C089819A81AB81BC812AE046
:10380000B595A795979587952A95D1F76C017D0178
:1038100021E0C21AD108E108F10885E095B5987F4A
:10382000892B85BD6FC068E478EE81E090E0A5014A
:1038300094010E942A3269017A01F1E0CF1AD1087D
:10384000E108F1082FEFC216D104E104F10409F0F8
:1038500008F4A7C064E274EF80E090E0A501940151
:103860000E942A3269017A01E1E0CE1AD108E1080A
:10387000F108FFEFCF16D104E104F10411F008F0D4
:10388000B4C085E09091B100987F892B8093B100FE
:1038900039C060E072E18AE790E0A50194010E94DE
:1038A0002A3269017A0181E0C81AD108E108F108D9
:1038B000C114D104E1E0EE06F10488F068E478EE8A
:1038C00081E090E0A50194010E942A3269017A0109
:1038D000F1E0CF1AD108E108F10893E001C091E0CE
:1038E00021E032120FC080918100887F892B809364
:1038F0008100411451046104710449F42FEF3FEF3A
:10390000A9012DC0411451046104710471F0D80162
:10391000AA0FBB1FA30192010E94493228EE33E097
:1039200040E050E00E94083203C02FEF3FEFA901B2
:1039300081E03816A1F0E2E03E1619F131108FC097
:10394000C7BC2093BD063093BE064093BF0650937C
:10395000C00680916E00826080936E0080C0D0921D
:103960008900C09288002093B9063093BA0640932C
:10397000BB065093BC0680916F00826080936F00FD
:103980006EC0C092B3002093AA033093AB03409360
:10399000AC035093AD0380917000826080937000FF
:1039A0005EC084E06FCFFFEFCF16D104E104F104D5
:1039B000D1F0C8F062E17AE780E090E0A5019401DF
:1039C0000E942A3269017A0181E0C81AD108E1080F
:1039D000F108EFEFCE16D104E104F10411F008F084
:1039E0000ACF84E01BCF83E019CF62E17AE780E061
:1039F00090E0A50194010E942A3269017A0181E0D8
:103A0000C81AD108E108F108EFEFCE16D104E1049D
:103A1000F104C1F0B8F089819A81AB81BC814AE0A0
:103A2000B595A795979587954A95D1F76C017D0136
:103A300021E0C21AD108E108F108332009F4EDCEE3
:103A400087E020CF86E0D4CEFFEFCF16D104E1048B
:103A5000F10409F050F684E0CBCE82E013CF0F9052
:103A60000F900F900F90DF91CF911F910F91FF90CA
:103A7000EF90DF90CF90BF90AF909F908F907F900E
:103A80006F905F904F903F9008953F924F925F925A
:103A90006F927F928F929F92AF92BF92CF92DF925E
:103AA000EF92FF920F931F93CF93DF9300D000D03C
:103AB00000D0CDB7DEB76C01FC0101900020E9F722
:103AC00031978F01081B190B1E821D8284EFA82ECF
:103AD000BB24B39494E0892E912C2DE7322E8D8156
:103AE0009E81801791070CF074C0ED81FE81EC0D72
:103AF000FD1DE0818FE98E0F873038F4EE0FFF0B4C
:103B0000E854FF4FE080F1805EC0E23709F459C00D
:103B10008EEC8E0F853040F42E2FEE0F330B4901C3
:103B200080E3881A91084FC0EA3399F48D819E8111
:103B300001969E838D83FC01EC0DFD1D8081082E76
:103B4000000C990BC097389E5001399EB00C11247F
:103B50003AC0E032C1F5B40164507109072E000C7F
:103B6000880B990B0E94C5309B01AC0160E070E0AE
:103B700080E090E40E94BC339B01AC01B701FF0CD4
:103B8000880B990B29833A834B835C830E94C53051
:103B900029813A814B815C810E9424310E948133CA
:103BA000DC01CB017C0125010B2C000C6608770899
:103BB000B301A2010E94E71AC301B2010E949E1341
:103BC00002C0E12CF12C8D819E8101969E838D8314
:103BD00086CF26960FB6F894DEBF0FBECDBFDF911D
:103BE000CF911F910F91FF90EF90DF90CF90BF90FA
:103BF000AF909F908F907F906F905F904F903F908D
:103C00000895CF92DF92EF92FF920F931F93CF937D
:103C1000DF93EC01072E000C880B990B0E94C53036
:103C20002091790330917A0340917B0350917C037A
:103C30000E9424310E9481336B017C018B01D7FFEC
:103C40000AC060E070E085E00E94281366277727AD
:103C50006C1B7D0B06C0BE0185E00E94281360E04E
:103C600070E086E00E94281317FF0AC066277727B6
:103C70006C197D0983E00E94281360E070E006C0A3
:103C800060E070E083E00E942813B6018BE0DF91D2
:103C9000CF911F910F91FF90EF90DF90CF900C94F8
:103CA00028132F923F924F925F926F927F928F9242
:103CB0009F92AF92BF92CF92DF92EF92FF920F93BB
:103CC0001F93CF93DF93CDB7DEB727970FB6F89446
:103CD000DEBF0FBECDBF9D838C832BEE35E03B83D3
:103CE0002A838DE793E09F838E83C12CD12C7601AC
:103CF000198200E010E0812C912C5401EA81FB81B3
:103D000080813296FB83EA830E9487131C01EE8137
:103D1000FF8144885588612C712C092E000CAA0B58
:103D2000BB0B9C01AD012419350946095709A4E6CE
:103D3000B0E00E9449322285338540E050E02419EA
:103D40003509460957090E942A32E4E6F0E0E21BF1
:103D5000F30B24E630E0DF010E945A359B01AC01F1
:103D6000C701B6010E94F831860E971EA81EB91E23
:103D70000E0F1F1FEE81FF81808191819F012E5FB9
:103D80003F4F3F832E832816390650F481E090E0A0
:103D90000C2C01C0880F0A94EAF73981382B39833B
:103DA0008FEFC81AD80AE80AF80A95E0C916D104B4
:103DB000E104F10409F0A2CFE981EE2359F0980162
:103DC000110F440B550BC501B4010E942A32285C27
:103DD000310902C028EC30E0EC81FD813183208381
:103DE000898127960FB6F894DEBF0FBECDBFDF9155
:103DF000CF911F910F91FF90EF90DF90CF90BF90E8
:103E0000AF909F908F907F906F905F904F903F907A
:103E10002F900895382F20917603909175032132C9
:103E200008F049C0809152038111FCCF42E04093D9
:103E30005203309351033FEF3093500310924F03DE
:103E400020934E03A5E5B3E04EE253E0FA013E2F86
:103E5000341B321718F43D913193F9CF10922D0392
:103E600020912D03990F922B90932D0390912C0369
:103E7000913061F410922C0390912D039093BB002C
:103E80009091BC0093FDF8CF95EC01C095EE909316
:103E9000BC00909152039230E1F3909150039F3F08
:103EA00079F080915003803241F08091500380334B
:103EB00031F084E005C081E003C082E001C083E00E
:103EC00010925403109276031092530308952F9288
:103ED0003F924F925F926F927F928F929F92AF929A
:103EE000BF92CF92DF92EF92FF920F931F93CF93E7
:103EF000DF93CDB7DEB7A9970FB6F894DEBF0FBE3C
:103F0000CDBF82E894E09093CC068093CB0680915D
:103F10007F04282E312C3092CE062092CD0680913F
:103F20004C0590E09093D0068093CF0680917B045F
:103F3000853009F055C1809184049091850488589A
:103F400091098D35910588F480917F04843041F486
:103F500080918604909187048097479708F49AC0CF
:103F600080917F04843408F07CC026E0221631045E
:103F70000CF4F6C008E814E083E090E099A788A765
:103F800075ECC72E7DE9D72E7CE1E72E71E8F72E80
:103F9000E8A5F9A5E215F3050CF052C0F80160811F
:103FA00071813497A080B18080E090E00E94C3309E
:103FB0002B013C01B50180E090E00E94C3304B0131
:103FC0005C012DEC3CEC4CE45FE30E9424319B014E
:103FD000AC01C301B2010E94BE3087FD17C02DECB9
:103FE0003CEC4CE45FE3C301B2010E9424319B012D
:103FF000AC01C501B4010E94BE30E82F880FFF0B51
:10400000EE27FF0FEE1FFF27319602C0E0E0F0E041
:10401000A701960163E971E080E091E00E94F83128
:104020006F01FF0FEE08FF08C626D726E826F926FF
:1040300088A599A5019699A788A70E5F1F4FA8CFBD
:10404000C092C506D092C606E092C706F092C80696
:1040500080E290E09093CA068093C9068FEF9FEFAD
:104060005BC08091860490918704825491098E9759
:1040700008F07BCF20E030E080E090E0DC01F90147
:10408000E857FB4F40815181495051094930510552
:1040900088F06BCF809188049091890409970997E3
:1040A00008F05ECF1092CA061092C9068FEF9FEFFC
:1040B000DC0128C0F901E657FB4F4081518147518F
:1040C00051094231510588F4880F991FAA1FBB1F5F
:1040D00081602C5F3F4F2038310589F620E230E0C7
:1040E0003093CA062093C9060DC0408151814650C5
:1040F00051094730510508F038CF880F991FAA1F82
:10410000BB1FE7CF8093C5069093C606A093C70652
:10411000B093C80683E090E09093C2068093C106F6
:104120006091C5067091C6068091C7069091C80639
:104130006F3FFFEF7F078F079F0791F060930601A6
:1041400070930701809308019093090128E030E003
:10415000611571058105910549F4E0E0F0E00995EC
:1041600082E080937B0410927F043AC02150310991
:1041700079F71BA21AA21DA21CA21FA21EA220E157
:104180008E010F5F1F4FA8010E94FA2EF8010190C7
:104190000020E9F73197AF01401B510BB801CE0168
:1041A00082960E9444111A8219821C821B821E82EE
:1041B0001D8247E050E069E572E0C8010E944411A9
:1041C000BE016E5D7F4FC8010E9431110E94991897
:1041D000C8010E946511CE0182960E946511C0CF70
:1041E000A9960FB6F894DEBF0FBECDBFDF91CF9179
:1041F0001F910F91FF90EF90DF90CF90BF90AF9005
:104200009F908F907F906F905F904F903F902F90F6
:104210000895CF92DF92EF92FF920F931F93E82FB2
:10422000F92F05C0015011092109310961F190816F
:1042300096239417B9F305C00150110921093109DA
:1042400011F1908196239413F7CFC12CD12CE12C3E
:10425000F12C0AC08FEFC81AD80AE80AF80A0C1520
:104260001D052E053F0579F080818623841791F383
:104270006C2D7D2D8E2D9F2D1F910F91FF90EF9016
:10428000DF90CF90089560E070E080E090E01F91B3
:104290000F91FF90EF90DF90CF900895CF93DF9331
:1042A000CDB7DEB762970FB6F894DEBF0FBECDBFB5
:1042B000789484B5826084BD84B5816084BD85B501
:1042C000826085BD85B5816085BD80916E0081600D
:1042D00080936E00109281008091810082608093B3
:1042E00081008091810081608093810080918000B5
:1042F0008160809380008091B10084608093B100E0
:104300008091B00081608093B00080917A008460D9
:1043100080937A0080917A00826080937A00809105
:104320007A00816080937A0080917A00806880931F
:104330007A001092C10010920B0310920A0310929F
:104340005403109276031092520381E0809351033C
:1043500010922C0361E082E10E943A1261E083E155
:104360000E943A128091B9008E7F8093B9008091AB
:10437000B9008D7F8093B90088E48093B80085E40C
:104380008093BC00E091BE03F091BF0382E0808384
:10439000E091BA03F091BB031082E091BC03F0916D
:1043A000BD0380E180831092C603E091C203F091C7
:1043B000C30386E08083E091C003F091C103808154
:1043C00080618083E091C003F091C10380818860A7
:1043D0008083E091C003F091C10380818068808375
:1043E000E091C003F091C10380818F7D808360E004
:1043F00070E086E00E94281360E070E085E00E9493
:10440000281360E070E08BE00E94281360E070E009
:1044100083E00E94281361E08CE00E94EC1261E0CE
:104420008AE00E94EC1262E087E00E94EC1262E0F7
:1044300088E00E94EC1283EA95E00E94D40B6DE0C4
:1044400083EA95E00E94AD1564E683EA95E00E9458
:104450001B158EE895E00E94D40B6AE08EE895E08B
:104460000E94AD1564E68EE895E00E941B1589E771
:1044700095E00E94D40B6CE089E795E00E94AD15B1
:1044800064E689E795E00E941B1597E7E92E93E023
:10449000F92E00E010E0C8010E94E231D7018D93AF
:1044A0007D010F5F1F4F00331105A9F7809177033E
:1044B00090917803873C944089F180E1E7E7F3E04D
:1044C000DF011D928A95E9F787EC94E090937803D9
:1044D0008093770380E090E0A0E8BFE380937903C6
:1044E00090937A03A0937B03B0937C0388E790E0DA
:1044F00090937E0380937D039093800380937F034A
:104500009093820380938103909384038093830329
:1045100090938603809385030E94D01700E020E0EB
:1045200040E060E070E083EA95E00E945C1520E0E6
:1045300040E061E070E083EA95E00E945C1583EA68
:1045400095E00E94DF1560E070E080E090E00E945E
:10455000131A0E94331AE5EFF5E000E010E08081C5
:1045600081112AC023E1209FC001219F900D1124B9
:10457000FC01EB50FA4F7F0181E0808385E090E001
:10458000A0E0B0E081839283A383B4838FEF9FEF99
:104590009683858380E69AE0928781870E94D8136C
:1045A000D7011D966D937D938D939C935097529652
:1045B0001C921E92519707C00F5F1F4F73960A30CF
:1045C000110569F60FEF002E000C110B1093650218
:1045D000009364020E94D10D809162029091630267
:1045E000009709F065C087E00E941112892B09F03D
:1045F0004AC087E391E00E94451D87E00E941112A6
:10460000892BF9F448EC50E060E070E088EE93E02C
:104610000E94E71A6CE271E080E090E00E949E1335
:1046200048EC50E060E070E088EE93E00E94E71A0A
:104630006CE271E080E090E00E949E130E94DD0D2C
:1046400022C01092DE051092DD051092D105109265
:10465000D2051092D3051092D4051092D505109270
:10466000D6051092D7051092D8051092D905109250
:10467000DA051092DB051092DC0582E090E0909361
:1046800063028093620288E00E941112892B51F428
:104690008CE291E00E94451D83E090E090936302DC
:1046A000809362020E94671FFE0131964F01ECC0A9
:1046B0008230910509F066C00E94D8134B015C015D
:1046C0008DEFE82E85E0F82E05EF15E0D8012C914E
:1046D000222309F44CC01D968D919D910D90BC91A3
:1046E000A02DB501A401481B590B6A0B7B0BF801E7
:1046F00081819281A381B481481759076A077B079A
:1047000000F1213019F0223031F011C00184F2851E
:10471000E02D09950CC061E0F7018081811160E016
:10472000D7016C93F701319780810E943A12F8010A
:1047300085869686A786B08A818992890196928B12
:10474000818BD80115968D919C91169797FD0FC07E
:1047500051962D913C9152972817390744F01C929D
:104760001B96ED91FC911C97309709F009950D5E11
:104770001F4FB3E1EB0EF11CE6E0033B1E0709F00F
:10478000A5CF92CF039709F08DCF0E94281820E083
:1047900030E040E251E40E94BE3087FF1FC00E941B
:1047A000E71764E170E080E090E00E949E1364E609
:1047B00070E08CE99FEF0E94011E0E94281820E003
:1047C00030E040E251E40E94BE3087FF34C062E333
:1047D00070E080E090E00E949E13EFCF0E946B2D6E
:1047E0006B017C010E946B2D4B015C01C701B6017E
:1047F00024E630E040E050E00E942A326B017C0168
:10480000F2E3CF0ED11CE11CF11CC501B40124E67A
:1048100030E040E050E00E942A32DC01CB01C29639
:10482000A11DB11DB6010E94011E64E170E080E08F
:1048300090E00E949E1388E00E941112892B09F0DB
:1048400033CF10926302109262020E94E71784E154
:1048500091E00E94451D28CF8EEA93E00E94950FBB
:10486000A091B602E1E0EA0FE093B6020A2E000C36
:10487000BB0BAA58BD4F8C938A3069F08091B60269
:10488000803414F01092B6028EEA93E00E94B70FC3
:10489000892B11F71DC60E2E000CFF0BEA58FD4F99
:1048A0001082809176028D3409F008C687E792E085
:1048B0000E948E2E8C01AE01475F5F4F6BE172E06C
:1048C00087E792E00E94B52E0131110509F4D7C3A4
:1048D0000CF064C00730110509F463C204F503301D
:1048E000110509F49FC194F40130110509F404C1C4
:1048F0000CF067C1012B09F0E1C50E94D10D81E0E8
:1049000090E09093630280936202D8C59A8589856E
:104910000530110509F40EC20CF4D7C127C20C30C2
:10492000110509F48BC27CF50930110509F465C243
:104930000CF446C20B30110509F0C0C568EF71E0F8
:104940008EEA93E00E94B7110E94331A609106012B
:104950007091070180910801909109012FEF3FEFBD
:10496000A901209306013093070140930801509359
:10497000090140E10E94B01864E472E08EEA93E01D
:104980000E94A2119BC50E30110509F41EC30CF440
:10499000DFC20031110509F435C390C5093C11058A
:1049A00009F400C59CF50531110509F402C40CF5A4
:1049B0000331110509F468C30CF0ADC39F928F92C7
:1049C000CE0103969F938F9387E092E09F938F93FE
:1049D0008A858F9389858F930E947A3749815A817E
:1049E000052E000C660B770B8B819C810E94E71AC9
:1049F000D2C10E31110509F48AC4083C110509F42D
:104A0000BCC40631110509F059C53EC4063D110567
:104A100009F400C5C4F5013D110509F4DDC4023DEA
:104A2000110509F4E8C40A3C110509F047C59F9235
:104A30008F92CE0103969F938F9302969F938F93AD
:104A400084E092E09F938F938A858F9389858F93DB
:104A50000E947A3709811A816B817C818D819E81C8
:104A60000E94011EB801110F880B990B0E949E1322
:104A700060E070E080E090E00E94011E82E192E040
:104A80000E94ED1788C10C3221E0120709F4E7C437
:104A90003CF5073D110509F011C59F928F928AE000
:104AA00092E09F938F938A858F9389858F930E943D
:104AB0007A3789819A8190937E0380937D039093C6
:104AC000800380937F03909382038093810390936C
:104AD0008403809383039093860380938503B8C4F3
:104AE000063341E0140709F4C6C4073E134009F039
:104AF000E5C40C940000E2C49F928F928AE092E099
:104B00009F938F938A858F9389858F930E947A379D
:104B100089819A81FC01EE0FFF1FE957FC4FC0808D
:104B2000D1800D2C000CEE08FF080D96880F991F00
:104B3000FC01E958FC4F40805180052C000C6608B0
:104B40007708FC01EF52FA4F80810E948713092EEB
:104B5000000CAA0BBB0B9C01AD01241935094609B9
:104B60005709A8EEB3E00E944932A7019601241923
:104B70003509460957090E942A3269017A0160EE17
:104B800071E08EEA93E00E94B71169817A81072E65
:104B9000000C880B990B0F900F900F900F900F90B7
:104BA0000F9097FF03C00E94F31803C04AE00E94D1
:104BB000B0186BE172E08EEA93E00E94B711C60173
:104BC000B6C064EE71E08EEA93E00E94B711609186
:104BD000DF057091E0058091E1059091E20542E0EA
:104BE0000E942C196BE172E08EEA93E00E94B711EB
:104BF0006091E3057091E4058091E5059091E605EB
:104C000042E00E942C196BE172E08EEA93E00E9470
:104C1000B7116091E7057091E8058091E9059091E1
:104C2000EA05CBC009851A851A830983C12CD12CCA
:104C3000760126013701CB86DC86ED86FE86012BC8
:104C400039F1A4016BE172E080E090E00E94B52EA2
:104C50008C01DC018C91803549F4C80101960E94D9
:104C60008A2E6B877C878D879E87E9CF893439F4BC
:104C7000C80101960E948A2E2B013C01E0CF8434AA
:104C8000F1F6C80101960E948A2E6B017C01D7CFF4
:104C90002B853C854D855E852093DF053093E005AF
:104CA0004093E1055093E2054092E3055092E405FC
:104CB0006092E5057092E605C092E705D092E8059E
:104CC000E092E905F092EA05F9C39F928F922AE0FB
:104CD00032E03F932F939F938F930E947A3768EE31
:104CE00071E08EEA93E00E94B71169817A81072E04
:104CF000000C880B990B0F900F900F900F900F9056
:104D00000F9097FF03C00E94F31803C04AE00E946F
:104D1000B0186BE172E08EEA93E00E94B711E9816E
:104D2000FA81EE0FFF1FE358FC4F808191810E94B2
:104D30001219C4C39F928F929E012D5F3F4F3F93E4
:104D40002F9327E032E03F932F939F938F930E94FE
:104D50007A37EB81FC81EE0FFF1FE358FC4F89810E
:104D60009A81918380830E94D01715C09F928F9261
:104D70009E012D5F3F4F3F932F9327E032E03F93FB
:104D80002F939F938F930E947A3769817A818B81C9
:104D90009C810E94131A0FB6F894DEBF0FBECDBFE0
:104DA0008DC30E9428186B017C016CEE71E08EEAC5
:104DB00093E00E94B711C701B6010E94021A7EC398
:104DC00085E10E9487138C0160EF71E08EEA93E029
:104DD0000E94B711B801110F880B990B0E94C530C2
:104DE00020E030E040E85AE30E94243126E636E62F
:104DF00046EA50E40E942431E0CF89859A850E94DA
:104E00008E2E8C0164EF71E08EEA93E00E94B71160
:104E10000130110511F487E004C00230110559F486
:104E200088E00E94111231E020E0892B09F030E087
:104E3000832F922F7CCF8FEF9FEF79CF9F928F920E
:104E40008DEF91E09F938F938A858F9389858F93C0
:104E50000E947A3749805A80052C000C6608770832
:104E600010926F0061E089E00E94EC1260E089E03E
:104E70000E943A1282E08093800081E18093810059
:104E800082ED90E0909387008093860086E490E026
:104E9000909389008093880088E293E20E94541ADC
:104EA000809180008F778093800064E971E180E0D9
:104EB00090E00E942E140F900F900F900F900F9083
:104EC0000F9000E210E0C12CD12CE12CF0E8FF2E75
:104ED000D701C60184219521A621B721892B8A2BD0
:104EE0008B2B71F080E392E00E94541A8091800035
:104EF0008F77809380006AE976E080E090E00DC0D3
:104F000080E392E00E94541A809180008F77809312
:104F1000800060E372E080E090E00E942E14F6943E
:104F2000E794D794C7940150110991F680E392E079
:104F30000E94541A809180008F778093800065E0F2
:104F400070E080E090E00E949E130E94331AB6C287
:104F50009F928F92CE0103969F938F9302969F9379
:104F60008F9302969F938F9381E092E09F938F930C
:104F70008A858F9389858F930E947A37E980FB8099
:104F80001D816F8178850FB6F894DEBF0FBECDBF4F
:104F90006115710571F40E2D2F2D412F60E070E029
:104FA00083EA95E00E945C152F2D412F61E070E0AF
:104FB00005C0615071090E2D2F2D412F83EA95E018
:104FC0000E945C1583EA95E09FC19F928F928AE0D0
:104FD00092E09F938F938A858F9389858F930E9408
:104FE0007A371981612F83EA95E00E941B15612FA2
:104FF0008EE895E00E941B15612F89E795E00E94DD
:105000001B1526C29F928F92CE0103969F938F937A
:1050100002969F938F9302969F938F9381E092E0E5
:105020009F938F938A858F9389858F930E947A3778
:10503000E980FB801D816F8178850FB6F894DEBF13
:105040000FBECDBF6115710571F40E2D2F2D412FAF
:1050500060E070E08EE895E00E945C152F2D412FF6
:1050600061E070E005C0615071090E2D2F2D412FB8
:105070008EE895E00E945C158EE895E045C1898533
:105080009A850E94451D1AC29F928F92CE01039667
:105090009F938F9387E092E09F938F938A858F935E
:1050A00089858F930E947A376B817C816554710961
:1050B000072E000C880B990B0E94C53020E030E0D1
:1050C00040E451E40E940F339B01AC0160E070E0CA
:1050D00080E090E40E94BC3329813A814DE7429FF1
:1050E0006001439FD00C11240D2C000CEE08FF082A
:1050F00020E030E04CED53E40E9424310E948133E3
:10510000DC01CB01B701A6010E94E71AC701B60175
:105110000E949E1340CE09851A850E94AD1A81E037
:10512000809362051092640581E090E090936105A0
:105130008093600590935F0580935E05F801019070
:105140000020E9F731979F01201B310B4BEF420301
:105150007001439FF00C1124FAE0EF1AF1087FE090
:10516000C72ED12CCE14DF040CF1E8E6F5E0119245
:10517000119225E0E837F207D1F7D0925B05C09293
:105180005A0510925D0510925C05B8018EE495E019
:105190000E94B7110E94821A64E670E080E090E0FD
:1051A0000E949E1331E0C31AD108DCCF8EE092E05A
:1051B00083C1E984FA8487010D5F1F4F66E6C62E1E
:1051C00062E0D62E43E2E40EF11CF80133978081B1
:1051D0008093020131968081809303013196808112
:1051E00080930001D8018C918093010140E150E04F
:1051F00060E070E080E091E00E94792DF60161931B
:1052000071936F010C5F1F4F0E151F05F1F60E9481
:10521000AD1AE8E6F5E01192119225E0E837F207C1
:10522000D1F7B12CE12CF12C6701CC0CDD1C00E096
:1052300010E0C80187709927892B11F0BB0C0BC0B7
:10524000F80153E0F595E7955A95E1F7EC0DFD1D52
:10525000EA59FD4FB080B7FE08C021E030E0A70159
:10526000B8018EE495E00E946A080F5F1F4F00317D
:105270001105F9F63FEFE31AF30A48E0E416F104EA
:1052800099F60E94821A1AC19F928F92CE010396BC
:105290009F938F9302969F938F9302969F938F93E2
:1052A00081E092E09F938F938A858F9389858F9376
:1052B0000E947A37C980DB801D816F8178850FB6A7
:1052C000F894DEBF0FBECDBF6115710591F4E12CDE
:1052D000F12C0C2D2D2D412FB70189E795E00E946F
:1052E0005C159FEFE91AF90AA0E1EA16F10489F7C3
:1052F00009C0615071090C2D2D2D412F89E795E0D2
:105300000E945C1589E795E00E94DF15D7C09F9247
:105310008F92CE0103969F938F9302969F938F93C4
:1053200084E092E09F938F938A858F9389858F93F2
:105330000E947A3709811A81FB80ED8061E08CE060
:105340000E94EC1261E08AE00E94EC126E2D8CE06B
:105350000E943A126F2D8AE00E943A12B801110F92
:10536000880B990B0E949E1361E08CE00E943A1218
:1053700061E08AE00E943A120ECD9F928F92CE0198
:1053800003969F938F9387E092E09F938F938A85F4
:105390008F9389858F930E947A3769817A818B8177
:1053A0009C8153C09F928F92CE0103969F938F93BF
:1053B00087E092E09F938F938A858F9389858F935F
:1053C0000E947A3789819A81880F991F2B813C81AD
:1053D000B901681B790B37C089859A850E948A2E8E
:1053E0006093790370937A0380937B0390937C039B
:1053F0000E94D01763C067E172E08EEA93E00E94DA
:10540000B7116091790370917A0380917B03909139
:105410007C03D3CC9F928F92CE0103969F938F9360
:1054200087E092E09F938F938A858F9389858F93EE
:105430000E947A3789819A81880F991F2B813C813C
:10544000BC01621B730B820F931F0E94011EA3CC31
:105450000F900F900F900F900F900F902FC00E9401
:10546000E7178BE60E9400188F3FBFEF9B0799F16B
:1054700021E030E043C00E94DD0D20C03FEF231A41
:10548000330A46E02416310409F03CC120E030E044
:1054900040E85FE3C701B6010E94A332609379033D
:1054A00070937A0380937B0390937C030E94D017C0
:1054B0000E94E7178DE192E00E94ED1780E4E6E795
:1054C000F2E0DF011D928A95E9F71092B602D6C983
:1054D0000E94571081C88AE60E9400188F3FBFEFD4
:1054E0009B0751F489E60E940018833D910509F05D
:1054F00028C121E030E022C120E030E0873D910565
:1055000009F417C181E090E09093CC058093CB051E
:10551000AC01415051094230510538F42130310578
:1055200011F02AE608C02BE606C02130310511F043
:1055300028E601C029E62093CD05029721F460E01A
:1055400089E30E942E1760E083E20E942E176FE627
:1055500080E20E942E1785E1E82EF12C10E000E099
:10556000B12CA12CE1E0EE1AF10879F10E9450175C
:1055700023E333E343E35FE3612F702F8B2D9A2DF9
:105580000E9424312B013C016091C8057091C9052E
:10559000072E000C880B990B0E94C5302AE939E9C7
:1055A00049E95EE30E9424319B01AC01C301B201D1
:1055B0000E94A332162F072FB82EA92E62E370E0A7
:1055C00080E090E00E949E13CDCF1F87088BB98AA0
:1055D000AA8A0E94D8132B013C0120E030E040E869
:1055E0005FE32093790330937A0340937B035093D6
:1055F0007C0368E770E088E790E00E94011EC12C00
:10560000D12C7601212C312C0E94501723E333E357
:1056100043E35FE3612F702F8B2D9A2D0E9424317D
:105620006B877C878D879E876091C8057091C905BF
:10563000072E000C880B990B0E94C5302AE939E926
:1056400049E95EE30E9424319B01AC016B857C85B6
:105650008D859E850E94A332162F072FB82EA92E66
:1056600062E370E080E090E00E949E130E94D813F5
:10567000DC01CB0184199509A609B7098536910586
:10568000A105B10508F22F85388949895A89612F0A
:10569000702F8B2D9A2D0E94A2326B877C878D876D
:1056A0009E870E94D8132B013C0120E030E04AE79E
:1056B00054E46B857C858D859E850E94B7331816D2
:1056C0004CF42AE037ED43EA5CE3C701B6010E94DF
:1056D000A33214C020E030E04AE754EC6B857C85AF
:1056E0008D859E850E94BE3087FFC8CE2AE037EDAB
:1056F00043EA5CE3C701B6010E94A2326B017C0160
:10570000212C312C20E030E040E85FE3C701B601F6
:105710000E94A3326093790370937A0380937B0392
:1057200090937C0368E770E088E790E00E94011E98
:105730006BCF82E090E0E8CE20E030E080E090E0C7
:10574000E3CE88E60E940018833D9105A9F382E22A
:1057500092E0B2CE89E795E00E944C0A8EE895E08F
:105760000E944C0A83EA95E00C944C0ACF92DF9297
:10577000EF92FF92CF93DF931092B1031092B00398
:1057800088EEC82E83E0D82EE12CF12CC092B20313
:10579000D092B303E092B403F092B5038CE891E0A9
:1057A0009093AF038093AE0385EC90E09093BB039E
:1057B0008093BA0384EC90E09093BD038093BC0384
:1057C00080EC90E09093BF038093BE0381EC90E067
:1057D0009093C1038093C00382EC90E09093C30345
:1057E0008093C20386EC90E09093C5038093C4033A
:1057F0001092C7031092C8031092C9031092CA03F3
:1058000010924E0410924D04C0924F04D092500456
:10581000E0925104F09252048CE991E090934C0490
:1058200080934B041092A4051092AA051092AC0527
:105830001092AB051092B1051092B2051092B3050B
:105840001092B405C1E0C093B005C093AD051092AD
:10585000AE05D2E0D093AF05C093A30562E070E03F
:1058600083EA95E00E94A51666E083EA95E00E942F
:10587000AD1510928F051092950510929705109214
:10588000960510929C0510929D0510929E0510920F
:105890009F05C0939B05C093980510929905D093DE
:1058A0009A05C0938E0562E070E08EE895E00E9454
:1058B000A51666E08EE895E00E94AD1510927A0577
:1058C0001092800510928205109281051092870532
:1058D000109288051092890510928A05C09386055A
:1058E000C093830510928405D0938505C0937905F4
:1058F00060E170E089E795E00E94A51666E089E71F
:1059000095E00E94AD15109251051092500520E1CE
:1059100030E0309353052093520588E090E0909357
:105920005505809354053093570520935605909361
:105930005905809358051092630510925B051092EB
:105940005A0510925D0510925C05C09362058FEFB9
:105950009FEF909361058093600590935F0580931E
:105960005E05C0936405109265051092670510925C
:1059700066058CEA91E090934F0580934E05D09395
:105980007C0410927E041092BB051092BA05C0925E
:10599000BC05D092BD05E092BE05F092BF0584ED36
:1059A00091E09093B9058093B805E5EFF5E010829A
:1059B000739686E0E33BF807D1F780E090E0A0EC37
:1059C000B0E48093DF059093E005A093E105B093E8
:1059D000E2058DEC9CECACECBEE38093E305909388
:1059E000E405A093E505B093E60580E090E0A8E427
:1059F000B3E48093E7059093E805A093E905B0939D
:105A0000EA058AE0E0E7F1E0ABEEB5E001900D9247
:105A10008A95E1F783E090E09093CC058093CB05E5
:105A20001092CF051092CE051092D005DF91CF9144
:105A3000FF90EF90DF90CF9008958F929F92AF925A
:105A4000BF92CF92DF92EF92FF92CF93DF93EC0160
:105A5000688179818A819B81611571058105910534
:105A600021F464E279ED8BE597E02DE133EF41E03D
:105A700050E00E942A3249015A019B01AC01A7EA79
:105A8000B1E40E9449326B017C01ACEEB4EFA50198
:105A900094010E945732DC01CB018C0D9D1DAE1D7F
:105AA000BF1DB7FF03C00197A109B0488883998340
:105AB000AA83BB83BC01CD019F77DF91CF91FF907B
:105AC000EF90DF90CF90BF90AF909F908F90089510
:105AD0000E941D2D08958AE091E00E941D2D0895D9
